{
  "_format": "hh-sol-artifact-1",
  "contractName": "GraphiteTrustScoreAdapter",
  "sourceName": "contracts/GraphiteTrustScoreAdapter.sol",
  "abi": [
    {
      "inputs": [],
      "stateMutability": "nonpayable",
      "type": "constructor"
    },
    {
      "inputs": [],
      "name": "REPUTATION_CONTRACT_ADDRESS",
      "outputs": [
        {
          "internalType": "address",
          "name": "",
          "type": "address"
        }
      ],
      "stateMutability": "view",
      "type": "function"
    },
    {
      "inputs": [
        {
          "internalType": "uint256",
          "name": "trustScore",
          "type": "uint256"
        }
      ],
      "name": "getTierLevel",
      "outputs": [
        {
          "internalType": "uint256",
          "name": "tier",
          "type": "uint256"
        }
      ],
      "stateMutability": "pure",
      "type": "function"
    },
    {
      "inputs": [
        {
          "internalType": "address",
          "name": "user",
          "type": "address"
        }
      ],
      "name": "getTrustScore",
      "outputs": [
        {
          "internalType": "uint256",
          "name": "trustScore",
          "type": "uint256"
        }
      ],
      "stateMutability": "view",
      "type": "function"
    },
    {
      "inputs": [
        {
          "internalType": "address",
          "name": "user",
          "type": "address"
        },
        {
          "internalType": "uint256",
          "name": "minScore",
          "type": "uint256"
        }
      ],
      "name": "meetsTrustThreshold",
      "outputs": [
        {
          "internalType": "bool",
          "name": "meets",
          "type": "bool"
        }
      ],
      "stateMutability": "view",
      "type": "function"
    }
  ],
  "bytecode": "0x608060405234801561001057600080fd5b50600080546001600160a01b031916611008179055610356806100346000396000f3fe608060405234801561001057600080fd5b506004361061004c5760003560e01c80635e09eea114610051578063b7713b7c14610077578063b8e70b981461008a578063c24c445a146100ab575b600080fd5b61006461005f366004610253565b6100ce565b6040519081526020015b60405180910390f35b610064610085366004610275565b610170565b61009361100881565b6040516001600160a01b03909116815260200161006e565b6100be6100b936600461028e565b6101c1565b604051901515815260200161006e565b60008054604051634e44d07160e11b81526001600160a01b03848116600483015283921690639c89a0e290602401602060405180830381865afa158015610119573d6000803e3d6000fd5b505050506040513d601f19601f8201168201806040525081019061013d91906102b8565b905061028a61014e6103e8836102d1565b61015891906102fe565b91506103e882111561016a576103e891505b50919050565b600060c882101561018357506001919050565b61019082101561019557506002919050565b6102588210156101a757506003919050565b6103208210156101b957506004919050565b506005919050565b604051635e09eea160e01b81526001600160a01b038316600482015260009082903090635e09eea190602401602060405180830381865afa15801561020a573d6000803e3d6000fd5b505050506040513d601f19601f8201168201806040525081019061022e91906102b8565b10159392505050565b80356001600160a01b038116811461024e57600080fd5b919050565b60006020828403121561026557600080fd5b61026e82610237565b9392505050565b60006020828403121561028757600080fd5b5035919050565b600080604083850312156102a157600080fd5b6102aa83610237565b946020939093013593505050565b6000602082840312156102ca57600080fd5b5051919050565b60008160001904831182151516156102f957634e487b7160e01b600052601160045260246000fd5b500290565b60008261031b57634e487b7160e01b600052601260045260246000fd5b50049056fea2646970667358221220f257b5d0ca8f4245160ac44f77ea4f9c71c56fe8751858211c14f7adc08ec6f764736f6c634300080d0033",
  "linkReferences": {},
  "deployedLinkReferences": {}
}