{"abi":[{"type":"constructor","inputs":[{"name":"_trustScoreContract","type":"address","internalType":"address"},{"name":"_kycContract","type":"address","internalType":"address"},{"name":"_activationContract","type":"address","internalType":"address"}],"stateMutability":"nonpayable"},{"type":"function","name":"FEE_CONTRACT_ADDRESS","inputs":[],"outputs":[{"name":"","type":"address","internalType":"address"}],"stateMutability":"view"},{"type":"function","name":"FILTER_CONTRACT_ADDRESS","inputs":[],"outputs":[{"name":"","type":"address","internalType":"address"}],"stateMutability":"view"},{"type":"function","name":"KYC_CONTRACT_ADDRESS","inputs":[],"outputs":[{"name":"","type":"address","internalType":"address"}],"stateMutability":"view"},{"type":"function","name":"REPUTATION_CONTRACT_ADDRESS","inputs":[],"outputs":[{"name":"","type":"address","internalType":"address"}],"stateMutability":"view"},{"type":"function","name":"activationContract","inputs":[],"outputs":[{"name":"","type":"address","internalType":"contract IGraphiteActivation"}],"stateMutability":"view"},{"type":"function","name":"airdropCreators","inputs":[{"name":"","type":"address","internalType":"address"}],"outputs":[{"name":"","type":"address","internalType":"address"}],"stateMutability":"view"},{"type":"function","name":"airdrops","inputs":[{"name":"","type":"uint256","internalType":"uint256"}],"outputs":[{"name":"","type":"address","internalType":"contract SybilResistantAirdrop"}],"stateMutability":"view"},{"type":"function","name":"createAirdrop","inputs":[{"name":"tokenAddress","type":"address","internalType":"address"},{"name":"merkleRoot","type":"bytes32","internalType":"bytes32"},{"name":"requiredTrustScore","type":"uint256","internalType":"uint256"},{"name":"requiredKYCLevel","type":"uint256","internalType":"uint256"},{"name":"requiredAccountAge","type":"uint256","internalType":"uint256"},{"name":"startTime","type":"uint256","internalType":"uint256"},{"name":"endTime","type":"uint256","internalType":"uint256"}],"outputs":[{"name":"newAirdrop","type":"address","internalType":"contract SybilResistantAirdrop"}],"stateMutability":"nonpayable"},{"type":"function","name":"creatorAirdrops","inputs":[{"name":"","type":"address","internalType":"address"},{"name":"","type":"uint256","internalType":"uint256"}],"outputs":[{"name":"","type":"address","internalType":"contract SybilResistantAirdrop"}],"stateMutability":"view"},{"type":"function","name":"filterContract","inputs":[],"outputs":[{"name":"","type":"address","internalType":"contract IGraphiteFilter"}],"stateMutability":"view"},{"type":"function","name":"getAirdropCount","inputs":[],"outputs":[{"name":"","type":"uint256","internalType":"uint256"}],"stateMutability":"view"},{"type":"function","name":"getAllAirdrops","inputs":[],"outputs":[{"name":"","type":"address[]","internalType":"contract SybilResistantAirdrop[]"}],"stateMutability":"view"},{"type":"function","name":"getCreatorAirdrops","inputs":[{"name":"creator","type":"address","internalType":"address"}],"outputs":[{"name":"","type":"address[]","internalType":"contract SybilResistantAirdrop[]"}],"stateMutability":"view"},{"type":"function","name":"getReputationScore","inputs":[{"name":"user","type":"address","internalType":"address"}],"outputs":[{"name":"score","type":"uint256","internalType":"uint256"}],"stateMutability":"view"},{"type":"function","name":"isTransactionAllowed","inputs":[{"name":"sender","type":"address","internalType":"address"},{"name":"recipient","type":"address","internalType":"address"}],"outputs":[{"name":"allowed","type":"bool","internalType":"bool"}],"stateMutability":"view"},{"type":"function","name":"kycContract","inputs":[],"outputs":[{"name":"","type":"address","internalType":"contract IGraphiteKYC"}],"stateMutability":"view"},{"type":"function","name":"owner","inputs":[],"outputs":[{"name":"","type":"address","internalType":"address"}],"stateMutability":"view"},{"type":"function","name":"renounceOwnership","inputs":[],"outputs":[],"stateMutability":"nonpayable"},{"type":"function","name":"reputationContract","inputs":[],"outputs":[{"name":"","type":"address","internalType":"contract IGraphiteReputation"}],"stateMutability":"view"},{"type":"function","name":"setActivationContract","inputs":[{"name":"_activationContract","type":"address","internalType":"address"}],"outputs":[],"stateMutability":"nonpayable"},{"type":"function","name":"setKYCContract","inputs":[{"name":"_kycContract","type":"address","internalType":"address"}],"outputs":[],"stateMutability":"nonpayable"},{"type":"function","name":"setTrustScoreContract","inputs":[{"name":"_trustScoreContract","type":"address","internalType":"address"}],"outputs":[],"stateMutability":"nonpayable"},{"type":"function","name":"transferOwnership","inputs":[{"name":"newOwner","type":"address","internalType":"address"}],"outputs":[],"stateMutability":"nonpayable"},{"type":"function","name":"trustScoreContract","inputs":[],"outputs":[{"name":"","type":"address","internalType":"contract IGraphiteTrustScore"}],"stateMutability":"view"},{"type":"event","name":"AirdropCreated","inputs":[{"name":"creator","type":"address","indexed":true,"internalType":"address"},{"name":"tokenAddress","type":"address","indexed":true,"internalType":"address"},{"name":"airdropContract","type":"address","indexed":false,"internalType":"address"}],"anonymous":false},{"type":"event","name":"OwnershipTransferred","inputs":[{"name":"previousOwner","type":"address","indexed":true,"internalType":"address"},{"name":"newOwner","type":"address","indexed":true,"internalType":"address"}],"anonymous":false},{"type":"error","name":"AccountNotActivated","inputs":[]},{"type":"error","name":"InsufficientKYCLevel","inputs":[]},{"type":"error","name":"InsufficientReputationScore","inputs":[]},{"type":"error","name":"InvalidMerkleRoot","inputs":[]},{"type":"error","name":"InvalidTokenAddress","inputs":[]},{"type":"error","name":"OwnableInvalidOwner","inputs":[{"name":"owner","type":"address","internalType":"address"}]},{"type":"error","name":"OwnableUnauthorizedAccount","inputs":[{"name":"account","type":"address","internalType":"address"}]}],"bytecode":{"object":"0x608060405234801561000f575f5ffd5b506040516148b83803806148b88339818101604052810190610031919061031d565b335f73ffffffffffffffffffffffffffffffffffffffff168173ffffffffffffffffffffffffffffffffffffffff16036100a2575f6040517f1e4fbdf7000000000000000000000000000000000000000000000000000000008152600401610099919061037c565b60405180910390fd5b6100b1816101fe60201b60201c565b508260015f6101000a81548173ffffffffffffffffffffffffffffffffffffffff021916908373ffffffffffffffffffffffffffffffffffffffff1602179055508160025f6101000a81548173ffffffffffffffffffffffffffffffffffffffff021916908373ffffffffffffffffffffffffffffffffffffffff1602179055508060035f6101000a81548173ffffffffffffffffffffffffffffffffffffffff021916908373ffffffffffffffffffffffffffffffffffffffff16021790555061100260045f6101000a81548173ffffffffffffffffffffffffffffffffffffffff021916908373ffffffffffffffffffffffffffffffffffffffff16021790555061100860055f6101000a81548173ffffffffffffffffffffffffffffffffffffffff021916908373ffffffffffffffffffffffffffffffffffffffff160217905550505050610395565b5f5f5f9054906101000a900473ffffffffffffffffffffffffffffffffffffffff169050815f5f6101000a81548173ffffffffffffffffffffffffffffffffffffffff021916908373ffffffffffffffffffffffffffffffffffffffff1602179055508173ffffffffffffffffffffffffffffffffffffffff168173ffffffffffffffffffffffffffffffffffffffff167f8be0079c531659141344cd1fd0a4f28419497f9722a3daafe3b4186f6b6457e060405160405180910390a35050565b5f5ffd5b5f73ffffffffffffffffffffffffffffffffffffffff82169050919050565b5f6102ec826102c3565b9050919050565b6102fc816102e2565b8114610306575f5ffd5b50565b5f81519050610317816102f3565b92915050565b5f5f5f60608486031215610334576103336102bf565b5b5f61034186828701610309565b935050602061035286828701610309565b925050604061036386828701610309565b9150509250925092565b610376816102e2565b82525050565b5f60208201905061038f5f83018461036d565b92915050565b614516806103a25f395ff3fe608060405234801561000f575f5ffd5b5060043610610156575f3560e01c806387bc1425116100c1578063d7444eeb1161007a578063d7444eeb146103c8578063dc7831fd146103e6578063e3ab97e114610404578063f2fde38b14610422578063f3ad1ec51461043e578063f493ba571461045c57610156565b806387bc1425146103065780638c33da76146103245780638da5cb5b14610340578063a90b6a321461035e578063b8e70b981461037a578063d2267a611461039857610156565b80636d3123eb116101135780636d3123eb14610230578063715018a61461024e57806375a67d5c146102585780638169c3b914610288578063847a18bb146102b857806385f6fa94146102d657610156565b8063130c38d31461015a57806314373e57146101785780632bd7509c146101a85780634a60bb17146101c65780634df4ebd8146101e257806360db508214610200575b5f5ffd5b61016261048c565b60405161016f91906112a4565b60405180910390f35b610192600480360381019061018d919061131b565b610498565b60405161019f9190611373565b60405180910390f35b6101b061053c565b6040516101bd919061139b565b60405180910390f35b6101e060048036038101906101db91906113b4565b610542565b005b6101ea61058d565b6040516101f7919061139b565b60405180910390f35b61021a60048036038101906102159190611409565b610593565b604051610227919061148f565b60405180910390f35b6102386105ce565b60405161024591906114c8565b60405180910390f35b6102566105f3565b005b610272600480360381019061026d91906113b4565b610606565b60405161027f91906112a4565b60405180910390f35b6102a2600480360381019061029d91906113b4565b6106a7565b6040516102af9190611598565b60405180910390f35b6102c061076f565b6040516102cd91906115d8565b60405180910390f35b6102f060048036038101906102eb91906115f1565b610794565b6040516102fd919061148f565b60405180910390f35b61030e6107dc565b60405161031b919061164f565b60405180910390f35b61033e600480360381019061033991906113b4565b610801565b005b61034861084c565b604051610355919061139b565b60405180910390f35b610378600480360381019061037391906113b4565b610873565b005b6103826108be565b60405161038f919061139b565b60405180910390f35b6103b260048036038101906103ad919061169b565b6108c4565b6040516103bf919061148f565b60405180910390f35b6103d0610fa1565b6040516103dd9190611598565b60405180910390f35b6103ee61102c565b6040516103fb9190611758565b60405180910390f35b61040c611051565b604051610419919061139b565b60405180910390f35b61043c600480360381019061043791906113b4565b611057565b005b6104466110db565b6040516104539190611791565b60405180910390f35b610476600480360381019061047191906113b4565b611100565b604051610483919061139b565b60405180910390f35b5f600680549050905090565b5f60045f9054906101000a900473ffffffffffffffffffffffffffffffffffffffff1673ffffffffffffffffffffffffffffffffffffffff1663e1917fda84846040518363ffffffff1660e01b81526004016104f59291906117aa565b602060405180830381865afa158015610510573d5f5f3e3d5ffd5b505050506040513d601f19601f8201168201806040525081019061053491906117fb565b905092915050565b61100181565b61054a611130565b8060025f6101000a81548173ffffffffffffffffffffffffffffffffffffffff021916908373ffffffffffffffffffffffffffffffffffffffff16021790555050565b61100281565b600681815481106105a2575f80fd5b905f5260205f20015f915054906101000a900473ffffffffffffffffffffffffffffffffffffffff1681565b60025f9054906101000a900473ffffffffffffffffffffffffffffffffffffffff1681565b6105fb611130565b6106045f6111b7565b565b5f60055f9054906101000a900473ffffffffffffffffffffffffffffffffffffffff1673ffffffffffffffffffffffffffffffffffffffff16639c89a0e2836040518263ffffffff1660e01b8152600401610661919061139b565b602060405180830381865afa15801561067c573d5f5f3e3d5ffd5b505050506040513d601f19601f820116820180604052508101906106a0919061183a565b9050919050565b606060085f8373ffffffffffffffffffffffffffffffffffffffff1673ffffffffffffffffffffffffffffffffffffffff1681526020019081526020015f2080548060200260200160405190810160405280929190818152602001828054801561076357602002820191905f5260205f20905b815f9054906101000a900473ffffffffffffffffffffffffffffffffffffffff1673ffffffffffffffffffffffffffffffffffffffff168152602001906001019080831161071a575b50505050509050919050565b60045f9054906101000a900473ffffffffffffffffffffffffffffffffffffffff1681565b6008602052815f5260405f2081815481106107ad575f80fd5b905f5260205f20015f915091509054906101000a900473ffffffffffffffffffffffffffffffffffffffff1681565b60055f9054906101000a900473ffffffffffffffffffffffffffffffffffffffff1681565b610809611130565b8060035f6101000a81548173ffffffffffffffffffffffffffffffffffffffff021916908373ffffffffffffffffffffffffffffffffffffffff16021790555050565b5f5f5f9054906101000a900473ffffffffffffffffffffffffffffffffffffffff16905090565b61087b611130565b8060015f6101000a81548173ffffffffffffffffffffffffffffffffffffffff021916908373ffffffffffffffffffffffffffffffffffffffff16021790555050565b61100881565b5f5f73ffffffffffffffffffffffffffffffffffffffff168873ffffffffffffffffffffffffffffffffffffffff160361092a576040517f1eb00b0600000000000000000000000000000000000000000000000000000000815260040160405180910390fd5b5f5f1b8703610965576040517f9dd854d300000000000000000000000000000000000000000000000000000000815260040160405180910390fd5b60035f9054906101000a900473ffffffffffffffffffffffffffffffffffffffff1673ffffffffffffffffffffffffffffffffffffffff1663c9faa7c5336040518263ffffffff1660e01b81526004016109bf919061139b565b602060405180830381865afa1580156109da573d5f5f3e3d5ffd5b505050506040513d601f19601f820116820180604052508101906109fe91906117fb565b610a34576040517f125d8e2100000000000000000000000000000000000000000000000000000000815260040160405180910390fd5b60025f9054906101000a900473ffffffffffffffffffffffffffffffffffffffff1673ffffffffffffffffffffffffffffffffffffffff1663aed3cba33360016040518363ffffffff1660e01b8152600401610a9192919061189e565b602060405180830381865afa158015610aac573d5f5f3e3d5ffd5b505050506040513d601f19601f82011682018060405250810190610ad091906117fb565b610b06576040517f1742b65500000000000000000000000000000000000000000000000000000000815260040160405180910390fd5b5f6729a2241af62c000090508060055f9054906101000a900473ffffffffffffffffffffffffffffffffffffffff1673ffffffffffffffffffffffffffffffffffffffff16639c89a0e2336040518263ffffffff1660e01b8152600401610b6d919061139b565b602060405180830381865afa158015610b88573d5f5f3e3d5ffd5b505050506040513d601f19601f82011682018060405250810190610bac919061183a565b1015610be4576040517fd89a6e6500000000000000000000000000000000000000000000000000000000815260040160405180910390fd5b888860015f9054906101000a900473ffffffffffffffffffffffffffffffffffffffff1660025f9054906101000a900473ffffffffffffffffffffffffffffffffffffffff1660035f9054906101000a900473ffffffffffffffffffffffffffffffffffffffff16604051610c589061127f565b610c669594939291906118d4565b604051809103905ff080158015610c7f573d5f5f3e3d5ffd5b5091508173ffffffffffffffffffffffffffffffffffffffff1663f2fde38b336040518263ffffffff1660e01b8152600401610cbb919061139b565b5f604051808303815f87803b158015610cd2575f5ffd5b505af1158015610ce4573d5f5f3e3d5ffd5b505050508173ffffffffffffffffffffffffffffffffffffffff16630ecff8128888886040518463ffffffff1660e01b8152600401610d2593929190611925565b5f604051808303815f87803b158015610d3c575f5ffd5b505af1158015610d4e573d5f5f3e3d5ffd5b505050508173ffffffffffffffffffffffffffffffffffffffff16634b6ce9bc85856040518363ffffffff1660e01b8152600401610d8d92919061195a565b5f604051808303815f87803b158015610da4575f5ffd5b505af1158015610db6573d5f5f3e3d5ffd5b50505050600682908060018154018082558091505060019003905f5260205f20015f9091909190916101000a81548173ffffffffffffffffffffffffffffffffffffffff021916908373ffffffffffffffffffffffffffffffffffffffff1602179055503360075f8473ffffffffffffffffffffffffffffffffffffffff1673ffffffffffffffffffffffffffffffffffffffff1681526020019081526020015f205f6101000a81548173ffffffffffffffffffffffffffffffffffffffff021916908373ffffffffffffffffffffffffffffffffffffffff16021790555060085f3373ffffffffffffffffffffffffffffffffffffffff1673ffffffffffffffffffffffffffffffffffffffff1681526020019081526020015f2082908060018154018082558091505060019003905f5260205f20015f9091909190916101000a81548173ffffffffffffffffffffffffffffffffffffffff021916908373ffffffffffffffffffffffffffffffffffffffff1602179055508873ffffffffffffffffffffffffffffffffffffffff163373ffffffffffffffffffffffffffffffffffffffff167f0319f1f4517ea22a6dba50a26b08c276181429cafd5268e0835cff2e9dee671a84604051610f8d919061139b565b60405180910390a350979650505050505050565b6060600680548060200260200160405190810160405280929190818152602001828054801561102257602002820191905f5260205f20905b815f9054906101000a900473ffffffffffffffffffffffffffffffffffffffff1673ffffffffffffffffffffffffffffffffffffffff1681526020019060010190808311610fd9575b5050505050905090565b60015f9054906101000a900473ffffffffffffffffffffffffffffffffffffffff1681565b61100081565b61105f611130565b5f73ffffffffffffffffffffffffffffffffffffffff168173ffffffffffffffffffffffffffffffffffffffff16036110cf575f6040517f1e4fbdf70000000000000000000000000000000000000000000000000000000081526004016110c6919061139b565b60405180910390fd5b6110d8816111b7565b50565b60035f9054906101000a900473ffffffffffffffffffffffffffffffffffffffff1681565b6007602052805f5260405f205f915054906101000a900473ffffffffffffffffffffffffffffffffffffffff1681565b611138611278565b73ffffffffffffffffffffffffffffffffffffffff1661115661084c565b73ffffffffffffffffffffffffffffffffffffffff16146111b557611179611278565b6040517f118cdaa70000000000000000000000000000000000000000000000000000000081526004016111ac919061139b565b60405180910390fd5b565b5f5f5f9054906101000a900473ffffffffffffffffffffffffffffffffffffffff169050815f5f6101000a81548173ffffffffffffffffffffffffffffffffffffffff021916908373ffffffffffffffffffffffffffffffffffffffff1602179055508173ffffffffffffffffffffffffffffffffffffffff168173ffffffffffffffffffffffffffffffffffffffff167f8be0079c531659141344cd1fd0a4f28419497f9722a3daafe3b4186f6b6457e060405160405180910390a35050565b5f33905090565b612b5f8061198283390190565b5f819050919050565b61129e8161128c565b82525050565b5f6020820190506112b75f830184611295565b92915050565b5f5ffd5b5f73ffffffffffffffffffffffffffffffffffffffff82169050919050565b5f6112ea826112c1565b9050919050565b6112fa816112e0565b8114611304575f5ffd5b50565b5f81359050611315816112f1565b92915050565b5f5f60408385031215611331576113306112bd565b5b5f61133e85828601611307565b925050602061134f85828601611307565b9150509250929050565b5f8115159050919050565b61136d81611359565b82525050565b5f6020820190506113865f830184611364565b92915050565b611395816112e0565b82525050565b5f6020820190506113ae5f83018461138c565b92915050565b5f602082840312156113c9576113c86112bd565b5b5f6113d684828501611307565b91505092915050565b6113e88161128c565b81146113f2575f5ffd5b50565b5f81359050611403816113df565b92915050565b5f6020828403121561141e5761141d6112bd565b5b5f61142b848285016113f5565b91505092915050565b5f819050919050565b5f61145761145261144d846112c1565b611434565b6112c1565b9050919050565b5f6114688261143d565b9050919050565b5f6114798261145e565b9050919050565b6114898161146f565b82525050565b5f6020820190506114a25f830184611480565b92915050565b5f6114b28261145e565b9050919050565b6114c2816114a8565b82525050565b5f6020820190506114db5f8301846114b9565b92915050565b5f81519050919050565b5f82825260208201905092915050565b5f819050602082019050919050565b6115138161146f565b82525050565b5f611524838361150a565b60208301905092915050565b5f602082019050919050565b5f611546826114e1565b61155081856114eb565b935061155b836114fb565b805f5b8381101561158b5781516115728882611519565b975061157d83611530565b92505060018101905061155e565b5085935050505092915050565b5f6020820190508181035f8301526115b0818461153c565b905092915050565b5f6115c28261145e565b9050919050565b6115d2816115b8565b82525050565b5f6020820190506115eb5f8301846115c9565b92915050565b5f5f60408385031215611607576116066112bd565b5b5f61161485828601611307565b9250506020611625858286016113f5565b9150509250929050565b5f6116398261145e565b9050919050565b6116498161162f565b82525050565b5f6020820190506116625f830184611640565b92915050565b5f819050919050565b61167a81611668565b8114611684575f5ffd5b50565b5f8135905061169581611671565b92915050565b5f5f5f5f5f5f5f60e0888a0312156116b6576116b56112bd565b5b5f6116c38a828b01611307565b97505060206116d48a828b01611687565b96505060406116e58a828b016113f5565b95505060606116f68a828b016113f5565b94505060806117078a828b016113f5565b93505060a06117188a828b016113f5565b92505060c06117298a828b016113f5565b91505092959891949750929550565b5f6117428261145e565b9050919050565b61175281611738565b82525050565b5f60208201905061176b5f830184611749565b92915050565b5f61177b8261145e565b9050919050565b61178b81611771565b82525050565b5f6020820190506117a45f830184611782565b92915050565b5f6040820190506117bd5f83018561138c565b6117ca602083018461138c565b9392505050565b6117da81611359565b81146117e4575f5ffd5b50565b5f815190506117f5816117d1565b92915050565b5f602082840312156118105761180f6112bd565b5b5f61181d848285016117e7565b91505092915050565b5f81519050611834816113df565b92915050565b5f6020828403121561184f5761184e6112bd565b5b5f61185c84828501611826565b91505092915050565b5f819050919050565b5f61188861188361187e84611865565b611434565b61128c565b9050919050565b6118988161186e565b82525050565b5f6040820190506118b15f83018561138c565b6118be602083018461188f565b9392505050565b6118ce81611668565b82525050565b5f60a0820190506118e75f83018861138c565b6118f460208301876118c5565b611901604083018661138c565b61190e606083018561138c565b61191b608083018461138c565b9695505050505050565b5f6060820190506119385f830186611295565b6119456020830185611295565b6119526040830184611295565b949350505050565b5f60408201905061196d5f830185611295565b61197a6020830184611295565b939250505056fe608060405234801561000f575f5ffd5b50604051612b5f380380612b5f833981810160405281019061003191906103df565b335f73ffffffffffffffffffffffffffffffffffffffff168173ffffffffffffffffffffffffffffffffffffffff16036100a2575f6040517f1e4fbdf70000000000000000000000000000000000000000000000000000000081526004016100999190610465565b60405180910390fd5b6100b18161028d60201b60201c565b508460065f6101000a81548173ffffffffffffffffffffffffffffffffffffffff021916908373ffffffffffffffffffffffffffffffffffffffff160217905550836007819055508260015f6101000a81548173ffffffffffffffffffffffffffffffffffffffff021916908373ffffffffffffffffffffffffffffffffffffffff1602179055508160025f6101000a81548173ffffffffffffffffffffffffffffffffffffffff021916908373ffffffffffffffffffffffffffffffffffffffff1602179055508060035f6101000a81548173ffffffffffffffffffffffffffffffffffffffff021916908373ffffffffffffffffffffffffffffffffffffffff16021790555061100260045f6101000a81548173ffffffffffffffffffffffffffffffffffffffff021916908373ffffffffffffffffffffffffffffffffffffffff16021790555061100860055f6101000a81548173ffffffffffffffffffffffffffffffffffffffff021916908373ffffffffffffffffffffffffffffffffffffffff1602179055506101f4600881905550600160098190555062278d00600a81905550671bc16d674ec80000600b8190555042600e8190555062278d004261027d91906104b4565b600f8190555050505050506104e7565b5f5f5f9054906101000a900473ffffffffffffffffffffffffffffffffffffffff169050815f5f6101000a81548173ffffffffffffffffffffffffffffffffffffffff021916908373ffffffffffffffffffffffffffffffffffffffff1602179055508173ffffffffffffffffffffffffffffffffffffffff168173ffffffffffffffffffffffffffffffffffffffff167f8be0079c531659141344cd1fd0a4f28419497f9722a3daafe3b4186f6b6457e060405160405180910390a35050565b5f5ffd5b5f73ffffffffffffffffffffffffffffffffffffffff82169050919050565b5f61037b82610352565b9050919050565b61038b81610371565b8114610395575f5ffd5b50565b5f815190506103a681610382565b92915050565b5f819050919050565b6103be816103ac565b81146103c8575f5ffd5b50565b5f815190506103d9816103b5565b92915050565b5f5f5f5f5f60a086880312156103f8576103f761034e565b5b5f61040588828901610398565b9550506020610416888289016103cb565b945050604061042788828901610398565b935050606061043888828901610398565b925050608061044988828901610398565b9150509295509295909350565b61045f81610371565b82525050565b5f6020820190506104785f830184610456565b92915050565b5f819050919050565b7f4e487b71000000000000000000000000000000000000000000000000000000005f52601160045260245ffd5b5f6104be8261047e565b91506104c98361047e565b92508282019050808211156104e1576104e0610487565b5b92915050565b61266b806104f45f395ff3fe608060405234801561000f575f5ffd5b506004361061020f575f3560e01c80636d3123eb11610123578063aa92e1c5116100ab578063e6186da61161007a578063e6186da6146105c2578063e9c8abec146105e0578063f2fde38b146105fe578063f3ad1ec51461061a578063fc0c546a146106385761020f565b8063aa92e1c514610538578063b8e70b9814610556578063dbac26e914610574578063dc7831fd146105a45761020f565b806378e97925116100f257806378e97925146104a2578063847a18bb146104c057806387bc1425146104de5780638da5cb5b146104fc5780639091b4281461051a5761020f565b80636d3123eb14610413578063715018a61461043157806373b2e80e1461043b57806375ae01311461046b5761020f565b80633905c201116101a65780634b6ce9bc116101755780634b6ce9bc1461036f5780634df4ebd81461038b578063565c99ac146103a957806366ccea9e146103c557806366e305fd146103e35761020f565b80633905c201146102fb5780634783f0ef1461031957806349df728c146103355780634b50ebc3146103515761020f565b80632f52ebb7116101e25780632f52ebb7146102875780633197cbb6146102a3578063354f63f4146102c15780633630d992146102df5761020f565b80630ecff81214610213578063153b0d1e1461022f57806319676db01461024b5780632eb4a7ab14610269575b5f5ffd5b61022d60048036038101906102289190611cdc565b610656565b005b61024960048036038101906102449190611dbb565b6106b7565b005b610253610765565b6040516102609190611e08565b60405180910390f35b610271610771565b60405161027e9190611e39565b60405180910390f35b6102a1600480360381019061029c9190611eb3565b610777565b005b6102ab610c30565b6040516102b89190611e08565b60405180910390f35b6102c9610c36565b6040516102d69190611e08565b60405180910390f35b6102f960048036038101906102f49190611f10565b610c3c565b005b610303610ca3565b6040516103109190611e08565b60405180910390f35b610333600480360381019061032e9190611f9e565b610ca9565b005b61034f600480360381019061034a9190611fc9565b610cbb565b005b610359610e93565b6040516103669190611e08565b60405180910390f35b61038960048036038101906103849190611ff4565b610e9a565b005b610393610f26565b6040516103a09190612041565b60405180910390f35b6103c360048036038101906103be9190612104565b610f2c565b005b6103cd6110d5565b6040516103da9190611e08565b60405180910390f35b6103fd60048036038101906103f89190611fc9565b6110da565b60405161040a9190612191565b60405180910390f35b61041b611445565b6040516104289190612205565b60405180910390f35b61043961146a565b005b61045560048036038101906104509190611fc9565b61147d565b6040516104629190612191565b60405180910390f35b61048560048036038101906104809190611fc9565b61149a565b60405161049998979695949392919061221e565b60405180910390f35b6104aa611907565b6040516104b79190611e08565b60405180910390f35b6104c861190d565b6040516104d591906122ba565b60405180910390f35b6104e6611932565b6040516104f391906122f3565b60405180910390f35b610504611957565b6040516105119190612041565b60405180910390f35b61052261197e565b60405161052f9190611e08565b60405180910390f35b610540611984565b60405161054d9190611e08565b60405180910390f35b61055e61198a565b60405161056b9190612041565b60405180910390f35b61058e60048036038101906105899190611fc9565b611990565b60405161059b9190612191565b60405180910390f35b6105ac6119ad565b6040516105b9919061232c565b60405180910390f35b6105ca6119d2565b6040516105d79190611e08565b60405180910390f35b6105e86119d9565b6040516105f59190611e08565b60405180910390f35b61061860048036038101906106139190611fc9565b6119df565b005b610622611a63565b60405161062f9190612365565b60405180910390f35b610640611a88565b60405161064d919061239e565b60405180910390f35b61065e611aad565b826008819055508160098190555080600a819055507fd78cc9e55622bf61c1019468649f2393bbad530cdce8cd140342658d0d04e301838383600b546040516106aa94939291906123b7565b60405180910390a1505050565b6106bf611aad565b80600d5f8473ffffffffffffffffffffffffffffffffffffffff1673ffffffffffffffffffffffffffffffffffffffff1681526020019081526020015f205f6101000a81548160ff0219169083151502179055508173ffffffffffffffffffffffffffffffffffffffff167f6a12b3df6cba4203bd7fd06b816789f87de8c594299aed5717ae070fac781bac826040516107599190612191565b60405180910390a25050565b671bc16d674ec8000081565b60075481565b600e544210156107b3576040517fb820fc9700000000000000000000000000000000000000000000000000000000815260040160405180910390fd5b600f544211156107ef576040517fc3bba9e000000000000000000000000000000000000000000000000000000000815260040160405180910390fd5b600c5f3373ffffffffffffffffffffffffffffffffffffffff1673ffffffffffffffffffffffffffffffffffffffff1681526020019081526020015f205f9054906101000a900460ff1615610870576040517f646cf55800000000000000000000000000000000000000000000000000000000815260040160405180910390fd5b600d5f3373ffffffffffffffffffffffffffffffffffffffff1673ffffffffffffffffffffffffffffffffffffffff1681526020019081526020015f205f9054906101000a900460ff16156108f1576040517f1f7b776b00000000000000000000000000000000000000000000000000000000815260040160405180910390fd5b6108fa336110da565b610930576040517ff8eb54de00000000000000000000000000000000000000000000000000000000815260040160405180910390fd5b60045f9054906101000a900473ffffffffffffffffffffffffffffffffffffffff1673ffffffffffffffffffffffffffffffffffffffff1663e1917fda30336040518363ffffffff1660e01b815260040161098c9291906123fa565b602060405180830381865afa1580156109a7573d5f5f3e3d5ffd5b505050506040513d601f19601f820116820180604052508101906109cb9190612435565b610a01576040517f8d2e3b9d00000000000000000000000000000000000000000000000000000000815260040160405180910390fd5b5f3384604051602001610a159291906124c5565b604051602081830303815290604052805190602001209050610a7a8383808060200260200160405190810160405280939291908181526020018383602002808284375f81840152601f19601f8201169050808301925050505050505060075483611b34565b610ab0576040517fb05e92fa00000000000000000000000000000000000000000000000000000000815260040160405180910390fd5b6001600c5f3373ffffffffffffffffffffffffffffffffffffffff1673ffffffffffffffffffffffffffffffffffffffff1681526020019081526020015f205f6101000a81548160ff0219169083151502179055505f60065f9054906101000a900473ffffffffffffffffffffffffffffffffffffffff1673ffffffffffffffffffffffffffffffffffffffff1663a9059cbb33876040518363ffffffff1660e01b8152600401610b629291906124f0565b6020604051808303815f875af1158015610b7e573d5f5f3e3d5ffd5b505050506040513d601f19601f82011682018060405250810190610ba29190612435565b905080610bdb576040517f90b8ec1800000000000000000000000000000000000000000000000000000000815260040160405180910390fd5b3373ffffffffffffffffffffffffffffffffffffffff167f650e45f04ef8a0c267b2f78d983913f69ae3a353b2b32de5429307522be0ab5586604051610c219190611e08565b60405180910390a25050505050565b600f5481565b6101f481565b610c44611aad565b836008819055508260098190555081600a8190555080600b819055507fd78cc9e55622bf61c1019468649f2393bbad530cdce8cd140342658d0d04e30184848484604051610c9594939291906123b7565b60405180910390a150505050565b60085481565b610cb1611aad565b8060078190555050565b610cc3611aad565b5f8190505f8173ffffffffffffffffffffffffffffffffffffffff166370a08231306040518263ffffffff1660e01b8152600401610d019190612041565b602060405180830381865afa158015610d1c573d5f5f3e3d5ffd5b505050506040513d601f19601f82011682018060405250810190610d40919061252b565b90505f8103610d7b576040517ffba5154e00000000000000000000000000000000000000000000000000000000815260040160405180910390fd5b60065f9054906101000a900473ffffffffffffffffffffffffffffffffffffffff1673ffffffffffffffffffffffffffffffffffffffff168373ffffffffffffffffffffffffffffffffffffffff1603610e0b57600f544211610e0a576040517f56546c8900000000000000000000000000000000000000000000000000000000815260040160405180910390fd5b5b8173ffffffffffffffffffffffffffffffffffffffff1663a9059cbb610e2f611957565b836040518363ffffffff1660e01b8152600401610e4d9291906124f0565b6020604051808303815f875af1158015610e69573d5f5f3e3d5ffd5b505050506040513d601f19601f82011682018060405250810190610e8d9190612435565b50505050565b62278d0081565b610ea2611aad565b818111610edb576040517f4313345300000000000000000000000000000000000000000000000000000000815260040160405180910390fd5b81600e8190555080600f819055507fa73c2a4e4657f5e1ff94a19ffe5f535cdd2dd893a121899816c3e9f66565cb018282604051610f1a929190612556565b60405180910390a15050565b61100281565b610f34611aad565b818190508484905014610f73576040517fa24a13a600000000000000000000000000000000000000000000000000000000815260040160405180910390fd5b5f5f90505b848490508110156110ce57828282818110610f9657610f9561257d565b5b9050602002016020810190610fab91906125aa565b600d5f878785818110610fc157610fc061257d565b5b9050602002016020810190610fd69190611fc9565b73ffffffffffffffffffffffffffffffffffffffff1673ffffffffffffffffffffffffffffffffffffffff1681526020019081526020015f205f6101000a81548160ff0219169083151502179055508484828181106110385761103761257d565b5b905060200201602081019061104d9190611fc9565b73ffffffffffffffffffffffffffffffffffffffff167f6a12b3df6cba4203bd7fd06b816789f87de8c594299aed5717ae070fac781bac8484848181106110975761109661257d565b5b90506020020160208101906110ac91906125aa565b6040516110b99190612191565b60405180910390a28080600101915050610f78565b5050505050565b600181565b5f60035f9054906101000a900473ffffffffffffffffffffffffffffffffffffffff1673ffffffffffffffffffffffffffffffffffffffff1663c9faa7c5836040518263ffffffff1660e01b81526004016111359190612041565b602060405180830381865afa158015611150573d5f5f3e3d5ffd5b505050506040513d601f19601f820116820180604052508101906111749190612435565b611180575f9050611440565b5f60035f9054906101000a900473ffffffffffffffffffffffffffffffffffffffff1673ffffffffffffffffffffffffffffffffffffffff1663022d44e3846040518263ffffffff1660e01b81526004016111db9190612041565b602060405180830381865afa1580156111f6573d5f5f3e3d5ffd5b505050506040513d601f19601f8201168201806040525081019061121a919061252b565b9050600a54814261122b9190612602565b101561123a575f915050611440565b60085460015f9054906101000a900473ffffffffffffffffffffffffffffffffffffffff1673ffffffffffffffffffffffffffffffffffffffff16635e09eea1856040518263ffffffff1660e01b81526004016112979190612041565b602060405180830381865afa1580156112b2573d5f5f3e3d5ffd5b505050506040513d601f19601f820116820180604052508101906112d6919061252b565b10156112e5575f915050611440565b60025f9054906101000a900473ffffffffffffffffffffffffffffffffffffffff1673ffffffffffffffffffffffffffffffffffffffff1663aed3cba3846009546040518363ffffffff1660e01b81526004016113439291906124f0565b602060405180830381865afa15801561135e573d5f5f3e3d5ffd5b505050506040513d601f19601f820116820180604052508101906113829190612435565b61138f575f915050611440565b600b5460055f9054906101000a900473ffffffffffffffffffffffffffffffffffffffff1673ffffffffffffffffffffffffffffffffffffffff16639c89a0e2856040518263ffffffff1660e01b81526004016113ec9190612041565b602060405180830381865afa158015611407573d5f5f3e3d5ffd5b505050506040513d601f19601f8201168201806040525081019061142b919061252b565b101561143a575f915050611440565b60019150505b919050565b60025f9054906101000a900473ffffffffffffffffffffffffffffffffffffffff1681565b611472611aad565b61147b5f611b4a565b565b600c602052805f5260405f205f915054906101000a900460ff1681565b5f5f5f5f5f5f5f5f60035f9054906101000a900473ffffffffffffffffffffffffffffffffffffffff1673ffffffffffffffffffffffffffffffffffffffff1663c9faa7c58a6040518263ffffffff1660e01b81526004016114fc9190612041565b602060405180830381865afa158015611517573d5f5f3e3d5ffd5b505050506040513d601f19601f8201168201806040525081019061153b9190612435565b97505f60035f9054906101000a900473ffffffffffffffffffffffffffffffffffffffff1673ffffffffffffffffffffffffffffffffffffffff1663022d44e38b6040518263ffffffff1660e01b81526004016115989190612041565b602060405180830381865afa1580156115b3573d5f5f3e3d5ffd5b505050506040513d601f19601f820116820180604052508101906115d7919061252b565b90505f81116115e6575f6115f3565b80426115f29190612602565b5b975060015f9054906101000a900473ffffffffffffffffffffffffffffffffffffffff1673ffffffffffffffffffffffffffffffffffffffff16635e09eea18b6040518263ffffffff1660e01b815260040161164f9190612041565b602060405180830381865afa15801561166a573d5f5f3e3d5ffd5b505050506040513d601f19601f8201168201806040525081019061168e919061252b565b965060025f9054906101000a900473ffffffffffffffffffffffffffffffffffffffff1673ffffffffffffffffffffffffffffffffffffffff166396e3dad68b6040518263ffffffff1660e01b81526004016116ea9190612041565b602060405180830381865afa158015611705573d5f5f3e3d5ffd5b505050506040513d601f19601f82011682018060405250810190611729919061252b565b9550600d5f8b73ffffffffffffffffffffffffffffffffffffffff1673ffffffffffffffffffffffffffffffffffffffff1681526020019081526020015f205f9054906101000a900460ff169450600c5f8b73ffffffffffffffffffffffffffffffffffffffff1673ffffffffffffffffffffffffffffffffffffffff1681526020019081526020015f205f9054906101000a900460ff16935060055f9054906101000a900473ffffffffffffffffffffffffffffffffffffffff1673ffffffffffffffffffffffffffffffffffffffff16639c89a0e28b6040518263ffffffff1660e01b815260040161181d9190612041565b602060405180830381865afa158015611838573d5f5f3e3d5ffd5b505050506040513d601f19601f8201168201806040525081019061185c919061252b565b925060045f9054906101000a900473ffffffffffffffffffffffffffffffffffffffff1673ffffffffffffffffffffffffffffffffffffffff1663e1917fda308c6040518363ffffffff1660e01b81526004016118ba9291906123fa565b602060405180830381865afa1580156118d5573d5f5f3e3d5ffd5b505050506040513d601f19601f820116820180604052508101906118f99190612435565b915050919395975091939597565b600e5481565b60045f9054906101000a900473ffffffffffffffffffffffffffffffffffffffff1681565b60055f9054906101000a900473ffffffffffffffffffffffffffffffffffffffff1681565b5f5f5f9054906101000a900473ffffffffffffffffffffffffffffffffffffffff16905090565b600b5481565b60095481565b61100881565b600d602052805f5260405f205f915054906101000a900460ff1681565b60015f9054906101000a900473ffffffffffffffffffffffffffffffffffffffff1681565b62278d0081565b600a5481565b6119e7611aad565b5f73ffffffffffffffffffffffffffffffffffffffff168173ffffffffffffffffffffffffffffffffffffffff1603611a57575f6040517f1e4fbdf7000000000000000000000000000000000000000000000000000000008152600401611a4e9190612041565b60405180910390fd5b611a6081611b4a565b50565b60035f9054906101000a900473ffffffffffffffffffffffffffffffffffffffff1681565b60065f9054906101000a900473ffffffffffffffffffffffffffffffffffffffff1681565b611ab5611c0b565b73ffffffffffffffffffffffffffffffffffffffff16611ad3611957565b73ffffffffffffffffffffffffffffffffffffffff1614611b3257611af6611c0b565b6040517f118cdaa7000000000000000000000000000000000000000000000000000000008152600401611b299190612041565b60405180910390fd5b565b5f82611b408584611c12565b1490509392505050565b5f5f5f9054906101000a900473ffffffffffffffffffffffffffffffffffffffff169050815f5f6101000a81548173ffffffffffffffffffffffffffffffffffffffff021916908373ffffffffffffffffffffffffffffffffffffffff1602179055508173ffffffffffffffffffffffffffffffffffffffff168173ffffffffffffffffffffffffffffffffffffffff167f8be0079c531659141344cd1fd0a4f28419497f9722a3daafe3b4186f6b6457e060405160405180910390a35050565b5f33905090565b5f5f8290505f5f90505b8451811015611c5857611c4982868381518110611c3c57611c3b61257d565b5b6020026020010151611c63565b91508080600101915050611c1c565b508091505092915050565b5f818310611c7a57611c758284611c8d565b611c85565b611c848383611c8d565b5b905092915050565b5f825f528160205260405f20905092915050565b5f5ffd5b5f5ffd5b5f819050919050565b611cbb81611ca9565b8114611cc5575f5ffd5b50565b5f81359050611cd681611cb2565b92915050565b5f5f5f60608486031215611cf357611cf2611ca1565b5b5f611d0086828701611cc8565b9350506020611d1186828701611cc8565b9250506040611d2286828701611cc8565b9150509250925092565b5f73ffffffffffffffffffffffffffffffffffffffff82169050919050565b5f611d5582611d2c565b9050919050565b611d6581611d4b565b8114611d6f575f5ffd5b50565b5f81359050611d8081611d5c565b92915050565b5f8115159050919050565b611d9a81611d86565b8114611da4575f5ffd5b50565b5f81359050611db581611d91565b92915050565b5f5f60408385031215611dd157611dd0611ca1565b5b5f611dde85828601611d72565b9250506020611def85828601611da7565b9150509250929050565b611e0281611ca9565b82525050565b5f602082019050611e1b5f830184611df9565b92915050565b5f819050919050565b611e3381611e21565b82525050565b5f602082019050611e4c5f830184611e2a565b92915050565b5f5ffd5b5f5ffd5b5f5ffd5b5f5f83601f840112611e7357611e72611e52565b5b8235905067ffffffffffffffff811115611e9057611e8f611e56565b5b602083019150836020820283011115611eac57611eab611e5a565b5b9250929050565b5f5f5f60408486031215611eca57611ec9611ca1565b5b5f611ed786828701611cc8565b935050602084013567ffffffffffffffff811115611ef857611ef7611ca5565b5b611f0486828701611e5e565b92509250509250925092565b5f5f5f5f60808587031215611f2857611f27611ca1565b5b5f611f3587828801611cc8565b9450506020611f4687828801611cc8565b9350506040611f5787828801611cc8565b9250506060611f6887828801611cc8565b91505092959194509250565b611f7d81611e21565b8114611f87575f5ffd5b50565b5f81359050611f9881611f74565b92915050565b5f60208284031215611fb357611fb2611ca1565b5b5f611fc084828501611f8a565b91505092915050565b5f60208284031215611fde57611fdd611ca1565b5b5f611feb84828501611d72565b91505092915050565b5f5f6040838503121561200a57612009611ca1565b5b5f61201785828601611cc8565b925050602061202885828601611cc8565b9150509250929050565b61203b81611d4b565b82525050565b5f6020820190506120545f830184612032565b92915050565b5f5f83601f84011261206f5761206e611e52565b5b8235905067ffffffffffffffff81111561208c5761208b611e56565b5b6020830191508360208202830111156120a8576120a7611e5a565b5b9250929050565b5f5f83601f8401126120c4576120c3611e52565b5b8235905067ffffffffffffffff8111156120e1576120e0611e56565b5b6020830191508360208202830111156120fd576120fc611e5a565b5b9250929050565b5f5f5f5f6040858703121561211c5761211b611ca1565b5b5f85013567ffffffffffffffff81111561213957612138611ca5565b5b6121458782880161205a565b9450945050602085013567ffffffffffffffff81111561216857612167611ca5565b5b612174878288016120af565b925092505092959194509250565b61218b81611d86565b82525050565b5f6020820190506121a45f830184612182565b92915050565b5f819050919050565b5f6121cd6121c86121c384611d2c565b6121aa565b611d2c565b9050919050565b5f6121de826121b3565b9050919050565b5f6121ef826121d4565b9050919050565b6121ff816121e5565b82525050565b5f6020820190506122185f8301846121f6565b92915050565b5f610100820190506122325f83018b612182565b61223f602083018a611df9565b61224c6040830189611df9565b6122596060830188611df9565b6122666080830187612182565b61227360a0830186612182565b61228060c0830185611df9565b61228d60e0830184612182565b9998505050505050505050565b5f6122a4826121d4565b9050919050565b6122b48161229a565b82525050565b5f6020820190506122cd5f8301846122ab565b92915050565b5f6122dd826121d4565b9050919050565b6122ed816122d3565b82525050565b5f6020820190506123065f8301846122e4565b92915050565b5f612316826121d4565b9050919050565b6123268161230c565b82525050565b5f60208201905061233f5f83018461231d565b92915050565b5f61234f826121d4565b9050919050565b61235f81612345565b82525050565b5f6020820190506123785f830184612356565b92915050565b5f612388826121d4565b9050919050565b6123988161237e565b82525050565b5f6020820190506123b15f83018461238f565b92915050565b5f6080820190506123ca5f830187611df9565b6123d76020830186611df9565b6123e46040830185611df9565b6123f16060830184611df9565b95945050505050565b5f60408201905061240d5f830185612032565b61241a6020830184612032565b9392505050565b5f8151905061242f81611d91565b92915050565b5f6020828403121561244a57612449611ca1565b5b5f61245784828501612421565b91505092915050565b5f8160601b9050919050565b5f61247682612460565b9050919050565b5f6124878261246c565b9050919050565b61249f61249a82611d4b565b61247d565b82525050565b5f819050919050565b6124bf6124ba82611ca9565b6124a5565b82525050565b5f6124d0828561248e565b6014820191506124e082846124ae565b6020820191508190509392505050565b5f6040820190506125035f830185612032565b6125106020830184611df9565b9392505050565b5f8151905061252581611cb2565b92915050565b5f602082840312156125405761253f611ca1565b5b5f61254d84828501612517565b91505092915050565b5f6040820190506125695f830185611df9565b6125766020830184611df9565b9392505050565b7f4e487b71000000000000000000000000000000000000000000000000000000005f52603260045260245ffd5b5f602082840312156125bf576125be611ca1565b5b5f6125cc84828501611da7565b91505092915050565b7f4e487b71000000000000000000000000000000000000000000000000000000005f52601160045260245ffd5b5f61260c82611ca9565b915061261783611ca9565b925082820390508181111561262f5761262e6125d5565b5b9291505056fea2646970667358221220815b6e756f8bec15ed19b806ca28b796cfb2c1e8b55f879445749f475f340d2864736f6c634300081c0033a26469706673582212200fc7917459ea4aefa83624fc5f6dd92e7efaaa45f4dab7f6984804cf5c5eea4864736f6c634300081c0033","linkReferences":{}},"methodIdentifiers":{"FEE_CONTRACT_ADDRESS()":"e3ab97e1","FILTER_CONTRACT_ADDRESS()":"4df4ebd8","KYC_CONTRACT_ADDRESS()":"2bd7509c","REPUTATION_CONTRACT_ADDRESS()":"b8e70b98","activationContract()":"f3ad1ec5","airdropCreators(address)":"f493ba57","airdrops(uint256)":"60db5082","createAirdrop(address,bytes32,uint256,uint256,uint256,uint256,uint256)":"d2267a61","creatorAirdrops(address,uint256)":"85f6fa94","filterContract()":"847a18bb","getAirdropCount()":"130c38d3","getAllAirdrops()":"d7444eeb","getCreatorAirdrops(address)":"8169c3b9","getReputationScore(address)":"75a67d5c","isTransactionAllowed(address,address)":"14373e57","kycContract()":"6d3123eb","owner()":"8da5cb5b","renounceOwnership()":"715018a6","reputationContract()":"87bc1425","setActivationContract(address)":"8c33da76","setKYCContract(address)":"4a60bb17","setTrustScoreContract(address)":"a90b6a32","transferOwnership(address)":"f2fde38b","trustScoreContract()":"dc7831fd"},"id":41}