{"abi":[{"type":"constructor","inputs":[],"stateMutability":"nonpayable"},{"type":"function","name":"REPUTATION_CONTRACT_ADDRESS","inputs":[],"outputs":[{"name":"","type":"address","internalType":"address"}],"stateMutability":"view"},{"type":"function","name":"getTierLevel","inputs":[{"name":"trustScore","type":"uint256","internalType":"uint256"}],"outputs":[{"name":"tier","type":"uint256","internalType":"uint256"}],"stateMutability":"pure"},{"type":"function","name":"getTrustScore","inputs":[{"name":"user","type":"address","internalType":"address"}],"outputs":[{"name":"trustScore","type":"uint256","internalType":"uint256"}],"stateMutability":"view"},{"type":"function","name":"meetsTrustThreshold","inputs":[{"name":"user","type":"address","internalType":"address"},{"name":"minScore","type":"uint256","internalType":"uint256"}],"outputs":[{"name":"meets","type":"bool","internalType":"bool"}],"stateMutability":"view"}],"bytecode":{"object":"0x6080604052348015600e575f5ffd5b506110085f5f6101000a81548173ffffffffffffffffffffffffffffffffffffffff021916908373ffffffffffffffffffffffffffffffffffffffff1602179055506105288061005d5f395ff3fe608060405234801561000f575f5ffd5b506004361061004a575f3560e01c80635e09eea11461004e578063b7713b7c1461007e578063b8e70b98146100ae578063c24c445a146100cc575b5f5ffd5b610068600480360381019061006391906102fb565b6100fc565b604051610075919061033e565b60405180910390f35b61009860048036038101906100939190610381565b6101bd565b6040516100a5919061033e565b60405180910390f35b6100b6610213565b6040516100c391906103bb565b60405180910390f35b6100e660048036038101906100e191906103d4565b610219565b6040516100f3919061042c565b60405180910390f35b5f5f5f5f9054906101000a900473ffffffffffffffffffffffffffffffffffffffff1673ffffffffffffffffffffffffffffffffffffffff16639c89a0e2846040518263ffffffff1660e01b815260040161015791906103bb565b602060405180830381865afa158015610172573d5f5f3e3d5ffd5b505050506040513d601f19601f820116820180604052508101906101969190610459565b9050609a816101a591906104b1565b91506103e88211156101b7576103e891505b50919050565b5f60c88210156101d0576001905061020e565b6101908210156101e3576002905061020e565b6102588210156101f6576003905061020e565b610320821015610209576004905061020e565b600590505b919050565b61100881565b5f813073ffffffffffffffffffffffffffffffffffffffff16635e09eea1856040518263ffffffff1660e01b815260040161025491906103bb565b602060405180830381865afa15801561026f573d5f5f3e3d5ffd5b505050506040513d601f19601f820116820180604052508101906102939190610459565b1015905092915050565b5f5ffd5b5f73ffffffffffffffffffffffffffffffffffffffff82169050919050565b5f6102ca826102a1565b9050919050565b6102da816102c0565b81146102e4575f5ffd5b50565b5f813590506102f5816102d1565b92915050565b5f602082840312156103105761030f61029d565b5b5f61031d848285016102e7565b91505092915050565b5f819050919050565b61033881610326565b82525050565b5f6020820190506103515f83018461032f565b92915050565b61036081610326565b811461036a575f5ffd5b50565b5f8135905061037b81610357565b92915050565b5f602082840312156103965761039561029d565b5b5f6103a38482850161036d565b91505092915050565b6103b5816102c0565b82525050565b5f6020820190506103ce5f8301846103ac565b92915050565b5f5f604083850312156103ea576103e961029d565b5b5f6103f7858286016102e7565b92505060206104088582860161036d565b9150509250929050565b5f8115159050919050565b61042681610412565b82525050565b5f60208201905061043f5f83018461041d565b92915050565b5f8151905061045381610357565b92915050565b5f6020828403121561046e5761046d61029d565b5b5f61047b84828501610445565b91505092915050565b7f4e487b71000000000000000000000000000000000000000000000000000000005f52601160045260245ffd5b5f6104bb82610326565b91506104c683610326565b92508282026104d481610326565b915082820484148315176104eb576104ea610484565b5b509291505056fea26469706673582212204f673c83594ac3c5d3b9f1c50b7f95e41967399a010f992e146735adfa2d7a8d64736f6c634300081c0033","linkReferences":{}},"methodIdentifiers":{"REPUTATION_CONTRACT_ADDRESS()":"b8e70b98","getTierLevel(uint256)":"b7713b7c","getTrustScore(address)":"5e09eea1","meetsTrustThreshold(address,uint256)":"c24c445a"},"id":44}