{"abi":[{"type":"constructor","inputs":[{"name":"_airdropFactory","type":"address","internalType":"address"},{"name":"_trustNFT","type":"address","internalType":"address"},{"name":"_trustScoreContract","type":"address","internalType":"address"},{"name":"_mintCost","type":"uint256","internalType":"uint256"}],"stateMutability":"nonpayable"},{"type":"function","name":"FEE_CONTRACT_ADDRESS","inputs":[],"outputs":[{"name":"","type":"address","internalType":"address"}],"stateMutability":"view"},{"type":"function","name":"FILTER_CONTRACT_ADDRESS","inputs":[],"outputs":[{"name":"","type":"address","internalType":"address"}],"stateMutability":"view"},{"type":"function","name":"KYC_CONTRACT_ADDRESS","inputs":[],"outputs":[{"name":"","type":"address","internalType":"address"}],"stateMutability":"view"},{"type":"function","name":"REPUTATION_CONTRACT_ADDRESS","inputs":[],"outputs":[{"name":"","type":"address","internalType":"address"}],"stateMutability":"view"},{"type":"function","name":"activateAccount","inputs":[],"outputs":[],"stateMutability":"payable"},{"type":"function","name":"activationContract","inputs":[],"outputs":[{"name":"","type":"address","internalType":"contract IGraphiteActivation"}],"stateMutability":"view"},{"type":"function","name":"airdropFactory","inputs":[],"outputs":[{"name":"","type":"address","internalType":"contract GraphiteAirdropFactory"}],"stateMutability":"view"},{"type":"function","name":"checkAirdropClaimed","inputs":[{"name":"user","type":"address","internalType":"address"},{"name":"airdropAddress","type":"address","internalType":"address"}],"outputs":[{"name":"hasClaimedAirdrop","type":"bool","internalType":"bool"}],"stateMutability":"view"},{"type":"function","name":"claimAirdropAndMintNFT","inputs":[{"name":"airdropAddress","type":"address","internalType":"address"},{"name":"amount","type":"uint256","internalType":"uint256"},{"name":"proof","type":"bytes32[]","internalType":"bytes32[]"},{"name":"mintNFT","type":"bool","internalType":"bool"}],"outputs":[],"stateMutability":"payable"},{"type":"function","name":"feeContract","inputs":[],"outputs":[{"name":"","type":"address","internalType":"contract IGraphiteFee"}],"stateMutability":"view"},{"type":"function","name":"filterContract","inputs":[],"outputs":[{"name":"","type":"address","internalType":"contract IGraphiteFilter"}],"stateMutability":"view"},{"type":"function","name":"getReputationScore","inputs":[{"name":"user","type":"address","internalType":"address"}],"outputs":[{"name":"score","type":"uint256","internalType":"uint256"}],"stateMutability":"view"},{"type":"function","name":"getUserDetails","inputs":[{"name":"user","type":"address","internalType":"address"},{"name":"airdropAddress","type":"address","internalType":"address"}],"outputs":[{"name":"trustScore","type":"uint256","internalType":"uint256"},{"name":"trustTier","type":"string","internalType":"string"},{"name":"tierLevel","type":"uint256","internalType":"uint256"},{"name":"eligibleForAirdrop","type":"bool","internalType":"bool"},{"name":"hasClaimedAirdrop","type":"bool","internalType":"bool"},{"name":"reputationScore","type":"uint256","internalType":"uint256"},{"name":"isActivated","type":"bool","internalType":"bool"},{"name":"kycLevel","type":"uint256","internalType":"uint256"},{"name":"kycFilterLevel","type":"uint256","internalType":"uint256"}],"stateMutability":"view"},{"type":"function","name":"isTransactionAllowed","inputs":[{"name":"sender","type":"address","internalType":"address"},{"name":"recipient","type":"address","internalType":"address"}],"outputs":[{"name":"allowed","type":"bool","internalType":"bool"}],"stateMutability":"view"},{"type":"function","name":"kycContract","inputs":[],"outputs":[{"name":"","type":"address","internalType":"contract IGraphiteKYC"}],"stateMutability":"view"},{"type":"function","name":"mintCost","inputs":[],"outputs":[{"name":"","type":"uint256","internalType":"uint256"}],"stateMutability":"view"},{"type":"function","name":"mintTrustNFT","inputs":[],"outputs":[],"stateMutability":"payable"},{"type":"function","name":"mintingEnabled","inputs":[],"outputs":[{"name":"","type":"bool","internalType":"bool"}],"stateMutability":"view"},{"type":"function","name":"owner","inputs":[],"outputs":[{"name":"","type":"address","internalType":"address"}],"stateMutability":"view"},{"type":"function","name":"refreshNFTTrustScore","inputs":[{"name":"tokenId","type":"uint256","internalType":"uint256"}],"outputs":[],"stateMutability":"nonpayable"},{"type":"function","name":"renounceOwnership","inputs":[],"outputs":[],"stateMutability":"nonpayable"},{"type":"function","name":"reputationContract","inputs":[],"outputs":[{"name":"","type":"address","internalType":"contract IGraphiteReputation"}],"stateMutability":"view"},{"type":"function","name":"setKYCFilter","inputs":[{"name":"level","type":"uint256","internalType":"uint256"}],"outputs":[],"stateMutability":"nonpayable"},{"type":"function","name":"setMintCost","inputs":[{"name":"_mintCost","type":"uint256","internalType":"uint256"}],"outputs":[],"stateMutability":"nonpayable"},{"type":"function","name":"setMintingEnabled","inputs":[{"name":"_enabled","type":"bool","internalType":"bool"}],"outputs":[],"stateMutability":"nonpayable"},{"type":"function","name":"transferOwnership","inputs":[{"name":"newOwner","type":"address","internalType":"address"}],"outputs":[],"stateMutability":"nonpayable"},{"type":"function","name":"trustNFT","inputs":[],"outputs":[{"name":"","type":"address","internalType":"contract GraphiteTrustNFT"}],"stateMutability":"view"},{"type":"function","name":"trustScoreContract","inputs":[],"outputs":[{"name":"","type":"address","internalType":"contract IGraphiteTrustScore"}],"stateMutability":"view"},{"type":"function","name":"withdraw","inputs":[],"outputs":[],"stateMutability":"nonpayable"},{"type":"event","name":"AccountActivated","inputs":[{"name":"user","type":"address","indexed":true,"internalType":"address"}],"anonymous":false},{"type":"event","name":"KYCFilterSet","inputs":[{"name":"user","type":"address","indexed":true,"internalType":"address"},{"name":"level","type":"uint256","indexed":false,"internalType":"uint256"}],"anonymous":false},{"type":"event","name":"MintCostUpdated","inputs":[{"name":"newCost","type":"uint256","indexed":false,"internalType":"uint256"}],"anonymous":false},{"type":"event","name":"MintingEnabledStateChanged","inputs":[{"name":"enabled","type":"bool","indexed":false,"internalType":"bool"}],"anonymous":false},{"type":"event","name":"NFTMinted","inputs":[{"name":"user","type":"address","indexed":true,"internalType":"address"},{"name":"tokenId","type":"uint256","indexed":false,"internalType":"uint256"}],"anonymous":false},{"type":"event","name":"OwnershipTransferred","inputs":[{"name":"previousOwner","type":"address","indexed":true,"internalType":"address"},{"name":"newOwner","type":"address","indexed":true,"internalType":"address"}],"anonymous":false},{"type":"event","name":"TrustScoreRefreshed","inputs":[{"name":"user","type":"address","indexed":true,"internalType":"address"},{"name":"tokenId","type":"uint256","indexed":false,"internalType":"uint256"},{"name":"newScore","type":"uint256","indexed":false,"internalType":"uint256"}],"anonymous":false},{"type":"error","name":"AccountNotActivated","inputs":[]},{"type":"error","name":"ContractCallFailed","inputs":[]},{"type":"error","name":"InsufficientKYCLevel","inputs":[]},{"type":"error","name":"InsufficientMintFee","inputs":[]},{"type":"error","name":"InsufficientTrustScore","inputs":[]},{"type":"error","name":"InvalidAirdropContract","inputs":[]},{"type":"error","name":"MintingDisabled","inputs":[]},{"type":"error","name":"OwnableInvalidOwner","inputs":[{"name":"owner","type":"address","internalType":"address"}]},{"type":"error","name":"OwnableUnauthorizedAccount","inputs":[{"name":"account","type":"address","internalType":"address"}]},{"type":"error","name":"TransferFailed","inputs":[]},{"type":"error","name":"WithdrawalFailed","inputs":[]}],"bytecode":{"object":"0x608060405234801561000f575f5ffd5b506040516130c63803806130c6833981810160405281019061003191906104c3565b335f73ffffffffffffffffffffffffffffffffffffffff168173ffffffffffffffffffffffffffffffffffffffff16036100a2575f6040517f1e4fbdf70000000000000000000000000000000000000000000000000000000081526004016100999190610536565b60405180910390fd5b6100b18161037160201b60201c565b508360015f6101000a81548173ffffffffffffffffffffffffffffffffffffffff021916908373ffffffffffffffffffffffffffffffffffffffff1602179055508260025f6101000a81548173ffffffffffffffffffffffffffffffffffffffff021916908373ffffffffffffffffffffffffffffffffffffffff1602179055508160035f6101000a81548173ffffffffffffffffffffffffffffffffffffffff021916908373ffffffffffffffffffffffffffffffffffffffff16021790555061100160045f6101000a81548173ffffffffffffffffffffffffffffffffffffffff021916908373ffffffffffffffffffffffffffffffffffffffff16021790555061100260065f6101000a81548173ffffffffffffffffffffffffffffffffffffffff021916908373ffffffffffffffffffffffffffffffffffffffff16021790555061100060085f6101000a81548173ffffffffffffffffffffffffffffffffffffffff021916908373ffffffffffffffffffffffffffffffffffffffff16021790555061100860075f6101000a81548173ffffffffffffffffffffffffffffffffffffffff021916908373ffffffffffffffffffffffffffffffffffffffff16021790555060015f9054906101000a900473ffffffffffffffffffffffffffffffffffffffff1673ffffffffffffffffffffffffffffffffffffffff1663f3ad1ec56040518163ffffffff1660e01b8152600401602060405180830381865afa1580156102e4573d5f5f3e3d5ffd5b505050506040513d601f19601f82011682018060405250810190610308919061058a565b60055f6101000a81548173ffffffffffffffffffffffffffffffffffffffff021916908373ffffffffffffffffffffffffffffffffffffffff160217905550806009819055506001600a5f6101000a81548160ff021916908315150217905550505050506105b5565b5f5f5f9054906101000a900473ffffffffffffffffffffffffffffffffffffffff169050815f5f6101000a81548173ffffffffffffffffffffffffffffffffffffffff021916908373ffffffffffffffffffffffffffffffffffffffff1602179055508173ffffffffffffffffffffffffffffffffffffffff168173ffffffffffffffffffffffffffffffffffffffff167f8be0079c531659141344cd1fd0a4f28419497f9722a3daafe3b4186f6b6457e060405160405180910390a35050565b5f5ffd5b5f73ffffffffffffffffffffffffffffffffffffffff82169050919050565b5f61045f82610436565b9050919050565b61046f81610455565b8114610479575f5ffd5b50565b5f8151905061048a81610466565b92915050565b5f819050919050565b6104a281610490565b81146104ac575f5ffd5b50565b5f815190506104bd81610499565b92915050565b5f5f5f5f608085870312156104db576104da610432565b5b5f6104e88782880161047c565b94505060206104f98782880161047c565b935050604061050a8782880161047c565b925050606061051b878288016104af565b91505092959194509250565b61053081610455565b82525050565b5f6020820190506105495f830184610527565b92915050565b5f61055982610455565b9050919050565b6105698161054f565b8114610573575f5ffd5b50565b5f8151905061058481610560565b92915050565b5f6020828403121561059f5761059e610432565b5b5f6105ac84828501610576565b91505092915050565b612b04806105c25f395ff3fe6080604052600436106101c1575f3560e01c806387bc1425116100f6578063b8e70b9811610094578063dc7831fd11610063578063dc7831fd146105b1578063e3ab97e1146105db578063f2fde38b14610605578063f3ad1ec51461062d576101c1565b8063b8e70b98146104f1578063bdb4b8481461051b578063c484899514610545578063d9755bf814610589576101c1565b806399c532e3116100d057806399c532e3146104575780639db9a32e146104815780639fd6db121461049d578063a110fce6146104c7576101c1565b806387bc1425146103f95780638d9928a5146104235780638da5cb5b1461042d576101c1565b80636d3123eb1161016357806375a67d5c1161013d57806375a67d5c146103435780638105f0aa1461037f578063847a18bb146103a75780638545f4ea146103d1576101c1565b80636d3123eb146102f95780636f26f7d814610323578063715018a61461032d576101c1565b80633ccfd60b1161019f5780633ccfd60b146102555780634df4ebd81461026b5780634ea3871a1461029557806359703bdc146102bd576101c1565b806306e29712146101c557806314373e57146101ef5780632bd7509c1461022b575b5f5ffd5b3480156101d0575f5ffd5b506101d9610657565b6040516101e6919061217e565b60405180910390f35b3480156101fa575f5ffd5b50610215600480360381019061021091906121e3565b61067c565b604051610222919061223b565b60405180910390f35b348015610236575f5ffd5b5061023f610720565b60405161024c9190612263565b60405180910390f35b348015610260575f5ffd5b50610269610726565b005b348015610276575f5ffd5b5061027f6107dc565b60405161028c9190612263565b60405180910390f35b3480156102a0575f5ffd5b506102bb60048036038101906102b691906122a6565b6107e2565b005b3480156102c8575f5ffd5b506102e360048036038101906102de91906121e3565b61083d565b6040516102f0919061223b565b60405180910390f35b348015610304575f5ffd5b5061030d6108ff565b60405161031a91906122f1565b60405180910390f35b61032b610924565b005b348015610338575f5ffd5b50610341610a18565b005b34801561034e575f5ffd5b506103696004803603810190610364919061230a565b610a2b565b604051610376919061234d565b60405180910390f35b34801561038a575f5ffd5b506103a560048036038101906103a09190612390565b610acc565b005b3480156103b2575f5ffd5b506103bb610c74565b6040516103c891906123db565b60405180910390f35b3480156103dc575f5ffd5b506103f760048036038101906103f29190612390565b610c99565b005b348015610404575f5ffd5b5061040d610ce2565b60405161041a9190612414565b60405180910390f35b61042b610d07565b005b348015610438575f5ffd5b5061044161125d565b60405161044e9190612263565b60405180910390f35b348015610462575f5ffd5b5061046b611284565b604051610478919061244d565b60405180910390f35b61049b600480360381019061049691906124c7565b6112a9565b005b3480156104a8575f5ffd5b506104b16117d2565b6040516104be919061223b565b60405180910390f35b3480156104d2575f5ffd5b506104db6117e4565b6040516104e8919061256b565b60405180910390f35b3480156104fc575f5ffd5b50610505611809565b6040516105129190612263565b60405180910390f35b348015610526575f5ffd5b5061052f61180f565b60405161053c919061234d565b60405180910390f35b348015610550575f5ffd5b5061056b600480360381019061056691906121e3565b611815565b604051610580999897969594939291906125f4565b60405180910390f35b348015610594575f5ffd5b506105af60048036038101906105aa9190612390565b611dd8565b005b3480156105bc575f5ffd5b506105c5611ee1565b6040516105d291906126a6565b60405180910390f35b3480156105e6575f5ffd5b506105ef611f06565b6040516105fc9190612263565b60405180910390f35b348015610610575f5ffd5b5061062b6004803603810190610626919061230a565b611f0c565b005b348015610638575f5ffd5b50610641611f90565b60405161064e91906126df565b60405180910390f35b60085f9054906101000a900473ffffffffffffffffffffffffffffffffffffffff1681565b5f60065f9054906101000a900473ffffffffffffffffffffffffffffffffffffffff1673ffffffffffffffffffffffffffffffffffffffff1663e1917fda84846040518363ffffffff1660e01b81526004016106d99291906126f8565b602060405180830381865afa1580156106f4573d5f5f3e3d5ffd5b505050506040513d601f19601f820116820180604052508101906107189190612733565b905092915050565b61100181565b61072e611fb5565b5f4790505f61073b61125d565b73ffffffffffffffffffffffffffffffffffffffff168260405161075e9061278b565b5f6040518083038185875af1925050503d805f8114610798576040519150601f19603f3d011682016040523d82523d5f602084013e61079d565b606091505b50509050806107d8576040517f27fcd9d100000000000000000000000000000000000000000000000000000000815260040160405180910390fd5b5050565b61100281565b6107ea611fb5565b80600a5f6101000a81548160ff0219169083151502179055507fc1c9bde36fbab9621741297af7578c59d53bcd3fde2f69811a38bc540b2e41a781604051610832919061223b565b60405180910390a150565b5f5f73ffffffffffffffffffffffffffffffffffffffff168273ffffffffffffffffffffffffffffffffffffffff1603610879575f90506108f9565b5f8290508073ffffffffffffffffffffffffffffffffffffffff166373b2e80e856040518263ffffffff1660e01b81526004016108b69190612263565b602060405180830381865afa1580156108d1573d5f5f3e3d5ffd5b505050506040513d601f19601f820116820180604052508101906108f59190612733565b9150505b92915050565b60045f9054906101000a900473ffffffffffffffffffffffffffffffffffffffff1681565b60085f9054906101000a900473ffffffffffffffffffffffffffffffffffffffff1673ffffffffffffffffffffffffffffffffffffffff16631b9265b8346040518263ffffffff1660e01b81526004015f604051808303818588803b15801561098b575f5ffd5b505af19350505050801561099d575060015b6109d3576040517f024d9cdb00000000000000000000000000000000000000000000000000000000815260040160405180910390fd5b3373ffffffffffffffffffffffffffffffffffffffff167fcfacdcf9289f1b69c533dda67fc14bae036114cd912d8f9fa9676e95d4ec028460405160405180910390a2565b610a20611fb5565b610a295f61203c565b565b5f60075f9054906101000a900473ffffffffffffffffffffffffffffffffffffffff1673ffffffffffffffffffffffffffffffffffffffff16639c89a0e2836040518263ffffffff1660e01b8152600401610a869190612263565b602060405180830381865afa158015610aa1573d5f5f3e3d5ffd5b505050506040513d601f19601f82011682018060405250810190610ac591906127b3565b9050919050565b60025f9054906101000a900473ffffffffffffffffffffffffffffffffffffffff1673ffffffffffffffffffffffffffffffffffffffff16631d135a71826040518263ffffffff1660e01b8152600401610b26919061234d565b5f604051808303815f87803b158015610b3d575f5ffd5b505af1925050508015610b4e575060015b610b84576040517f024d9cdb00000000000000000000000000000000000000000000000000000000815260040160405180910390fd5b5f60035f9054906101000a900473ffffffffffffffffffffffffffffffffffffffff1673ffffffffffffffffffffffffffffffffffffffff16635e09eea1336040518263ffffffff1660e01b8152600401610bdf9190612263565b602060405180830381865afa158015610bfa573d5f5f3e3d5ffd5b505050506040513d601f19601f82011682018060405250810190610c1e91906127b3565b90503373ffffffffffffffffffffffffffffffffffffffff167f86b08742bbf4cf5a7129c726b94b36e8b7d23db96b1475bcbb8c020f373f57b38383604051610c689291906127de565b60405180910390a25050565b60065f9054906101000a900473ffffffffffffffffffffffffffffffffffffffff1681565b610ca1611fb5565b806009819055507fde03a6195f6a732ff0af69781292526beecc585b4278fa1baa4d9dd578f88a5c81604051610cd7919061234d565b60405180910390a150565b60075f9054906101000a900473ffffffffffffffffffffffffffffffffffffffff1681565b600a5f9054906101000a900460ff16610d4c576040517faf79b43700000000000000000000000000000000000000000000000000000000815260040160405180910390fd5b600954341015610d88576040517f3d6c250000000000000000000000000000000000000000000000000000000000815260040160405180910390fd5b60055f9054906101000a900473ffffffffffffffffffffffffffffffffffffffff1673ffffffffffffffffffffffffffffffffffffffff1663c9faa7c5336040518263ffffffff1660e01b8152600401610de29190612263565b602060405180830381865afa158015610dfd573d5f5f3e3d5ffd5b505050506040513d601f19601f82011682018060405250810190610e219190612733565b610e57576040517f125d8e2100000000000000000000000000000000000000000000000000000000815260040160405180910390fd5b5f6101f490508060035f9054906101000a900473ffffffffffffffffffffffffffffffffffffffff1673ffffffffffffffffffffffffffffffffffffffff16635e09eea1336040518263ffffffff1660e01b8152600401610eb89190612263565b602060405180830381865afa158015610ed3573d5f5f3e3d5ffd5b505050506040513d601f19601f82011682018060405250810190610ef791906127b3565b1015610f2f576040517f1d10998600000000000000000000000000000000000000000000000000000000815260040160405180910390fd5b60045f9054906101000a900473ffffffffffffffffffffffffffffffffffffffff1673ffffffffffffffffffffffffffffffffffffffff1663aed3cba33360016040518363ffffffff1660e01b8152600401610f8c92919061283e565b602060405180830381865afa158015610fa7573d5f5f3e3d5ffd5b505050506040513d601f19601f82011682018060405250810190610fcb9190612733565b611001576040517f1742b65500000000000000000000000000000000000000000000000000000000815260040160405180910390fd5b60025f9054906101000a900473ffffffffffffffffffffffffffffffffffffffff1673ffffffffffffffffffffffffffffffffffffffff16631249c58b5f6040518263ffffffff1660e01b815260040160206040518083038185885af19350505050801561108d57506040513d601f19601f8201168201806040525081019061108a91906127b3565b60015b6110c3576040517f024d9cdb00000000000000000000000000000000000000000000000000000000815260040160405180910390fd5b503373ffffffffffffffffffffffffffffffffffffffff167f4cc0a9c4a99ddc700de1af2c9f916a7cbfdb71f14801ccff94061ad1ef8a804060025f9054906101000a900473ffffffffffffffffffffffffffffffffffffffff1673ffffffffffffffffffffffffffffffffffffffff1663bbc19ab06040518163ffffffff1660e01b8152600401602060405180830381865afa158015611166573d5f5f3e3d5ffd5b505050506040513d601f19601f8201168201806040525081019061118a91906127b3565b604051611197919061234d565b60405180910390a25f600954346111ae9190612892565b90505f811115611259575f3373ffffffffffffffffffffffffffffffffffffffff16826040516111dd9061278b565b5f6040518083038185875af1925050503d805f8114611217576040519150601f19603f3d011682016040523d82523d5f602084013e61121c565b606091505b5050905080611257576040517f90b8ec1800000000000000000000000000000000000000000000000000000000815260040160405180910390fd5b505b5050565b5f5f5f9054906101000a900473ffffffffffffffffffffffffffffffffffffffff16905090565b60015f9054906101000a900473ffffffffffffffffffffffffffffffffffffffff1681565b5f8590508073ffffffffffffffffffffffffffffffffffffffff16632f52ebb78686866040518463ffffffff1660e01b81526004016112ea9392919061293d565b5f604051808303815f87803b158015611301575f5ffd5b505af1925050508015611312575060015b611348576040517f024d9cdb00000000000000000000000000000000000000000000000000000000815260040160405180910390fd5b81156117ca57600a5f9054906101000a900460ff16611393576040517faf79b43700000000000000000000000000000000000000000000000000000000815260040160405180910390fd5b6009543410156113cf576040517f3d6c250000000000000000000000000000000000000000000000000000000000815260040160405180910390fd5b60055f9054906101000a900473ffffffffffffffffffffffffffffffffffffffff1673ffffffffffffffffffffffffffffffffffffffff1663c9faa7c5336040518263ffffffff1660e01b81526004016114299190612263565b602060405180830381865afa158015611444573d5f5f3e3d5ffd5b505050506040513d601f19601f820116820180604052508101906114689190612733565b61149e576040517f125d8e2100000000000000000000000000000000000000000000000000000000815260040160405180910390fd5b60045f9054906101000a900473ffffffffffffffffffffffffffffffffffffffff1673ffffffffffffffffffffffffffffffffffffffff1663aed3cba33360016040518363ffffffff1660e01b81526004016114fb92919061283e565b602060405180830381865afa158015611516573d5f5f3e3d5ffd5b505050506040513d601f19601f8201168201806040525081019061153a9190612733565b611570576040517f1742b65500000000000000000000000000000000000000000000000000000000815260040160405180910390fd5b60025f9054906101000a900473ffffffffffffffffffffffffffffffffffffffff1673ffffffffffffffffffffffffffffffffffffffff16631249c58b5f6040518263ffffffff1660e01b815260040160206040518083038185885af1935050505080156115fc57506040513d601f19601f820116820180604052508101906115f991906127b3565b60015b611632576040517f024d9cdb00000000000000000000000000000000000000000000000000000000815260040160405180910390fd5b503373ffffffffffffffffffffffffffffffffffffffff167f4cc0a9c4a99ddc700de1af2c9f916a7cbfdb71f14801ccff94061ad1ef8a804060025f9054906101000a900473ffffffffffffffffffffffffffffffffffffffff1673ffffffffffffffffffffffffffffffffffffffff1663bbc19ab06040518163ffffffff1660e01b8152600401602060405180830381865afa1580156116d5573d5f5f3e3d5ffd5b505050506040513d601f19601f820116820180604052508101906116f991906127b3565b604051611706919061234d565b60405180910390a25f6009543461171d9190612892565b90505f8111156117c8575f3373ffffffffffffffffffffffffffffffffffffffff168260405161174c9061278b565b5f6040518083038185875af1925050503d805f8114611786576040519150601f19603f3d011682016040523d82523d5f602084013e61178b565b606091505b50509050806117c6576040517f90b8ec1800000000000000000000000000000000000000000000000000000000815260040160405180910390fd5b505b505b505050505050565b600a5f9054906101000a900460ff1681565b60025f9054906101000a900473ffffffffffffffffffffffffffffffffffffffff1681565b61100881565b60095481565b5f60605f5f5f5f5f5f5f60035f9054906101000a900473ffffffffffffffffffffffffffffffffffffffff1673ffffffffffffffffffffffffffffffffffffffff16635e09eea18c6040518263ffffffff1660e01b81526004016118799190612263565b602060405180830381865afa158015611894573d5f5f3e3d5ffd5b505050506040513d601f19601f820116820180604052508101906118b891906127b3565b985060025f9054906101000a900473ffffffffffffffffffffffffffffffffffffffff1673ffffffffffffffffffffffffffffffffffffffff1663980eedf08a6040518263ffffffff1660e01b8152600401611914919061234d565b5f60405180830381865afa15801561192e573d5f5f3e3d5ffd5b505050506040513d5f823e3d601f19601f820116820180604052508101906119569190612a87565b975060025f9054906101000a900473ffffffffffffffffffffffffffffffffffffffff1673ffffffffffffffffffffffffffffffffffffffff1663b7713b7c8a6040518263ffffffff1660e01b81526004016119b2919061234d565b602060405180830381865afa1580156119cd573d5f5f3e3d5ffd5b505050506040513d601f19601f820116820180604052508101906119f191906127b3565b965060075f9054906101000a900473ffffffffffffffffffffffffffffffffffffffff1673ffffffffffffffffffffffffffffffffffffffff16639c89a0e28c6040518263ffffffff1660e01b8152600401611a4d9190612263565b602060405180830381865afa158015611a68573d5f5f3e3d5ffd5b505050506040513d601f19601f82011682018060405250810190611a8c91906127b3565b935060055f9054906101000a900473ffffffffffffffffffffffffffffffffffffffff1673ffffffffffffffffffffffffffffffffffffffff1663c9faa7c58c6040518263ffffffff1660e01b8152600401611ae89190612263565b602060405180830381865afa158015611b03573d5f5f3e3d5ffd5b505050506040513d601f19601f82011682018060405250810190611b279190612733565b925060045f9054906101000a900473ffffffffffffffffffffffffffffffffffffffff1673ffffffffffffffffffffffffffffffffffffffff166396e3dad68c6040518263ffffffff1660e01b8152600401611b839190612263565b602060405180830381865afa158015611b9e573d5f5f3e3d5ffd5b505050506040513d601f19601f82011682018060405250810190611bc291906127b3565b91503373ffffffffffffffffffffffffffffffffffffffff168b73ffffffffffffffffffffffffffffffffffffffff1614611bfd575f611c8c565b60065f9054906101000a900473ffffffffffffffffffffffffffffffffffffffff1673ffffffffffffffffffffffffffffffffffffffff16632cea83916040518163ffffffff1660e01b8152600401602060405180830381865afa158015611c67573d5f5f3e3d5ffd5b505050506040513d601f19601f82011682018060405250810190611c8b91906127b3565b5b90505f73ffffffffffffffffffffffffffffffffffffffff168a73ffffffffffffffffffffffffffffffffffffffff1614611dbf575f8a90508073ffffffffffffffffffffffffffffffffffffffff166366e305fd8d6040518263ffffffff1660e01b8152600401611cfe9190612263565b602060405180830381865afa158015611d19573d5f5f3e3d5ffd5b505050506040513d601f19601f82011682018060405250810190611d3d9190612733565b96508073ffffffffffffffffffffffffffffffffffffffff166373b2e80e8d6040518263ffffffff1660e01b8152600401611d789190612263565b602060405180830381865afa158015611d93573d5f5f3e3d5ffd5b505050506040513d601f19601f82011682018060405250810190611db79190612733565b955050611dcb565b6101f489101595505f94505b9295985092959850929598565b60065f9054906101000a900473ffffffffffffffffffffffffffffffffffffffff1673ffffffffffffffffffffffffffffffffffffffff1663d1a23b90826040518263ffffffff1660e01b8152600401611e32919061234d565b5f604051808303815f87803b158015611e49575f5ffd5b505af1925050508015611e5a575060015b611e90576040517f024d9cdb00000000000000000000000000000000000000000000000000000000815260040160405180910390fd5b3373ffffffffffffffffffffffffffffffffffffffff167f2124979595d2635ae7ca6bc8bb0879a95535de7febd10f8692fb79a42375fc8c82604051611ed6919061234d565b60405180910390a250565b60035f9054906101000a900473ffffffffffffffffffffffffffffffffffffffff1681565b61100081565b611f14611fb5565b5f73ffffffffffffffffffffffffffffffffffffffff168173ffffffffffffffffffffffffffffffffffffffff1603611f84575f6040517f1e4fbdf7000000000000000000000000000000000000000000000000000000008152600401611f7b9190612263565b60405180910390fd5b611f8d8161203c565b50565b60055f9054906101000a900473ffffffffffffffffffffffffffffffffffffffff1681565b611fbd6120fd565b73ffffffffffffffffffffffffffffffffffffffff16611fdb61125d565b73ffffffffffffffffffffffffffffffffffffffff161461203a57611ffe6120fd565b6040517f118cdaa70000000000000000000000000000000000000000000000000000000081526004016120319190612263565b60405180910390fd5b565b5f5f5f9054906101000a900473ffffffffffffffffffffffffffffffffffffffff169050815f5f6101000a81548173ffffffffffffffffffffffffffffffffffffffff021916908373ffffffffffffffffffffffffffffffffffffffff1602179055508173ffffffffffffffffffffffffffffffffffffffff168173ffffffffffffffffffffffffffffffffffffffff167f8be0079c531659141344cd1fd0a4f28419497f9722a3daafe3b4186f6b6457e060405160405180910390a35050565b5f33905090565b5f73ffffffffffffffffffffffffffffffffffffffff82169050919050565b5f819050919050565b5f61214661214161213c84612104565b612123565b612104565b9050919050565b5f6121578261212c565b9050919050565b5f6121688261214d565b9050919050565b6121788161215e565b82525050565b5f6020820190506121915f83018461216f565b92915050565b5f604051905090565b5f5ffd5b5f5ffd5b5f6121b282612104565b9050919050565b6121c2816121a8565b81146121cc575f5ffd5b50565b5f813590506121dd816121b9565b92915050565b5f5f604083850312156121f9576121f86121a0565b5b5f612206858286016121cf565b9250506020612217858286016121cf565b9150509250929050565b5f8115159050919050565b61223581612221565b82525050565b5f60208201905061224e5f83018461222c565b92915050565b61225d816121a8565b82525050565b5f6020820190506122765f830184612254565b92915050565b61228581612221565b811461228f575f5ffd5b50565b5f813590506122a08161227c565b92915050565b5f602082840312156122bb576122ba6121a0565b5b5f6122c884828501612292565b91505092915050565b5f6122db8261214d565b9050919050565b6122eb816122d1565b82525050565b5f6020820190506123045f8301846122e2565b92915050565b5f6020828403121561231f5761231e6121a0565b5b5f61232c848285016121cf565b91505092915050565b5f819050919050565b61234781612335565b82525050565b5f6020820190506123605f83018461233e565b92915050565b61236f81612335565b8114612379575f5ffd5b50565b5f8135905061238a81612366565b92915050565b5f602082840312156123a5576123a46121a0565b5b5f6123b28482850161237c565b91505092915050565b5f6123c58261214d565b9050919050565b6123d5816123bb565b82525050565b5f6020820190506123ee5f8301846123cc565b92915050565b5f6123fe8261214d565b9050919050565b61240e816123f4565b82525050565b5f6020820190506124275f830184612405565b92915050565b5f6124378261214d565b9050919050565b6124478161242d565b82525050565b5f6020820190506124605f83018461243e565b92915050565b5f5ffd5b5f5ffd5b5f5ffd5b5f5f83601f84011261248757612486612466565b5b8235905067ffffffffffffffff8111156124a4576124a361246a565b5b6020830191508360208202830111156124c0576124bf61246e565b5b9250929050565b5f5f5f5f5f608086880312156124e0576124df6121a0565b5b5f6124ed888289016121cf565b95505060206124fe8882890161237c565b945050604086013567ffffffffffffffff81111561251f5761251e6121a4565b5b61252b88828901612472565b9350935050606061253e88828901612292565b9150509295509295909350565b5f6125558261214d565b9050919050565b6125658161254b565b82525050565b5f60208201905061257e5f83018461255c565b92915050565b5f81519050919050565b5f82825260208201905092915050565b8281835e5f83830152505050565b5f601f19601f8301169050919050565b5f6125c682612584565b6125d0818561258e565b93506125e081856020860161259e565b6125e9816125ac565b840191505092915050565b5f610120820190506126085f83018c61233e565b818103602083015261261a818b6125bc565b9050612629604083018a61233e565b612636606083018961222c565b612643608083018861222c565b61265060a083018761233e565b61265d60c083018661222c565b61266a60e083018561233e565b61267861010083018461233e565b9a9950505050505050505050565b5f6126908261214d565b9050919050565b6126a081612686565b82525050565b5f6020820190506126b95f830184612697565b92915050565b5f6126c98261214d565b9050919050565b6126d9816126bf565b82525050565b5f6020820190506126f25f8301846126d0565b92915050565b5f60408201905061270b5f830185612254565b6127186020830184612254565b9392505050565b5f8151905061272d8161227c565b92915050565b5f60208284031215612748576127476121a0565b5b5f6127558482850161271f565b91505092915050565b5f81905092915050565b50565b5f6127765f8361275e565b915061278182612768565b5f82019050919050565b5f6127958261276b565b9150819050919050565b5f815190506127ad81612366565b92915050565b5f602082840312156127c8576127c76121a0565b5b5f6127d58482850161279f565b91505092915050565b5f6040820190506127f15f83018561233e565b6127fe602083018461233e565b9392505050565b5f819050919050565b5f61282861282361281e84612805565b612123565b612335565b9050919050565b6128388161280e565b82525050565b5f6040820190506128515f830185612254565b61285e602083018461282f565b9392505050565b7f4e487b71000000000000000000000000000000000000000000000000000000005f52601160045260245ffd5b5f61289c82612335565b91506128a783612335565b92508282039050818111156128bf576128be612865565b5b92915050565b5f82825260208201905092915050565b5f5ffd5b82818337505050565b5f6128ed83856128c5565b93507f07ffffffffffffffffffffffffffffffffffffffffffffffffffffffffffffff8311156129205761291f6128d5565b5b6020830292506129318385846128d9565b82840190509392505050565b5f6040820190506129505f83018661233e565b81810360208301526129638184866128e2565b9050949350505050565b5f5ffd5b7f4e487b71000000000000000000000000000000000000000000000000000000005f52604160045260245ffd5b6129a7826125ac565b810181811067ffffffffffffffff821117156129c6576129c5612971565b5b80604052505050565b5f6129d8612197565b90506129e4828261299e565b919050565b5f67ffffffffffffffff821115612a0357612a02612971565b5b612a0c826125ac565b9050602081019050919050565b5f612a2b612a26846129e9565b6129cf565b905082815260208101848484011115612a4757612a4661296d565b5b612a5284828561259e565b509392505050565b5f82601f830112612a6e57612a6d612466565b5b8151612a7e848260208601612a19565b91505092915050565b5f60208284031215612a9c57612a9b6121a0565b5b5f82015167ffffffffffffffff811115612ab957612ab86121a4565b5b612ac584828501612a5a565b9150509291505056fea264697066735822122034d34fa45c09d7bdaa618d94bda2e6959dd50337f7710801b029d16cfc4d98fc64736f6c634300081c0033","linkReferences":{}},"methodIdentifiers":{"FEE_CONTRACT_ADDRESS()":"e3ab97e1","FILTER_CONTRACT_ADDRESS()":"4df4ebd8","KYC_CONTRACT_ADDRESS()":"2bd7509c","REPUTATION_CONTRACT_ADDRESS()":"b8e70b98","activateAccount()":"6f26f7d8","activationContract()":"f3ad1ec5","airdropFactory()":"99c532e3","checkAirdropClaimed(address,address)":"59703bdc","claimAirdropAndMintNFT(address,uint256,bytes32[],bool)":"9db9a32e","feeContract()":"06e29712","filterContract()":"847a18bb","getReputationScore(address)":"75a67d5c","getUserDetails(address,address)":"c4848995","isTransactionAllowed(address,address)":"14373e57","kycContract()":"6d3123eb","mintCost()":"bdb4b848","mintTrustNFT()":"8d9928a5","mintingEnabled()":"9fd6db12","owner()":"8da5cb5b","refreshNFTTrustScore(uint256)":"8105f0aa","renounceOwnership()":"715018a6","reputationContract()":"87bc1425","setKYCFilter(uint256)":"d9755bf8","setMintCost(uint256)":"8545f4ea","setMintingEnabled(bool)":"4ea3871a","transferOwnership(address)":"f2fde38b","trustNFT()":"a110fce6","trustScoreContract()":"dc7831fd","withdraw()":"3ccfd60b"},"id":42}