{
  "_format": "hh-sol-artifact-1",
  "contractName": "GraphiteTrustNFT",
  "sourceName": "contracts/GraphiteTrustNFT.sol",
  "abi": [
    {
      "inputs": [
        {
          "internalType": "string",
          "name": "name",
          "type": "string"
        },
        {
          "internalType": "string",
          "name": "symbol",
          "type": "string"
        },
        {
          "internalType": "address",
          "name": "_trustScoreAdapter",
          "type": "address"
        },
        {
          "internalType": "string",
          "name": "baseURI_",
          "type": "string"
        },
        {
          "internalType": "string",
          "name": "_metadataServer",
          "type": "string"
        }
      ],
      "stateMutability": "nonpayable",
      "type": "constructor"
    },
    {
      "inputs": [],
      "name": "InsufficientTrustForCustomization",
      "type": "error"
    },
    {
      "inputs": [],
      "name": "InvalidBadgeType",
      "type": "error"
    },
    {
      "inputs": [],
      "name": "NotTokenOwner",
      "type": "error"
    },
    {
      "inputs": [],
      "name": "TokenDoesNotExist",
      "type": "error"
    },
    {
      "anonymous": false,
      "inputs": [
        {
          "indexed": true,
          "internalType": "address",
          "name": "owner",
          "type": "address"
        },
        {
          "indexed": true,
          "internalType": "address",
          "name": "approved",
          "type": "address"
        },
        {
          "indexed": true,
          "internalType": "uint256",
          "name": "tokenId",
          "type": "uint256"
        }
      ],
      "name": "Approval",
      "type": "event"
    },
    {
      "anonymous": false,
      "inputs": [
        {
          "indexed": true,
          "internalType": "address",
          "name": "owner",
          "type": "address"
        },
        {
          "indexed": true,
          "internalType": "address",
          "name": "operator",
          "type": "address"
        },
        {
          "indexed": false,
          "internalType": "bool",
          "name": "approved",
          "type": "bool"
        }
      ],
      "name": "ApprovalForAll",
      "type": "event"
    },
    {
      "anonymous": false,
      "inputs": [
        {
          "indexed": true,
          "internalType": "uint256",
          "name": "tokenId",
          "type": "uint256"
        },
        {
          "indexed": false,
          "internalType": "uint8",
          "name": "badgeType",
          "type": "uint8"
        },
        {
          "indexed": false,
          "internalType": "string",
          "name": "badgeName",
          "type": "string"
        }
      ],
      "name": "BadgeCustomized",
      "type": "event"
    },
    {
      "anonymous": false,
      "inputs": [
        {
          "indexed": true,
          "internalType": "uint256",
          "name": "tokenId",
          "type": "uint256"
        }
      ],
      "name": "MetadataRefreshed",
      "type": "event"
    },
    {
      "anonymous": false,
      "inputs": [
        {
          "indexed": true,
          "internalType": "address",
          "name": "previousOwner",
          "type": "address"
        },
        {
          "indexed": true,
          "internalType": "address",
          "name": "newOwner",
          "type": "address"
        }
      ],
      "name": "OwnershipTransferred",
      "type": "event"
    },
    {
      "anonymous": false,
      "inputs": [
        {
          "indexed": true,
          "internalType": "address",
          "name": "from",
          "type": "address"
        },
        {
          "indexed": true,
          "internalType": "address",
          "name": "to",
          "type": "address"
        },
        {
          "indexed": true,
          "internalType": "uint256",
          "name": "tokenId",
          "type": "uint256"
        }
      ],
      "name": "Transfer",
      "type": "event"
    },
    {
      "anonymous": false,
      "inputs": [
        {
          "indexed": true,
          "internalType": "uint256",
          "name": "tokenId",
          "type": "uint256"
        },
        {
          "indexed": false,
          "internalType": "uint256",
          "name": "newScore",
          "type": "uint256"
        }
      ],
      "name": "TrustScoreRefreshed",
      "type": "event"
    },
    {
      "inputs": [
        {
          "internalType": "address",
          "name": "to",
          "type": "address"
        },
        {
          "internalType": "uint256",
          "name": "tokenId",
          "type": "uint256"
        }
      ],
      "name": "approve",
      "outputs": [],
      "stateMutability": "nonpayable",
      "type": "function"
    },
    {
      "inputs": [
        {
          "internalType": "address",
          "name": "owner",
          "type": "address"
        }
      ],
      "name": "balanceOf",
      "outputs": [
        {
          "internalType": "uint256",
          "name": "",
          "type": "uint256"
        }
      ],
      "stateMutability": "view",
      "type": "function"
    },
    {
      "inputs": [
        {
          "internalType": "uint256",
          "name": "tokenId",
          "type": "uint256"
        }
      ],
      "name": "getApproved",
      "outputs": [
        {
          "internalType": "address",
          "name": "",
          "type": "address"
        }
      ],
      "stateMutability": "view",
      "type": "function"
    },
    {
      "inputs": [
        {
          "internalType": "uint256",
          "name": "tokenId",
          "type": "uint256"
        }
      ],
      "name": "getBadgeData",
      "outputs": [
        {
          "internalType": "uint8",
          "name": "badgeType",
          "type": "uint8"
        },
        {
          "internalType": "string",
          "name": "badgeName",
          "type": "string"
        },
        {
          "internalType": "string",
          "name": "badgeMessage",
          "type": "string"
        },
        {
          "internalType": "bool",
          "name": "verified",
          "type": "bool"
        }
      ],
      "stateMutability": "view",
      "type": "function"
    },
    {
      "inputs": [
        {
          "internalType": "uint8",
          "name": "badgeType",
          "type": "uint8"
        }
      ],
      "name": "getBadgeTypeRequirement",
      "outputs": [
        {
          "internalType": "uint256",
          "name": "",
          "type": "uint256"
        }
      ],
      "stateMutability": "pure",
      "type": "function"
    },
    {
      "inputs": [
        {
          "internalType": "uint256",
          "name": "trustScore",
          "type": "uint256"
        }
      ],
      "name": "getTierLevel",
      "outputs": [
        {
          "internalType": "uint256",
          "name": "",
          "type": "uint256"
        }
      ],
      "stateMutability": "pure",
      "type": "function"
    },
    {
      "inputs": [
        {
          "internalType": "uint256",
          "name": "trustScore",
          "type": "uint256"
        }
      ],
      "name": "getTierName",
      "outputs": [
        {
          "internalType": "string",
          "name": "",
          "type": "string"
        }
      ],
      "stateMutability": "pure",
      "type": "function"
    },
    {
      "inputs": [
        {
          "internalType": "address",
          "name": "owner",
          "type": "address"
        },
        {
          "internalType": "address",
          "name": "operator",
          "type": "address"
        }
      ],
      "name": "isApprovedForAll",
      "outputs": [
        {
          "internalType": "bool",
          "name": "",
          "type": "bool"
        }
      ],
      "stateMutability": "view",
      "type": "function"
    },
    {
      "inputs": [
        {
          "internalType": "uint256",
          "name": "",
          "type": "uint256"
        }
      ],
      "name": "lastCustomized",
      "outputs": [
        {
          "internalType": "uint256",
          "name": "",
          "type": "uint256"
        }
      ],
      "stateMutability": "view",
      "type": "function"
    },
    {
      "inputs": [],
      "name": "lastMinted",
      "outputs": [
        {
          "internalType": "uint256",
          "name": "",
          "type": "uint256"
        }
      ],
      "stateMutability": "view",
      "type": "function"
    },
    {
      "inputs": [
        {
          "internalType": "uint256",
          "name": "",
          "type": "uint256"
        }
      ],
      "name": "lastTrustScore",
      "outputs": [
        {
          "internalType": "uint256",
          "name": "",
          "type": "uint256"
        }
      ],
      "stateMutability": "view",
      "type": "function"
    },
    {
      "inputs": [],
      "name": "metadataServer",
      "outputs": [
        {
          "internalType": "string",
          "name": "",
          "type": "string"
        }
      ],
      "stateMutability": "view",
      "type": "function"
    },
    {
      "inputs": [
        {
          "internalType": "address",
          "name": "recipient",
          "type": "address"
        }
      ],
      "name": "mint",
      "outputs": [
        {
          "internalType": "uint256",
          "name": "",
          "type": "uint256"
        }
      ],
      "stateMutability": "payable",
      "type": "function"
    },
    {
      "inputs": [
        {
          "internalType": "address",
          "name": "recipient",
          "type": "address"
        },
        {
          "internalType": "uint8",
          "name": "badgeType",
          "type": "uint8"
        }
      ],
      "name": "mintWithModel",
      "outputs": [
        {
          "internalType": "uint256",
          "name": "",
          "type": "uint256"
        }
      ],
      "stateMutability": "payable",
      "type": "function"
    },
    {
      "inputs": [],
      "name": "name",
      "outputs": [
        {
          "internalType": "string",
          "name": "",
          "type": "string"
        }
      ],
      "stateMutability": "view",
      "type": "function"
    },
    {
      "inputs": [],
      "name": "owner",
      "outputs": [
        {
          "internalType": "address",
          "name": "",
          "type": "address"
        }
      ],
      "stateMutability": "view",
      "type": "function"
    },
    {
      "inputs": [
        {
          "internalType": "uint256",
          "name": "tokenId",
          "type": "uint256"
        }
      ],
      "name": "ownerOf",
      "outputs": [
        {
          "internalType": "address",
          "name": "",
          "type": "address"
        }
      ],
      "stateMutability": "view",
      "type": "function"
    },
    {
      "inputs": [
        {
          "internalType": "uint256",
          "name": "tokenId",
          "type": "uint256"
        },
        {
          "internalType": "address",
          "name": "userToRefresh",
          "type": "address"
        }
      ],
      "name": "refreshTrustScore",
      "outputs": [],
      "stateMutability": "nonpayable",
      "type": "function"
    },
    {
      "inputs": [],
      "name": "renounceOwnership",
      "outputs": [],
      "stateMutability": "nonpayable",
      "type": "function"
    },
    {
      "inputs": [
        {
          "internalType": "address",
          "name": "from",
          "type": "address"
        },
        {
          "internalType": "address",
          "name": "to",
          "type": "address"
        },
        {
          "internalType": "uint256",
          "name": "tokenId",
          "type": "uint256"
        }
      ],
      "name": "safeTransferFrom",
      "outputs": [],
      "stateMutability": "nonpayable",
      "type": "function"
    },
    {
      "inputs": [
        {
          "internalType": "address",
          "name": "from",
          "type": "address"
        },
        {
          "internalType": "address",
          "name": "to",
          "type": "address"
        },
        {
          "internalType": "uint256",
          "name": "tokenId",
          "type": "uint256"
        },
        {
          "internalType": "bytes",
          "name": "data",
          "type": "bytes"
        }
      ],
      "name": "safeTransferFrom",
      "outputs": [],
      "stateMutability": "nonpayable",
      "type": "function"
    },
    {
      "inputs": [
        {
          "internalType": "address",
          "name": "operator",
          "type": "address"
        },
        {
          "internalType": "bool",
          "name": "approved",
          "type": "bool"
        }
      ],
      "name": "setApprovalForAll",
      "outputs": [],
      "stateMutability": "nonpayable",
      "type": "function"
    },
    {
      "inputs": [
        {
          "internalType": "uint256",
          "name": "tokenId",
          "type": "uint256"
        },
        {
          "internalType": "string",
          "name": "message",
          "type": "string"
        }
      ],
      "name": "setBadgeMessage",
      "outputs": [],
      "stateMutability": "nonpayable",
      "type": "function"
    },
    {
      "inputs": [
        {
          "internalType": "uint256",
          "name": "tokenId",
          "type": "uint256"
        },
        {
          "internalType": "string",
          "name": "name",
          "type": "string"
        }
      ],
      "name": "setBadgeName",
      "outputs": [],
      "stateMutability": "nonpayable",
      "type": "function"
    },
    {
      "inputs": [
        {
          "internalType": "uint256",
          "name": "tokenId",
          "type": "uint256"
        },
        {
          "internalType": "uint8",
          "name": "badgeType",
          "type": "uint8"
        }
      ],
      "name": "setBadgeType",
      "outputs": [],
      "stateMutability": "nonpayable",
      "type": "function"
    },
    {
      "inputs": [
        {
          "internalType": "string",
          "name": "baseURI_",
          "type": "string"
        }
      ],
      "name": "setBaseURI",
      "outputs": [],
      "stateMutability": "nonpayable",
      "type": "function"
    },
    {
      "inputs": [
        {
          "internalType": "string",
          "name": "_metadataServer",
          "type": "string"
        }
      ],
      "name": "setMetadataServer",
      "outputs": [],
      "stateMutability": "nonpayable",
      "type": "function"
    },
    {
      "inputs": [
        {
          "internalType": "address",
          "name": "_trustScoreContract",
          "type": "address"
        }
      ],
      "name": "setTrustScoreContract",
      "outputs": [],
      "stateMutability": "nonpayable",
      "type": "function"
    },
    {
      "inputs": [
        {
          "internalType": "uint256",
          "name": "tokenId",
          "type": "uint256"
        },
        {
          "internalType": "bool",
          "name": "verified",
          "type": "bool"
        }
      ],
      "name": "setVerifiedStatus",
      "outputs": [],
      "stateMutability": "nonpayable",
      "type": "function"
    },
    {
      "inputs": [
        {
          "internalType": "bytes4",
          "name": "interfaceId",
          "type": "bytes4"
        }
      ],
      "name": "supportsInterface",
      "outputs": [
        {
          "internalType": "bool",
          "name": "",
          "type": "bool"
        }
      ],
      "stateMutability": "view",
      "type": "function"
    },
    {
      "inputs": [],
      "name": "symbol",
      "outputs": [
        {
          "internalType": "string",
          "name": "",
          "type": "string"
        }
      ],
      "stateMutability": "view",
      "type": "function"
    },
    {
      "inputs": [
        {
          "internalType": "uint256",
          "name": "index",
          "type": "uint256"
        }
      ],
      "name": "tokenByIndex",
      "outputs": [
        {
          "internalType": "uint256",
          "name": "",
          "type": "uint256"
        }
      ],
      "stateMutability": "view",
      "type": "function"
    },
    {
      "inputs": [
        {
          "internalType": "address",
          "name": "owner",
          "type": "address"
        },
        {
          "internalType": "uint256",
          "name": "index",
          "type": "uint256"
        }
      ],
      "name": "tokenOfOwnerByIndex",
      "outputs": [
        {
          "internalType": "uint256",
          "name": "",
          "type": "uint256"
        }
      ],
      "stateMutability": "view",
      "type": "function"
    },
    {
      "inputs": [
        {
          "internalType": "uint256",
          "name": "tokenId",
          "type": "uint256"
        }
      ],
      "name": "tokenURI",
      "outputs": [
        {
          "internalType": "string",
          "name": "",
          "type": "string"
        }
      ],
      "stateMutability": "view",
      "type": "function"
    },
    {
      "inputs": [],
      "name": "totalSupply",
      "outputs": [
        {
          "internalType": "uint256",
          "name": "",
          "type": "uint256"
        }
      ],
      "stateMutability": "view",
      "type": "function"
    },
    {
      "inputs": [
        {
          "internalType": "address",
          "name": "from",
          "type": "address"
        },
        {
          "internalType": "address",
          "name": "to",
          "type": "address"
        },
        {
          "internalType": "uint256",
          "name": "tokenId",
          "type": "uint256"
        }
      ],
      "name": "transferFrom",
      "outputs": [],
      "stateMutability": "nonpayable",
      "type": "function"
    },
    {
      "inputs": [
        {
          "internalType": "address",
          "name": "newOwner",
          "type": "address"
        }
      ],
      "name": "transferOwnership",
      "outputs": [],
      "stateMutability": "nonpayable",
      "type": "function"
    },
    {
      "inputs": [],
      "name": "trustScoreContract",
      "outputs": [
        {
          "internalType": "contract IGraphiteTrustScore",
          "name": "",
          "type": "address"
        }
      ],
      "stateMutability": "view",
      "type": "function"
    }
  ],
  "bytecode": "0x60806040523480156200001157600080fd5b5060405162003692380380620036928339810160408190526200003491620002a6565b8451859085906200004d90600090602085019062000133565b5080516200006390600190602084019062000133565b505050620000806200007a620000dd60201b60201c565b620000e1565b600b80546001600160a01b0319166001600160a01b0385161790558151620000b090600c90602085019062000133565b508051620000c690600d90602084019062000133565b50620000d233620000e1565b5050505050620003bd565b3390565b600a80546001600160a01b038381166001600160a01b0319831681179093556040519116919082907f8be0079c531659141344cd1fd0a4f28419497f9722a3daafe3b4186f6b6457e090600090a35050565b828054620001419062000381565b90600052602060002090601f016020900481019282620001655760008555620001b0565b82601f106200018057805160ff1916838001178555620001b0565b82800160010185558215620001b0579182015b82811115620001b057825182559160200191906001019062000193565b50620001be929150620001c2565b5090565b5b80821115620001be5760008155600101620001c3565b634e487b7160e01b600052604160045260246000fd5b600082601f8301126200020157600080fd5b81516001600160401b03808211156200021e576200021e620001d9565b604051601f8301601f19908116603f01168101908282118183101715620002495762000249620001d9565b816040528381526020925086838588010111156200026657600080fd5b600091505b838210156200028a57858201830151818301840152908201906200026b565b838211156200029c5760008385830101525b9695505050505050565b600080600080600060a08688031215620002bf57600080fd5b85516001600160401b0380821115620002d757600080fd5b620002e589838a01620001ef565b96506020880151915080821115620002fc57600080fd5b6200030a89838a01620001ef565b604089015190965091506001600160a01b03821682146200032a57600080fd5b6060880151919450808211156200034057600080fd5b6200034e89838a01620001ef565b935060808801519150808211156200036557600080fd5b506200037488828901620001ef565b9150509295509295909350565b600181811c908216806200039657607f821691505b602082108103620003b757634e487b7160e01b600052602260045260246000fd5b50919050565b6132c580620003cd6000396000f3fe6080604052600436106102255760003560e01c8063715018a611610123578063b7713b7c116100ab578063e2728f871161006f578063e2728f8714610660578063e5779bc814610680578063e985e9c5146106a0578063f2fde38b146106e9578063f44aae4c1461070957600080fd5b8063b7713b7c146105cb578063b88d4fde146105eb578063bbc19ab01461060b578063c87b56dd14610620578063dc7831fd1461064057600080fd5b806395d89b41116100f257806395d89b4114610536578063980eedf01461054b5780639e8987581461056b578063a22cb4651461058b578063a90b6a32146105ab57600080fd5b8063715018a6146104d05780637d614cd7146104e55780638da5cb5b146104f857806392cd2e671461051657600080fd5b8063299caaca116101b15780635882810d116101755780635882810d146104205780636352211e1461044d5780636a6278421461046d5780636e7b1c851461048057806370a08231146104b057600080fd5b8063299caaca146103805780632f745c59146103a057806342842e0e146103c05780634f6ccce7146103e057806355f804b31461040057600080fd5b80630f722481116101f85780630f722481146102db5780631583d94d146102f057806317dd4c7a1461032b57806318160ddd1461034b57806323b872dd1461036057600080fd5b806301ffc9a71461022a57806306fdde031461025f578063081812fc14610281578063095ea7b3146102b9575b600080fd5b34801561023657600080fd5b5061024a6102453660046128db565b610729565b60405190151581526020015b60405180910390f35b34801561026b57600080fd5b50610274610754565b6040516102569190612950565b34801561028d57600080fd5b506102a161029c366004612963565b6107e6565b6040516001600160a01b039091168152602001610256565b3480156102c557600080fd5b506102d96102d4366004612998565b61080d565b005b3480156102e757600080fd5b50610274610927565b3480156102fc57600080fd5b5061031d61030b366004612963565b600f6020526000908152604090205481565b604051908152602001610256565b34801561033757600080fd5b506102d96103463660046129d3565b6109b5565b34801561035757600080fd5b5060085461031d565b34801561036c57600080fd5b506102d961037b3660046129ff565b610b3f565b34801561038c57600080fd5b5061031d61039b366004612a3b565b610b70565b3480156103ac57600080fd5b5061031d6103bb366004612998565b610bc9565b3480156103cc57600080fd5b506102d96103db3660046129ff565b610c5f565b3480156103ec57600080fd5b5061031d6103fb366004612963565b610c7a565b34801561040c57600080fd5b506102d961041b366004612a9f565b610d0d565b34801561042c57600080fd5b5061031d61043b366004612963565b60116020526000908152604090205481565b34801561045957600080fd5b506102a1610468366004612963565b610d21565b61031d61047b366004612ae1565b610d81565b34801561048c57600080fd5b506104a061049b366004612963565b610ec4565b6040516102569493929190612afc565b3480156104bc57600080fd5b5061031d6104cb366004612ae1565b61101c565b3480156104dc57600080fd5b506102d96110a2565b61031d6104f3366004612b3e565b6110b6565b34801561050457600080fd5b50600a546001600160a01b03166102a1565b34801561052257600080fd5b506102d9610531366004612b78565b611237565b34801561054257600080fd5b50610274611275565b34801561055757600080fd5b50610274610566366004612963565b611284565b34801561057757600080fd5b506102d9610586366004612b9b565b61136e565b34801561059757600080fd5b506102d96105a6366004612be7565b611437565b3480156105b757600080fd5b506102d96105c6366004612ae1565b611446565b3480156105d757600080fd5b5061031d6105e6366004612963565b611470565b3480156105f757600080fd5b506102d9610606366004612c27565b6114c1565b34801561061757600080fd5b50600e5461031d565b34801561062c57600080fd5b5061027461063b366004612963565b6114f9565b34801561064c57600080fd5b50600b546102a1906001600160a01b031681565b34801561066c57600080fd5b506102d961067b366004612a9f565b6116c7565b34801561068c57600080fd5b506102d961069b366004612b9b565b6116db565b3480156106ac57600080fd5b5061024a6106bb366004612d03565b6001600160a01b03918216600090815260056020908152604080832093909416825291909152205460ff1690565b3480156106f557600080fd5b506102d9610704366004612ae1565b611754565b34801561071557600080fd5b506102d9610724366004612d2d565b6117cd565b60006001600160e01b0319821663780e9d6360e01b148061074e575061074e82611978565b92915050565b60606000805461076390612d50565b80601f016020809104026020016040519081016040528092919081815260200182805461078f90612d50565b80156107dc5780601f106107b1576101008083540402835291602001916107dc565b820191906000526020600020905b8154815290600101906020018083116107bf57829003601f168201915b5050505050905090565b60006107f1826119c8565b506000908152600460205260409020546001600160a01b031690565b600061081882610d21565b9050806001600160a01b0316836001600160a01b03160361088a5760405162461bcd60e51b815260206004820152602160248201527f4552433732313a20617070726f76616c20746f2063757272656e74206f776e656044820152603960f91b60648201526084015b60405180910390fd5b336001600160a01b03821614806108a657506108a681336106bb565b6109185760405162461bcd60e51b815260206004820152603d60248201527f4552433732313a20617070726f76652063616c6c6572206973206e6f7420746f60448201527f6b656e206f776e6572206f7220617070726f76656420666f7220616c6c0000006064820152608401610881565b6109228383611a27565b505050565b600d805461093490612d50565b80601f016020809104026020016040519081016040528092919081815260200182805461096090612d50565b80156109ad5780601f10610982576101008083540402835291602001916109ad565b820191906000526020600020905b81548152906001019060200180831161099057829003601f168201915b505050505081565b336109bf83610d21565b6001600160a01b0316146109e6576040516359dc379f60e01b815260040160405180910390fd5b60018160ff1610806109fb5750600a8160ff16115b15610a19576040516307b1d1a560e21b815260040160405180910390fd5b600b54604051635e09eea160e01b81523360048201526000916001600160a01b031690635e09eea190602401602060405180830381865afa158015610a62573d6000803e3d6000fd5b505050506040513d601f19601f82011682018060405250810190610a869190612d8a565b90506000610a9383610b70565b905080821015610ab6576040516305fa387760e31b815260040160405180910390fd5b6000848152601060208181526040808420805460ff191660ff891617815560118352938190204290559190525185917f7fe6d28cbf1261f0fd2521ef40c126669f85ed270ea031d07cd4ebfabe73a2dc91610b18918791600190910190612da3565b60405180910390a2604051849060008051602061327083398151915290600090a250505050565b610b493382611a95565b610b655760405162461bcd60e51b815260040161088190612e33565b610922838383611b14565b600060028260ff1611610b8557506000919050565b60048260ff1611610b98575060c8919050565b60068260ff1611610bac5750610190919050565b60088260ff1611610bc05750610258919050565b50610320919050565b6000610bd48361101c565b8210610c365760405162461bcd60e51b815260206004820152602b60248201527f455243373231456e756d657261626c653a206f776e657220696e646578206f7560448201526a74206f6620626f756e647360a81b6064820152608401610881565b506001600160a01b03919091166000908152600660209081526040808320938352929052205490565b610922838383604051806020016040528060008152506114c1565b6000610c8560085490565b8210610ce85760405162461bcd60e51b815260206004820152602c60248201527f455243373231456e756d657261626c653a20676c6f62616c20696e646578206f60448201526b7574206f6620626f756e647360a01b6064820152608401610881565b60088281548110610cfb57610cfb612e80565b90600052602060002001549050919050565b610d15611c85565b610922600c83836127b8565b6000818152600260205260408120546001600160a01b03168061074e5760405162461bcd60e51b8152602060048201526018602482015277115490cdcc8c4e881a5b9d985b1a59081d1bdad95b88125160421b6044820152606401610881565b600080600e60008154610d9390612eac565b9182905550604080516080810182526001808252825160208082018552600080835281850192835285518083018752818152858701526060850181905286815260108252949094208351815460ff191660ff9091161781559051805195965092949093610e059392850192019061283c565b5060408201518051610e2191600284019160209091019061283c565b50606091909101516003909101805460ff1916911515919091179055600b54604051635e09eea160e01b81526001600160a01b03858116600483015290911690635e09eea190602401602060405180830381865afa158015610e87573d6000803e3d6000fd5b505050506040513d601f19601f82011682018060405250810190610eab9190612d8a565b6000828152600f602052604090205561074e8382611cdf565b6000818152601060205260408120805460038201546001830180546060948594879460ff91821694936002909301929116908390610f0190612d50565b80601f0160208091040260200160405190810160405280929190818152602001828054610f2d90612d50565b8015610f7a5780601f10610f4f57610100808354040283529160200191610f7a565b820191906000526020600020905b815481529060010190602001808311610f5d57829003601f168201915b50505050509250818054610f8d90612d50565b80601f0160208091040260200160405190810160405280929190818152602001828054610fb990612d50565b80156110065780601f10610fdb57610100808354040283529160200191611006565b820191906000526020600020905b815481529060010190602001808311610fe957829003601f168201915b5050505050915093509350935093509193509193565b60006001600160a01b0382166110865760405162461bcd60e51b815260206004820152602960248201527f4552433732313a2061646472657373207a65726f206973206e6f7420612076616044820152683634b21037bbb732b960b91b6064820152608401610881565b506001600160a01b031660009081526003602052604090205490565b6110aa611c85565b6110b46000611e78565b565b600060018260ff1610806110cd5750600a8260ff16115b156110eb576040516307b1d1a560e21b815260040160405180910390fd5b6000600e600081546110fc90612eac565b91829055506040805160808101825260ff8681168252825160208082018552600080835281850192835285518083018752818152858701526060850181905286815260108252949094208351815460ff191693169290921782555180519495509193909261117192600185019291019061283c565b506040820151805161118d91600284019160209091019061283c565b50606091909101516003909101805460ff1916911515919091179055600b54604051635e09eea160e01b81526001600160a01b03868116600483015290911690635e09eea190602401602060405180830381865afa1580156111f3573d6000803e3d6000fd5b505050506040513d601f19601f820116820180604052508101906112179190612d8a565b6000828152600f60205260409020556112308482611cdf565b9392505050565b61123f611c85565b600082815260106020526040808220600301805460ff191684151517905551839160008051602061327083398151915291a25050565b60606001805461076390612d50565b6060600061129183611470565b9050806001036112c15750506040805180820190915260088152672132b3b4b73732b960c11b6020820152919050565b806002036112ed5750506040805180820190915260068152654e6f7669636560d01b6020820152919050565b8060030361131a575050604080518082019091526007815266151c9d5cdd195960ca1b6020820152919050565b8060040361134b57505060408051808201909152600b81526a115cdd18589b1a5cda195960aa1b6020820152919050565b5050604080518082019091526005815264456c69746560d81b6020820152919050565b3361137884610d21565b6001600160a01b03161461139f576040516359dc379f60e01b815260040160405180910390fd5b60008381526010602052604090206113bb9060010183836127b8565b50600083815260116020908152604080832042905560109091529081902054905184917f7fe6d28cbf1261f0fd2521ef40c126669f85ed270ea031d07cd4ebfabe73a2dc916114119160ff169086908690612ec5565b60405180910390a2604051839060008051602061327083398151915290600090a2505050565b611442338383611eca565b5050565b61144e611c85565b600b80546001600160a01b0319166001600160a01b0392909216919091179055565b600060c882101561148357506001919050565b61019082101561149557506002919050565b6102588210156114a757506003919050565b6103208210156114b957506004919050565b506005919050565b6114cb3383611a95565b6114e75760405162461bcd60e51b815260040161088190612e33565b6114f384848484611f98565b50505050565b6000818152600260205260409020546060906001600160a01b03166115315760405163677510db60e11b815260040160405180910390fd5b6000828152601060209081526040808320815160808101909252805460ff168252600181018054929391929184019161156990612d50565b80601f016020809104026020016040519081016040528092919081815260200182805461159590612d50565b80156115e25780601f106115b7576101008083540402835291602001916115e2565b820191906000526020600020905b8154815290600101906020018083116115c557829003601f168201915b505050505081526020016002820180546115fb90612d50565b80601f016020809104026020016040519081016040528092919081815260200182805461162790612d50565b80156116745780601f1061164957610100808354040283529160200191611674565b820191906000526020600020905b81548152906001019060200180831161165757829003601f168201915b50505091835250506003919091015460ff1615156020918201526000858152600f825260409081902054835192840151918401519394506112309387939192906116bd85610d21565b8760600151611fcb565b6116cf611c85565b610922600d83836127b8565b336116e584610d21565b6001600160a01b03161461170c576040516359dc379f60e01b815260040160405180910390fd5b60008381526010602052604090206117289060020183836127b8565b5060008381526011602052604080822042905551849160008051602061327083398151915291a2505050565b61175c611c85565b6001600160a01b0381166117c15760405162461bcd60e51b815260206004820152602660248201527f4f776e61626c653a206e6577206f776e657220697320746865207a65726f206160448201526564647265737360d01b6064820152608401610881565b6117ca81611e78565b50565b600a546001600160a01b03163314806117ee5750336001600160a01b038216145b6118325760405162461bcd60e51b815260206004820152601560248201527410d85b1b195c881b9bdd08185d5d1a1bdc9a5e9959605a1b6044820152606401610881565b6000828152600260205260409020546001600160a01b03166118675760405163677510db60e11b815260040160405180910390fd5b806001600160a01b031661187a83610d21565b6001600160a01b0316146118a1576040516359dc379f60e01b815260040160405180910390fd5b600b54604051635e09eea160e01b81526001600160a01b03838116600483015290911690635e09eea190602401602060405180830381865afa1580156118eb573d6000803e3d6000fd5b505050506040513d601f19601f8201168201806040525081019061190f9190612d8a565b6000838152600f6020526040908190208290555183917f06175c4f2a0408441ad227b8fd1754accb33bc2c3c2f31cfa1a88dadc882637b9161195391815260200190565b60405180910390a2604051829060008051602061327083398151915290600090a25050565b60006001600160e01b031982166380ac58cd60e01b14806119a957506001600160e01b03198216635b5e139f60e01b145b8061074e57506301ffc9a760e01b6001600160e01b031983161461074e565b6000818152600260205260409020546001600160a01b03166117ca5760405162461bcd60e51b8152602060048201526018602482015277115490cdcc8c4e881a5b9d985b1a59081d1bdad95b88125160421b6044820152606401610881565b600081815260046020526040902080546001600160a01b0319166001600160a01b0384169081179091558190611a5c82610d21565b6001600160a01b03167f8c5be1e5ebec7d5bd14f71427d1e84f3dd0314c0f7b2291e5b200ac8c7c3b92560405160405180910390a45050565b600080611aa183610d21565b9050806001600160a01b0316846001600160a01b03161480611ae857506001600160a01b0380821660009081526005602090815260408083209388168352929052205460ff165b80611b0c5750836001600160a01b0316611b01846107e6565b6001600160a01b0316145b949350505050565b826001600160a01b0316611b2782610d21565b6001600160a01b031614611b4d5760405162461bcd60e51b815260040161088190612efe565b6001600160a01b038216611baf5760405162461bcd60e51b8152602060048201526024808201527f4552433732313a207472616e7366657220746f20746865207a65726f206164646044820152637265737360e01b6064820152608401610881565b611bbc838383600161203f565b826001600160a01b0316611bcf82610d21565b6001600160a01b031614611bf55760405162461bcd60e51b815260040161088190612efe565b600081815260046020908152604080832080546001600160a01b03199081169091556001600160a01b0387811680865260038552838620805460001901905590871680865283862080546001019055868652600290945282852080549092168417909155905184937fddf252ad1be2c89b69c2b068fc378daa952ba7f163c4a11628f55a4df523b3ef91a4505050565b600a546001600160a01b031633146110b45760405162461bcd60e51b815260206004820181905260248201527f4f776e61626c653a2063616c6c6572206973206e6f7420746865206f776e65726044820152606401610881565b6001600160a01b038216611d355760405162461bcd60e51b815260206004820181905260248201527f4552433732313a206d696e7420746f20746865207a65726f20616464726573736044820152606401610881565b6000818152600260205260409020546001600160a01b031615611d9a5760405162461bcd60e51b815260206004820152601c60248201527f4552433732313a20746f6b656e20616c7265616479206d696e746564000000006044820152606401610881565b611da860008383600161203f565b6000818152600260205260409020546001600160a01b031615611e0d5760405162461bcd60e51b815260206004820152601c60248201527f4552433732313a20746f6b656e20616c7265616479206d696e746564000000006044820152606401610881565b6001600160a01b038216600081815260036020908152604080832080546001019055848352600290915280822080546001600160a01b0319168417905551839291907fddf252ad1be2c89b69c2b068fc378daa952ba7f163c4a11628f55a4df523b3ef908290a45050565b600a80546001600160a01b038381166001600160a01b0319831681179093556040519116919082907f8be0079c531659141344cd1fd0a4f28419497f9722a3daafe3b4186f6b6457e090600090a35050565b816001600160a01b0316836001600160a01b031603611f2b5760405162461bcd60e51b815260206004820152601960248201527f4552433732313a20617070726f766520746f2063616c6c6572000000000000006044820152606401610881565b6001600160a01b03838116600081815260056020908152604080832094871680845294825291829020805460ff191686151590811790915591519182527f17307eab39ab6107e8899845ad3d59bd9653f200f220920489ca2b5937696c31910160405180910390a3505050565b611fa3848484611b14565b611faf84848484612173565b6114f35760405162461bcd60e51b815260040161088190612f43565b60606000600d611fda8a612274565b604051602001611feb929190612fb1565b6040516020818303038152906040529050600061200c898989898989612307565b90508181604051602001612021929190613041565b60405160208183030381529060405292505050979650505050505050565b60018111156120ae5760405162461bcd60e51b815260206004820152603560248201527f455243373231456e756d657261626c653a20636f6e7365637574697665207472604482015274185b9cd9995c9cc81b9bdd081cdd5c1c1bdc9d1959605a1b6064820152608401610881565b816001600160a01b03851661210a5761210581600880546000838152600960205260408120829055600182018355919091527ff3f7a9fe364faab93b216da50a3214154f22a0a2b415b23a84c8169e8b636ee30155565b61212d565b836001600160a01b0316856001600160a01b03161461212d5761212d85826123b4565b6001600160a01b0384166121495761214481612451565b61216c565b846001600160a01b0316846001600160a01b03161461216c5761216c8482612500565b5050505050565b60006001600160a01b0384163b1561226957604051630a85bd0160e11b81526001600160a01b0385169063150b7a02906121b7903390899088908890600401613070565b6020604051808303816000875af19250505080156121f2575060408051601f3d908101601f191682019092526121ef918101906130ad565b60015b61224f573d808015612220576040519150601f19603f3d011682016040523d82523d6000602084013e612225565b606091505b5080516000036122475760405162461bcd60e51b815260040161088190612f43565b805181602001fd5b6001600160e01b031916630a85bd0160e11b149050611b0c565b506001949350505050565b6060600061228183612544565b600101905060008167ffffffffffffffff8111156122a1576122a1612c11565b6040519080825280601f01601f1916602001820160405280156122cb576020820181803683370190505b5090508181016020015b600019016f181899199a1a9b1b9c1cb0b131b232b360811b600a86061a8153600a85049450846122d557509392505050565b606061231287612274565b61231e8760ff16612274565b8686612334876001600160a01b0316601461261c565b8661235c576040518060400160405280600581526020016466616c736560d81b81525061237a565b604051806040016040528060048152602001637472756560e01b8152505b61238342612274565b60405160200161239997969594939291906130ca565b60405160208183030381529060405290509695505050505050565b600060016123c18461101c565b6123cb91906131f4565b60008381526007602052604090205490915080821461241e576001600160a01b03841660009081526006602090815260408083208584528252808320548484528184208190558352600790915290208190555b5060009182526007602090815260408084208490556001600160a01b039094168352600681528383209183525290812055565b600854600090612463906001906131f4565b6000838152600960205260408120546008805493945090928490811061248b5761248b612e80565b9060005260206000200154905080600883815481106124ac576124ac612e80565b60009182526020808320909101929092558281526009909152604080822084905585825281205560088054806124e4576124e461320b565b6001900381819060005260206000200160009055905550505050565b600061250b8361101c565b6001600160a01b039093166000908152600660209081526040808320868452825280832085905593825260079052919091209190915550565b60008072184f03e93ff9f4daa797ed6e38ed64bf6a1f0160401b83106125835772184f03e93ff9f4daa797ed6e38ed64bf6a1f0160401b830492506040015b6d04ee2d6d415b85acef810000000083106125af576d04ee2d6d415b85acef8100000000830492506020015b662386f26fc1000083106125cd57662386f26fc10000830492506010015b6305f5e10083106125e5576305f5e100830492506008015b61271083106125f957612710830492506004015b6064831061260b576064830492506002015b600a831061074e5760010192915050565b6060600061262b836002613221565b612636906002613240565b67ffffffffffffffff81111561264e5761264e612c11565b6040519080825280601f01601f191660200182016040528015612678576020820181803683370190505b509050600360fc1b8160008151811061269357612693612e80565b60200101906001600160f81b031916908160001a905350600f60fb1b816001815181106126c2576126c2612e80565b60200101906001600160f81b031916908160001a90535060006126e6846002613221565b6126f1906001613240565b90505b6001811115612769576f181899199a1a9b1b9c1cb0b131b232b360811b85600f166010811061272557612725612e80565b1a60f81b82828151811061273b5761273b612e80565b60200101906001600160f81b031916908160001a90535060049490941c9361276281613258565b90506126f4565b5083156112305760405162461bcd60e51b815260206004820181905260248201527f537472696e67733a20686578206c656e67746820696e73756666696369656e746044820152606401610881565b8280546127c490612d50565b90600052602060002090601f0160209004810192826127e6576000855561282c565b82601f106127ff5782800160ff1982351617855561282c565b8280016001018555821561282c579182015b8281111561282c578235825591602001919060010190612811565b506128389291506128b0565b5090565b82805461284890612d50565b90600052602060002090601f01602090048101928261286a576000855561282c565b82601f1061288357805160ff191683800117855561282c565b8280016001018555821561282c579182015b8281111561282c578251825591602001919060010190612895565b5b8082111561283857600081556001016128b1565b6001600160e01b0319811681146117ca57600080fd5b6000602082840312156128ed57600080fd5b8135611230816128c5565b60005b838110156129135781810151838201526020016128fb565b838111156114f35750506000910152565b6000815180845261293c8160208601602086016128f8565b601f01601f19169290920160200192915050565b6020815260006112306020830184612924565b60006020828403121561297557600080fd5b5035919050565b80356001600160a01b038116811461299357600080fd5b919050565b600080604083850312156129ab57600080fd5b6129b48361297c565b946020939093013593505050565b803560ff8116811461299357600080fd5b600080604083850312156129e657600080fd5b823591506129f6602084016129c2565b90509250929050565b600080600060608486031215612a1457600080fd5b612a1d8461297c565b9250612a2b6020850161297c565b9150604084013590509250925092565b600060208284031215612a4d57600080fd5b611230826129c2565b60008083601f840112612a6857600080fd5b50813567ffffffffffffffff811115612a8057600080fd5b602083019150836020828501011115612a9857600080fd5b9250929050565b60008060208385031215612ab257600080fd5b823567ffffffffffffffff811115612ac957600080fd5b612ad585828601612a56565b90969095509350505050565b600060208284031215612af357600080fd5b6112308261297c565b60ff85168152608060208201526000612b186080830186612924565b8281036040840152612b2a8186612924565b915050821515606083015295945050505050565b60008060408385031215612b5157600080fd5b612b5a8361297c565b91506129f6602084016129c2565b8035801515811461299357600080fd5b60008060408385031215612b8b57600080fd5b823591506129f660208401612b68565b600080600060408486031215612bb057600080fd5b83359250602084013567ffffffffffffffff811115612bce57600080fd5b612bda86828701612a56565b9497909650939450505050565b60008060408385031215612bfa57600080fd5b612c038361297c565b91506129f660208401612b68565b634e487b7160e01b600052604160045260246000fd5b60008060008060808587031215612c3d57600080fd5b612c468561297c565b9350612c546020860161297c565b925060408501359150606085013567ffffffffffffffff80821115612c7857600080fd5b818701915087601f830112612c8c57600080fd5b813581811115612c9e57612c9e612c11565b604051601f8201601f19908116603f01168101908382118183101715612cc657612cc6612c11565b816040528281528a6020848701011115612cdf57600080fd5b82602086016020830137600060208483010152809550505050505092959194509250565b60008060408385031215612d1657600080fd5b612d1f8361297c565b91506129f66020840161297c565b60008060408385031215612d4057600080fd5b823591506129f66020840161297c565b600181811c90821680612d6457607f821691505b602082108103612d8457634e487b7160e01b600052602260045260246000fd5b50919050565b600060208284031215612d9c57600080fd5b5051919050565b60ff831681526000602060408184015260008454612dc081612d50565b8060408701526060600180841660008114612de25760018114612df657612e24565b60ff19851689840152608089019550612e24565b896000528660002060005b85811015612e1c5781548b8201860152908301908801612e01565b8a0184019650505b50939998505050505050505050565b6020808252602d908201527f4552433732313a2063616c6c6572206973206e6f7420746f6b656e206f776e6560408201526c1c881bdc88185c1c1c9bdd9959609a1b606082015260800190565b634e487b7160e01b600052603260045260246000fd5b634e487b7160e01b600052601160045260246000fd5b600060018201612ebe57612ebe612e96565b5060010190565b60ff8416815260406020820152816040820152818360608301376000818301606090810191909152601f909201601f1916010192915050565b60208082526025908201527f4552433732313a207472616e736665722066726f6d20696e636f72726563742060408201526437bbb732b960d91b606082015260800190565b60208082526032908201527f4552433732313a207472616e7366657220746f206e6f6e20455243373231526560408201527131b2b4bb32b91034b6b83632b6b2b73a32b960711b606082015260800190565b60008151612fa78185602086016128f8565b9290920192915050565b6000808454612fbf81612d50565b60018281168015612fd75760018114612fe857613017565b60ff19841687528287019450613017565b8860005260208060002060005b8581101561300e5781548a820152908401908201612ff5565b50505082870194505b50602f60f81b8452865192506130338382860160208a016128f8565b919092010195945050505050565b600083516130538184602088016128f8565b8351908301906130678183602088016128f8565b01949350505050565b6001600160a01b03858116825284166020820152604081018390526080606082018190526000906130a390830184612924565b9695505050505050565b6000602082840312156130bf57600080fd5b8151611230816128c5565b6b3f747275737453636f72653d60a01b8152600088516130f181600c850160208d016128f8565b6a266261646765547970653d60a81b600c91840191820152885161311c816017840160208d016128f8565b6a2662616467654e616d653d60a81b601792909101918201528751613148816022840160208c016128f8565b600c818301019150506d2662616467654d6573736167653d60901b6016820152865161317b816024840160208b016128f8565b6131e56131df6131c86131c26131ac6131a660248888010166266f776e65723d60c81b815260070190565b8c612f95565b692676657269666965643d60b01b8152600a0190565b89612f95565b6a2674696d657374616d703d60a81b8152600b0190565b86612f95565b9b9a5050505050505050505050565b60008282101561320657613206612e96565b500390565b634e487b7160e01b600052603160045260246000fd5b600081600019048311821515161561323b5761323b612e96565b500290565b6000821982111561325357613253612e96565b500190565b60008161326757613267612e96565b50600019019056fe97965ca62930796f62be12c264db3e45ff6b0e66b7160e19e32a9380be9d5471a26469706673582212202ad6b5566244098347346a3a35a86c069a32be6995ded63dac1159f9d5c9346d64736f6c634300080d0033",
  "linkReferences": {},
  "deployedLinkReferences": {}
}