{"abi":[{"type":"constructor","inputs":[{"name":"name","type":"string","internalType":"string"},{"name":"symbol","type":"string","internalType":"string"},{"name":"_trustScoreContract","type":"address","internalType":"address"},{"name":"baseURI_","type":"string","internalType":"string"},{"name":"_metadataServer","type":"string","internalType":"string"}],"stateMutability":"nonpayable"},{"type":"function","name":"approve","inputs":[{"name":"to","type":"address","internalType":"address"},{"name":"tokenId","type":"uint256","internalType":"uint256"}],"outputs":[],"stateMutability":"nonpayable"},{"type":"function","name":"balanceOf","inputs":[{"name":"owner","type":"address","internalType":"address"}],"outputs":[{"name":"","type":"uint256","internalType":"uint256"}],"stateMutability":"view"},{"type":"function","name":"getApproved","inputs":[{"name":"tokenId","type":"uint256","internalType":"uint256"}],"outputs":[{"name":"","type":"address","internalType":"address"}],"stateMutability":"view"},{"type":"function","name":"getBadgeData","inputs":[{"name":"tokenId","type":"uint256","internalType":"uint256"}],"outputs":[{"name":"badgeType","type":"uint8","internalType":"uint8"},{"name":"badgeName","type":"string","internalType":"string"},{"name":"badgeMessage","type":"string","internalType":"string"},{"name":"verified","type":"bool","internalType":"bool"}],"stateMutability":"view"},{"type":"function","name":"getBadgeTypeRequirement","inputs":[{"name":"badgeType","type":"uint8","internalType":"uint8"}],"outputs":[{"name":"","type":"uint256","internalType":"uint256"}],"stateMutability":"pure"},{"type":"function","name":"getTierLevel","inputs":[{"name":"trustScore","type":"uint256","internalType":"uint256"}],"outputs":[{"name":"","type":"uint256","internalType":"uint256"}],"stateMutability":"pure"},{"type":"function","name":"getTierName","inputs":[{"name":"trustScore","type":"uint256","internalType":"uint256"}],"outputs":[{"name":"","type":"string","internalType":"string"}],"stateMutability":"pure"},{"type":"function","name":"isApprovedForAll","inputs":[{"name":"owner","type":"address","internalType":"address"},{"name":"operator","type":"address","internalType":"address"}],"outputs":[{"name":"","type":"bool","internalType":"bool"}],"stateMutability":"view"},{"type":"function","name":"lastCustomized","inputs":[{"name":"","type":"uint256","internalType":"uint256"}],"outputs":[{"name":"","type":"uint256","internalType":"uint256"}],"stateMutability":"view"},{"type":"function","name":"lastMinted","inputs":[],"outputs":[{"name":"","type":"uint256","internalType":"uint256"}],"stateMutability":"view"},{"type":"function","name":"lastTrustScore","inputs":[{"name":"","type":"uint256","internalType":"uint256"}],"outputs":[{"name":"","type":"uint256","internalType":"uint256"}],"stateMutability":"view"},{"type":"function","name":"metadataServer","inputs":[],"outputs":[{"name":"","type":"string","internalType":"string"}],"stateMutability":"view"},{"type":"function","name":"mint","inputs":[],"outputs":[{"name":"","type":"uint256","internalType":"uint256"}],"stateMutability":"payable"},{"type":"function","name":"mintWithModel","inputs":[{"name":"badgeType","type":"uint8","internalType":"uint8"}],"outputs":[{"name":"","type":"uint256","internalType":"uint256"}],"stateMutability":"payable"},{"type":"function","name":"name","inputs":[],"outputs":[{"name":"","type":"string","internalType":"string"}],"stateMutability":"view"},{"type":"function","name":"owner","inputs":[],"outputs":[{"name":"","type":"address","internalType":"address"}],"stateMutability":"view"},{"type":"function","name":"ownerOf","inputs":[{"name":"tokenId","type":"uint256","internalType":"uint256"}],"outputs":[{"name":"","type":"address","internalType":"address"}],"stateMutability":"view"},{"type":"function","name":"refreshTrustScore","inputs":[{"name":"tokenId","type":"uint256","internalType":"uint256"}],"outputs":[],"stateMutability":"nonpayable"},{"type":"function","name":"renounceOwnership","inputs":[],"outputs":[],"stateMutability":"nonpayable"},{"type":"function","name":"safeTransferFrom","inputs":[{"name":"from","type":"address","internalType":"address"},{"name":"to","type":"address","internalType":"address"},{"name":"tokenId","type":"uint256","internalType":"uint256"}],"outputs":[],"stateMutability":"nonpayable"},{"type":"function","name":"safeTransferFrom","inputs":[{"name":"from","type":"address","internalType":"address"},{"name":"to","type":"address","internalType":"address"},{"name":"tokenId","type":"uint256","internalType":"uint256"},{"name":"data","type":"bytes","internalType":"bytes"}],"outputs":[],"stateMutability":"nonpayable"},{"type":"function","name":"setApprovalForAll","inputs":[{"name":"operator","type":"address","internalType":"address"},{"name":"approved","type":"bool","internalType":"bool"}],"outputs":[],"stateMutability":"nonpayable"},{"type":"function","name":"setBadgeMessage","inputs":[{"name":"tokenId","type":"uint256","internalType":"uint256"},{"name":"message","type":"string","internalType":"string"}],"outputs":[],"stateMutability":"nonpayable"},{"type":"function","name":"setBadgeName","inputs":[{"name":"tokenId","type":"uint256","internalType":"uint256"},{"name":"name","type":"string","internalType":"string"}],"outputs":[],"stateMutability":"nonpayable"},{"type":"function","name":"setBadgeType","inputs":[{"name":"tokenId","type":"uint256","internalType":"uint256"},{"name":"badgeType","type":"uint8","internalType":"uint8"}],"outputs":[],"stateMutability":"nonpayable"},{"type":"function","name":"setBaseURI","inputs":[{"name":"baseURI_","type":"string","internalType":"string"}],"outputs":[],"stateMutability":"nonpayable"},{"type":"function","name":"setMetadataServer","inputs":[{"name":"_metadataServer","type":"string","internalType":"string"}],"outputs":[],"stateMutability":"nonpayable"},{"type":"function","name":"setTrustScoreContract","inputs":[{"name":"_trustScoreContract","type":"address","internalType":"address"}],"outputs":[],"stateMutability":"nonpayable"},{"type":"function","name":"setVerifiedStatus","inputs":[{"name":"tokenId","type":"uint256","internalType":"uint256"},{"name":"verified","type":"bool","internalType":"bool"}],"outputs":[],"stateMutability":"nonpayable"},{"type":"function","name":"supportsInterface","inputs":[{"name":"interfaceId","type":"bytes4","internalType":"bytes4"}],"outputs":[{"name":"","type":"bool","internalType":"bool"}],"stateMutability":"view"},{"type":"function","name":"symbol","inputs":[],"outputs":[{"name":"","type":"string","internalType":"string"}],"stateMutability":"view"},{"type":"function","name":"tokenByIndex","inputs":[{"name":"index","type":"uint256","internalType":"uint256"}],"outputs":[{"name":"","type":"uint256","internalType":"uint256"}],"stateMutability":"view"},{"type":"function","name":"tokenOfOwnerByIndex","inputs":[{"name":"owner","type":"address","internalType":"address"},{"name":"index","type":"uint256","internalType":"uint256"}],"outputs":[{"name":"","type":"uint256","internalType":"uint256"}],"stateMutability":"view"},{"type":"function","name":"tokenURI","inputs":[{"name":"tokenId","type":"uint256","internalType":"uint256"}],"outputs":[{"name":"","type":"string","internalType":"string"}],"stateMutability":"view"},{"type":"function","name":"totalSupply","inputs":[],"outputs":[{"name":"","type":"uint256","internalType":"uint256"}],"stateMutability":"view"},{"type":"function","name":"transferFrom","inputs":[{"name":"from","type":"address","internalType":"address"},{"name":"to","type":"address","internalType":"address"},{"name":"tokenId","type":"uint256","internalType":"uint256"}],"outputs":[],"stateMutability":"nonpayable"},{"type":"function","name":"transferOwnership","inputs":[{"name":"newOwner","type":"address","internalType":"address"}],"outputs":[],"stateMutability":"nonpayable"},{"type":"function","name":"trustScoreContract","inputs":[],"outputs":[{"name":"","type":"address","internalType":"contract IGraphiteTrustScore"}],"stateMutability":"view"},{"type":"event","name":"Approval","inputs":[{"name":"owner","type":"address","indexed":true,"internalType":"address"},{"name":"approved","type":"address","indexed":true,"internalType":"address"},{"name":"tokenId","type":"uint256","indexed":true,"internalType":"uint256"}],"anonymous":false},{"type":"event","name":"ApprovalForAll","inputs":[{"name":"owner","type":"address","indexed":true,"internalType":"address"},{"name":"operator","type":"address","indexed":true,"internalType":"address"},{"name":"approved","type":"bool","indexed":false,"internalType":"bool"}],"anonymous":false},{"type":"event","name":"BadgeCustomized","inputs":[{"name":"tokenId","type":"uint256","indexed":true,"internalType":"uint256"},{"name":"badgeType","type":"uint8","indexed":false,"internalType":"uint8"},{"name":"badgeName","type":"string","indexed":false,"internalType":"string"}],"anonymous":false},{"type":"event","name":"MetadataRefreshed","inputs":[{"name":"tokenId","type":"uint256","indexed":true,"internalType":"uint256"}],"anonymous":false},{"type":"event","name":"OwnershipTransferred","inputs":[{"name":"previousOwner","type":"address","indexed":true,"internalType":"address"},{"name":"newOwner","type":"address","indexed":true,"internalType":"address"}],"anonymous":false},{"type":"event","name":"Transfer","inputs":[{"name":"from","type":"address","indexed":true,"internalType":"address"},{"name":"to","type":"address","indexed":true,"internalType":"address"},{"name":"tokenId","type":"uint256","indexed":true,"internalType":"uint256"}],"anonymous":false},{"type":"event","name":"TrustScoreRefreshed","inputs":[{"name":"tokenId","type":"uint256","indexed":true,"internalType":"uint256"},{"name":"newScore","type":"uint256","indexed":false,"internalType":"uint256"}],"anonymous":false},{"type":"error","name":"ERC721EnumerableForbiddenBatchMint","inputs":[]},{"type":"error","name":"ERC721IncorrectOwner","inputs":[{"name":"sender","type":"address","internalType":"address"},{"name":"tokenId","type":"uint256","internalType":"uint256"},{"name":"owner","type":"address","internalType":"address"}]},{"type":"error","name":"ERC721InsufficientApproval","inputs":[{"name":"operator","type":"address","internalType":"address"},{"name":"tokenId","type":"uint256","internalType":"uint256"}]},{"type":"error","name":"ERC721InvalidApprover","inputs":[{"name":"approver","type":"address","internalType":"address"}]},{"type":"error","name":"ERC721InvalidOperator","inputs":[{"name":"operator","type":"address","internalType":"address"}]},{"type":"error","name":"ERC721InvalidOwner","inputs":[{"name":"owner","type":"address","internalType":"address"}]},{"type":"error","name":"ERC721InvalidReceiver","inputs":[{"name":"receiver","type":"address","internalType":"address"}]},{"type":"error","name":"ERC721InvalidSender","inputs":[{"name":"sender","type":"address","internalType":"address"}]},{"type":"error","name":"ERC721NonexistentToken","inputs":[{"name":"tokenId","type":"uint256","internalType":"uint256"}]},{"type":"error","name":"ERC721OutOfBoundsIndex","inputs":[{"name":"owner","type":"address","internalType":"address"},{"name":"index","type":"uint256","internalType":"uint256"}]},{"type":"error","name":"InsufficientTrustForCustomization","inputs":[]},{"type":"error","name":"InvalidBadgeType","inputs":[]},{"type":"error","name":"NotTokenOwner","inputs":[]},{"type":"error","name":"OwnableInvalidOwner","inputs":[{"name":"owner","type":"address","internalType":"address"}]},{"type":"error","name":"OwnableUnauthorizedAccount","inputs":[{"name":"account","type":"address","internalType":"address"}]},{"type":"error","name":"StringsInsufficientHexLength","inputs":[{"name":"value","type":"uint256","internalType":"uint256"},{"name":"length","type":"uint256","internalType":"uint256"}]},{"type":"error","name":"TokenDoesNotExist","inputs":[]}],"bytecode":{"object":"0x608060405234801561000f575f5ffd5b50604051615271380380615271833981810160405281019061003191906103a9565b338585815f908161004291906106a0565b50806001908161005291906106a0565b5050505f73ffffffffffffffffffffffffffffffffffffffff168173ffffffffffffffffffffffffffffffffffffffff16036100c5575f6040517f1e4fbdf70000000000000000000000000000000000000000000000000000000081526004016100bc919061077e565b60405180910390fd5b6100d48161013f60201b60201c565b5082600b5f6101000a81548173ffffffffffffffffffffffffffffffffffffffff021916908373ffffffffffffffffffffffffffffffffffffffff16021790555081600c908161012491906106a0565b5080600d908161013491906106a0565b505050505050610797565b5f600a5f9054906101000a900473ffffffffffffffffffffffffffffffffffffffff16905081600a5f6101000a81548173ffffffffffffffffffffffffffffffffffffffff021916908373ffffffffffffffffffffffffffffffffffffffff1602179055508173ffffffffffffffffffffffffffffffffffffffff168173ffffffffffffffffffffffffffffffffffffffff167f8be0079c531659141344cd1fd0a4f28419497f9722a3daafe3b4186f6b6457e060405160405180910390a35050565b5f604051905090565b5f5ffd5b5f5ffd5b5f5ffd5b5f5ffd5b5f601f19601f8301169050919050565b7f4e487b71000000000000000000000000000000000000000000000000000000005f52604160045260245ffd5b6102618261021b565b810181811067ffffffffffffffff821117156102805761027f61022b565b5b80604052505050565b5f610292610202565b905061029e8282610258565b919050565b5f67ffffffffffffffff8211156102bd576102bc61022b565b5b6102c68261021b565b9050602081019050919050565b8281835e5f83830152505050565b5f6102f36102ee846102a3565b610289565b90508281526020810184848401111561030f5761030e610217565b5b61031a8482856102d3565b509392505050565b5f82601f83011261033657610335610213565b5b81516103468482602086016102e1565b91505092915050565b5f73ffffffffffffffffffffffffffffffffffffffff82169050919050565b5f6103788261034f565b9050919050565b6103888161036e565b8114610392575f5ffd5b50565b5f815190506103a38161037f565b92915050565b5f5f5f5f5f60a086880312156103c2576103c161020b565b5b5f86015167ffffffffffffffff8111156103df576103de61020f565b5b6103eb88828901610322565b955050602086015167ffffffffffffffff81111561040c5761040b61020f565b5b61041888828901610322565b945050604061042988828901610395565b935050606086015167ffffffffffffffff81111561044a5761044961020f565b5b61045688828901610322565b925050608086015167ffffffffffffffff8111156104775761047661020f565b5b61048388828901610322565b9150509295509295909350565b5f81519050919050565b7f4e487b71000000000000000000000000000000000000000000000000000000005f52602260045260245ffd5b5f60028204905060018216806104de57607f821691505b6020821081036104f1576104f061049a565b5b50919050565b5f819050815f5260205f209050919050565b5f6020601f8301049050919050565b5f82821b905092915050565b5f600883026105537fffffffffffffffffffffffffffffffffffffffffffffffffffffffffffffffff82610518565b61055d8683610518565b95508019841693508086168417925050509392505050565b5f819050919050565b5f819050919050565b5f6105a161059c61059784610575565b61057e565b610575565b9050919050565b5f819050919050565b6105ba83610587565b6105ce6105c6826105a8565b848454610524565b825550505050565b5f5f905090565b6105e56105d6565b6105f08184846105b1565b505050565b5b81811015610613576106085f826105dd565b6001810190506105f6565b5050565b601f82111561065857610629816104f7565b61063284610509565b81016020851015610641578190505b61065561064d85610509565b8301826105f5565b50505b505050565b5f82821c905092915050565b5f6106785f198460080261065d565b1980831691505092915050565b5f6106908383610669565b9150826002028217905092915050565b6106a982610490565b67ffffffffffffffff8111156106c2576106c161022b565b5b6106cc82546104c7565b6106d7828285610617565b5f60209050601f831160018114610708575f84156106f6578287015190505b6107008582610685565b865550610767565b601f198416610716866104f7565b5f5b8281101561073d57848901518255600182019150602085019450602081019050610718565b8683101561075a5784890151610756601f891682610669565b8355505b6001600288020188555050505b505050505050565b6107788161036e565b82525050565b5f6020820190506107915f83018461076f565b92915050565b614acd806107a45f395ff3fe608060405260043610610224575f3560e01c80636e7b1c8511610122578063a90b6a32116100aa578063dc7831fd1161006e578063dc7831fd1461084f578063e2728f8714610879578063e5779bc8146108a1578063e985e9c5146108c9578063f2fde38b1461090557610224565b8063a90b6a321461075d578063b7713b7c14610785578063b88d4fde146107c1578063bbc19ab0146107e9578063c87b56dd1461081357610224565b806392cd2e67116100f157806392cd2e671461067f57806395d89b41146106a7578063980eedf0146106d15780639e8987581461070d578063a22cb4651461073557610224565b80636e7b1c85146105c457806370a0823114610603578063715018a61461063f5780638da5cb5b1461065557610224565b80631d135a71116101b057806342842e0e1161017457806342842e0e146104c05780634f6ccce7146104e857806355f804b3146105245780635882810d1461054c5780636352211e1461058857610224565b80631d135a71146103c857806323b872dd146103f0578063299caaca146104185780632f745c5914610454578063364446211461049057610224565b80630f722481116101f75780630f722481146102f25780631249c58b1461031c5780631583d94d1461033a57806317dd4c7a1461037657806318160ddd1461039e57610224565b806301ffc9a71461022857806306fdde0314610264578063081812fc1461028e578063095ea7b3146102ca575b5f5ffd5b348015610233575f5ffd5b5061024e600480360381019061024991906136f5565b61092d565b60405161025b919061373a565b60405180910390f35b34801561026f575f5ffd5b506102786109a6565b60405161028591906137c3565b60405180910390f35b348015610299575f5ffd5b506102b460048036038101906102af9190613816565b610a35565b6040516102c19190613880565b60405180910390f35b3480156102d5575f5ffd5b506102f060048036038101906102eb91906138c3565b610a50565b005b3480156102fd575f5ffd5b50610306610a66565b60405161031391906137c3565b60405180910390f35b610324610af2565b6040516103319190613910565b60405180910390f35b348015610345575f5ffd5b50610360600480360381019061035b9190613816565b610c89565b60405161036d9190613910565b60405180910390f35b348015610381575f5ffd5b5061039c6004803603810190610397919061395f565b610c9e565b005b3480156103a9575f5ffd5b506103b2610efa565b6040516103bf9190613910565b60405180910390f35b3480156103d3575f5ffd5b506103ee60048036038101906103e99190613816565b610f06565b005b3480156103fb575f5ffd5b506104166004803603810190610411919061399d565b6110d9565b005b348015610423575f5ffd5b5061043e600480360381019061043991906139ed565b6111d8565b60405161044b9190613910565b60405180910390f35b34801561045f575f5ffd5b5061047a600480360381019061047591906138c3565b611235565b6040516104879190613910565b60405180910390f35b6104aa60048036038101906104a591906139ed565b6112d9565b6040516104b79190613910565b60405180910390f35b3480156104cb575f5ffd5b506104e660048036038101906104e1919061399d565b6114bd565b005b3480156104f3575f5ffd5b5061050e60048036038101906105099190613816565b6114dc565b60405161051b9190613910565b60405180910390f35b34801561052f575f5ffd5b5061054a60048036038101906105459190613a79565b61154e565b005b348015610557575f5ffd5b50610572600480360381019061056d9190613816565b61156c565b60405161057f9190613910565b60405180910390f35b348015610593575f5ffd5b506105ae60048036038101906105a99190613816565b611581565b6040516105bb9190613880565b60405180910390f35b3480156105cf575f5ffd5b506105ea60048036038101906105e59190613816565b611592565b6040516105fa9493929190613ad3565b60405180910390f35b34801561060e575f5ffd5b5061062960048036038101906106249190613b24565b611723565b6040516106369190613910565b60405180910390f35b34801561064a575f5ffd5b506106536117d9565b005b348015610660575f5ffd5b506106696117ec565b6040516106769190613880565b60405180910390f35b34801561068a575f5ffd5b506106a560048036038101906106a09190613b79565b611814565b005b3480156106b2575f5ffd5b506106bb611878565b6040516106c891906137c3565b60405180910390f35b3480156106dc575f5ffd5b506106f760048036038101906106f29190613816565b611908565b60405161070491906137c3565b60405180910390f35b348015610718575f5ffd5b50610733600480360381019061072e9190613bb7565b611a6d565b005b348015610740575f5ffd5b5061075b60048036038101906107569190613c14565b611ba1565b005b348015610768575f5ffd5b50610783600480360381019061077e9190613b24565b611bb7565b005b348015610790575f5ffd5b506107ab60048036038101906107a69190613816565b611c02565b6040516107b89190613910565b60405180910390f35b3480156107cc575f5ffd5b506107e760048036038101906107e29190613d7a565b611c58565b005b3480156107f4575f5ffd5b506107fd611c7d565b60405161080a9190613910565b60405180910390f35b34801561081e575f5ffd5b5061083960048036038101906108349190613816565b611c86565b60405161084691906137c3565b60405180910390f35b34801561085a575f5ffd5b50610863611f55565b6040516108709190613e55565b60405180910390f35b348015610884575f5ffd5b5061089f600480360381019061089a9190613a79565b611f7a565b005b3480156108ac575f5ffd5b506108c760048036038101906108c29190613bb7565b611f98565b005b3480156108d4575f5ffd5b506108ef60048036038101906108ea9190613e6e565b612071565b6040516108fc919061373a565b60405180910390f35b348015610910575f5ffd5b5061092b60048036038101906109269190613b24565b6120ff565b005b5f7f780e9d63000000000000000000000000000000000000000000000000000000007bffffffffffffffffffffffffffffffffffffffffffffffffffffffff1916827bffffffffffffffffffffffffffffffffffffffffffffffffffffffff1916148061099f575061099e82612183565b5b9050919050565b60605f80546109b490613ed9565b80601f01602080910402602001604051908101604052809291908181526020018280546109e090613ed9565b8015610a2b5780601f10610a0257610100808354040283529160200191610a2b565b820191905f5260205f20905b815481529060010190602001808311610a0e57829003601f168201915b5050505050905090565b5f610a3f82612264565b50610a49826122ea565b9050919050565b610a628282610a5d612323565b61232a565b5050565b600d8054610a7390613ed9565b80601f0160208091040260200160405190810160405280929190818152602001828054610a9f90613ed9565b8015610aea5780601f10610ac157610100808354040283529160200191610aea565b820191905f5260205f20905b815481529060010190602001808311610acd57829003601f168201915b505050505081565b5f5f600e5f8154610b0290613f36565b91905081905590506040518060800160405280600160ff16815260200160405180602001604052805f815250815260200160405180602001604052805f81525081526020015f151581525060105f8381526020019081526020015f205f820151815f015f6101000a81548160ff021916908360ff1602179055506020820151816001019081610b919190614114565b506040820151816002019081610ba79190614114565b506060820151816003015f6101000a81548160ff021916908315150217905550905050600b5f9054906101000a900473ffffffffffffffffffffffffffffffffffffffff1673ffffffffffffffffffffffffffffffffffffffff16635e09eea1336040518263ffffffff1660e01b8152600401610c249190613880565b602060405180830381865afa158015610c3f573d5f5f3e3d5ffd5b505050506040513d601f19601f82011682018060405250810190610c6391906141f7565b600f5f8381526020019081526020015f2081905550610c82338261233c565b8091505090565b600f602052805f5260405f205f915090505481565b3373ffffffffffffffffffffffffffffffffffffffff16610cbe83611581565b73ffffffffffffffffffffffffffffffffffffffff1614610d0b576040517f59dc379f00000000000000000000000000000000000000000000000000000000815260040160405180910390fd5b60018160ff161080610d205750600a8160ff16115b15610d57576040517f1ec7469400000000000000000000000000000000000000000000000000000000815260040160405180910390fd5b5f600b5f9054906101000a900473ffffffffffffffffffffffffffffffffffffffff1673ffffffffffffffffffffffffffffffffffffffff16635e09eea1336040518263ffffffff1660e01b8152600401610db29190613880565b602060405180830381865afa158015610dcd573d5f5f3e3d5ffd5b505050506040513d601f19601f82011682018060405250810190610df191906141f7565b90505f610dfd836111d8565b905080821015610e39576040517f2fd1c3b800000000000000000000000000000000000000000000000000000000815260040160405180910390fd5b8260105f8681526020019081526020015f205f015f6101000a81548160ff021916908360ff1602179055504260115f8681526020019081526020015f2081905550837f7fe6d28cbf1261f0fd2521ef40c126669f85ed270ea031d07cd4ebfabe73a2dc8460105f8881526020019081526020015f20600101604051610ebf9291906142a3565b60405180910390a2837f97965ca62930796f62be12c264db3e45ff6b0e66b7160e19e32a9380be9d547160405160405180910390a250505050565b5f600880549050905090565b610f0f8161242f565b610f45576040517fceea21b600000000000000000000000000000000000000000000000000000000815260040160405180910390fd5b3373ffffffffffffffffffffffffffffffffffffffff16610f6582611581565b73ffffffffffffffffffffffffffffffffffffffff1614610fb2576040517f59dc379f00000000000000000000000000000000000000000000000000000000815260040160405180910390fd5b600b5f9054906101000a900473ffffffffffffffffffffffffffffffffffffffff1673ffffffffffffffffffffffffffffffffffffffff16635e09eea1336040518263ffffffff1660e01b815260040161100c9190613880565b602060405180830381865afa158015611027573d5f5f3e3d5ffd5b505050506040513d601f19601f8201168201806040525081019061104b91906141f7565b600f5f8381526020019081526020015f2081905550807f06175c4f2a0408441ad227b8fd1754accb33bc2c3c2f31cfa1a88dadc882637b600f5f8481526020019081526020015f20546040516110a19190613910565b60405180910390a2807f97965ca62930796f62be12c264db3e45ff6b0e66b7160e19e32a9380be9d547160405160405180910390a250565b5f73ffffffffffffffffffffffffffffffffffffffff168273ffffffffffffffffffffffffffffffffffffffff1603611149575f6040517f64a0ae920000000000000000000000000000000000000000000000000000000081526004016111409190613880565b60405180910390fd5b5f61115c8383611157612323565b61246f565b90508373ffffffffffffffffffffffffffffffffffffffff168173ffffffffffffffffffffffffffffffffffffffff16146111d2578382826040517f64283d7b0000000000000000000000000000000000000000000000000000000081526004016111c9939291906142d1565b60405180910390fd5b50505050565b5f60028260ff16116111ec575f9050611230565b60048260ff16116112005760c89050611230565b60068260ff1611611215576101909050611230565b60088260ff161161122a576102589050611230565b61032090505b919050565b5f61123f83611723565b82106112845782826040517fa57d13dc00000000000000000000000000000000000000000000000000000000815260040161127b929190614306565b60405180910390fd5b60065f8473ffffffffffffffffffffffffffffffffffffffff1673ffffffffffffffffffffffffffffffffffffffff1681526020019081526020015f205f8381526020019081526020015f2054905092915050565b5f60018260ff1610806112ef5750600a8260ff16115b15611326576040517f1ec7469400000000000000000000000000000000000000000000000000000000815260040160405180910390fd5b5f600e5f815461133590613f36565b919050819055905060405180608001604052808460ff16815260200160405180602001604052805f815250815260200160405180602001604052805f81525081526020015f151581525060105f8381526020019081526020015f205f820151815f015f6101000a81548160ff021916908360ff16021790555060208201518160010190816113c39190614114565b5060408201518160020190816113d99190614114565b506060820151816003015f6101000a81548160ff021916908315150217905550905050600b5f9054906101000a900473ffffffffffffffffffffffffffffffffffffffff1673ffffffffffffffffffffffffffffffffffffffff16635e09eea1336040518263ffffffff1660e01b81526004016114569190613880565b602060405180830381865afa158015611471573d5f5f3e3d5ffd5b505050506040513d601f19601f8201168201806040525081019061149591906141f7565b600f5f8381526020019081526020015f20819055506114b4338261233c565b80915050919050565b6114d783838360405180602001604052805f815250611c58565b505050565b5f6114e5610efa565b821061152a575f826040517fa57d13dc000000000000000000000000000000000000000000000000000000008152600401611521929190614306565b60405180910390fd5b6008828154811061153e5761153d61432d565b5b905f5260205f2001549050919050565b611556612589565b8181600c9182611567929190614364565b505050565b6011602052805f5260405f205f915090505481565b5f61158b82612264565b9050919050565b5f6060805f60105f8681526020019081526020015f205f015f9054906101000a900460ff1660105f8781526020019081526020015f2060010160105f8881526020019081526020015f2060020160105f8981526020019081526020015f206003015f9054906101000a900460ff1682805461160c90613ed9565b80601f016020809104026020016040519081016040528092919081815260200182805461163890613ed9565b80156116835780601f1061165a57610100808354040283529160200191611683565b820191905f5260205f20905b81548152906001019060200180831161166657829003601f168201915b5050505050925081805461169690613ed9565b80601f01602080910402602001604051908101604052809291908181526020018280546116c290613ed9565b801561170d5780601f106116e45761010080835404028352916020019161170d565b820191905f5260205f20905b8154815290600101906020018083116116f057829003601f168201915b5050505050915093509350935093509193509193565b5f5f73ffffffffffffffffffffffffffffffffffffffff168273ffffffffffffffffffffffffffffffffffffffff1603611794575f6040517f89c62b6400000000000000000000000000000000000000000000000000000000815260040161178b9190613880565b60405180910390fd5b60035f8373ffffffffffffffffffffffffffffffffffffffff1673ffffffffffffffffffffffffffffffffffffffff1681526020019081526020015f20549050919050565b6117e1612589565b6117ea5f612610565b565b5f600a5f9054906101000a900473ffffffffffffffffffffffffffffffffffffffff16905090565b61181c612589565b8060105f8481526020019081526020015f206003015f6101000a81548160ff021916908315150217905550817f97965ca62930796f62be12c264db3e45ff6b0e66b7160e19e32a9380be9d547160405160405180910390a25050565b60606001805461188790613ed9565b80601f01602080910402602001604051908101604052809291908181526020018280546118b390613ed9565b80156118fe5780601f106118d5576101008083540402835291602001916118fe565b820191905f5260205f20905b8154815290600101906020018083116118e157829003601f168201915b5050505050905090565b60605f61191483611c02565b90506001810361195c576040518060400160405280600881526020017f4e6577636f6d6572000000000000000000000000000000000000000000000000815250915050611a68565b600281036119a2576040518060400160405280600b81526020017f45737461626c6973686564000000000000000000000000000000000000000000815250915050611a68565b600381036119e8576040518060400160405280600781526020017f5472757374656400000000000000000000000000000000000000000000000000815250915050611a68565b60048103611a2e576040518060400160405280600a81526020017f496e666c75656e63657200000000000000000000000000000000000000000000815250915050611a68565b6040518060400160405280600981526020017f417574686f7269747900000000000000000000000000000000000000000000008152509150505b919050565b3373ffffffffffffffffffffffffffffffffffffffff16611a8d84611581565b73ffffffffffffffffffffffffffffffffffffffff1614611ada576040517f59dc379f00000000000000000000000000000000000000000000000000000000815260040160405180910390fd5b818160105f8681526020019081526020015f206001019182611afd929190614364565b504260115f8581526020019081526020015f2081905550827f7fe6d28cbf1261f0fd2521ef40c126669f85ed270ea031d07cd4ebfabe73a2dc60105f8681526020019081526020015f205f015f9054906101000a900460ff168484604051611b679392919061445d565b60405180910390a2827f97965ca62930796f62be12c264db3e45ff6b0e66b7160e19e32a9380be9d547160405160405180910390a2505050565b611bb3611bac612323565b83836126d3565b5050565b611bbf612589565b80600b5f6101000a81548173ffffffffffffffffffffffffffffffffffffffff021916908373ffffffffffffffffffffffffffffffffffffffff16021790555050565b5f60c8821015611c155760019050611c53565b610190821015611c285760029050611c53565b610258821015611c3b5760039050611c53565b610320821015611c4e5760049050611c53565b600590505b919050565b611c638484846110d9565b611c77611c6e612323565b8585858561283c565b50505050565b5f600e54905090565b6060611c918261242f565b611cc7576040517fceea21b600000000000000000000000000000000000000000000000000000000815260040160405180910390fd5b5f60105f8481526020019081526020015f206040518060800160405290815f82015f9054906101000a900460ff1660ff1660ff168152602001600182018054611d0f90613ed9565b80601f0160208091040260200160405190810160405280929190818152602001828054611d3b90613ed9565b8015611d865780601f10611d5d57610100808354040283529160200191611d86565b820191905f5260205f20905b815481529060010190602001808311611d6957829003601f168201915b50505050508152602001600282018054611d9f90613ed9565b80601f0160208091040260200160405190810160405280929190818152602001828054611dcb90613ed9565b8015611e165780601f10611ded57610100808354040283529160200191611e16565b820191905f5260205f20905b815481529060010190602001808311611df957829003601f168201915b50505050508152602001600382015f9054906101000a900460ff1615151515815250509050600d611e46846129e8565b611e60600f5f8781526020019081526020015f20546129e8565b611e6f845f015160ff166129e8565b84602001518560400151611ea2611e858a611581565b73ffffffffffffffffffffffffffffffffffffffff166014612ab2565b8760600151611ee6576040518060400160405280600581526020017f66616c7365000000000000000000000000000000000000000000000000000000815250611f1d565b6040518060400160405280600481526020017f74727565000000000000000000000000000000000000000000000000000000008152505b611f26426129e8565b604051602001611f3e99989796959493929190614797565b604051602081830303815290604052915050919050565b600b5f9054906101000a900473ffffffffffffffffffffffffffffffffffffffff1681565b611f82612589565b8181600d9182611f93929190614364565b505050565b3373ffffffffffffffffffffffffffffffffffffffff16611fb884611581565b73ffffffffffffffffffffffffffffffffffffffff1614612005576040517f59dc379f00000000000000000000000000000000000000000000000000000000815260040160405180910390fd5b818160105f8681526020019081526020015f206002019182612028929190614364565b504260115f8581526020019081526020015f2081905550827f97965ca62930796f62be12c264db3e45ff6b0e66b7160e19e32a9380be9d547160405160405180910390a2505050565b5f60055f8473ffffffffffffffffffffffffffffffffffffffff1673ffffffffffffffffffffffffffffffffffffffff1681526020019081526020015f205f8373ffffffffffffffffffffffffffffffffffffffff1673ffffffffffffffffffffffffffffffffffffffff1681526020019081526020015f205f9054906101000a900460ff16905092915050565b612107612589565b5f73ffffffffffffffffffffffffffffffffffffffff168173ffffffffffffffffffffffffffffffffffffffff1603612177575f6040517f1e4fbdf700000000000000000000000000000000000000000000000000000000815260040161216e9190613880565b60405180910390fd5b61218081612610565b50565b5f7f80ac58cd000000000000000000000000000000000000000000000000000000007bffffffffffffffffffffffffffffffffffffffffffffffffffffffff1916827bffffffffffffffffffffffffffffffffffffffffffffffffffffffff1916148061224d57507f5b5e139f000000000000000000000000000000000000000000000000000000007bffffffffffffffffffffffffffffffffffffffffffffffffffffffff1916827bffffffffffffffffffffffffffffffffffffffffffffffffffffffff1916145b8061225d575061225c82612cf0565b5b9050919050565b5f5f61226f83612d59565b90505f73ffffffffffffffffffffffffffffffffffffffff168173ffffffffffffffffffffffffffffffffffffffff16036122e157826040517f7e2732890000000000000000000000000000000000000000000000000000000081526004016122d89190613910565b60405180910390fd5b80915050919050565b5f60045f8381526020019081526020015f205f9054906101000a900473ffffffffffffffffffffffffffffffffffffffff169050919050565b5f33905090565b6123378383836001612d92565b505050565b5f73ffffffffffffffffffffffffffffffffffffffff168273ffffffffffffffffffffffffffffffffffffffff16036123ac575f6040517f64a0ae920000000000000000000000000000000000000000000000000000000081526004016123a39190613880565b60405180910390fd5b5f6123b883835f61246f565b90505f73ffffffffffffffffffffffffffffffffffffffff168173ffffffffffffffffffffffffffffffffffffffff161461242a575f6040517f73c6ac6e0000000000000000000000000000000000000000000000000000000081526004016124219190613880565b60405180910390fd5b505050565b5f5f73ffffffffffffffffffffffffffffffffffffffff1661245083612d59565b73ffffffffffffffffffffffffffffffffffffffff1614159050919050565b5f5f61247c858585612f51565b90505f73ffffffffffffffffffffffffffffffffffffffff168173ffffffffffffffffffffffffffffffffffffffff16036124bf576124ba8461315c565b6124fe565b8473ffffffffffffffffffffffffffffffffffffffff168173ffffffffffffffffffffffffffffffffffffffff16146124fd576124fc81856131a0565b5b5b5f73ffffffffffffffffffffffffffffffffffffffff168573ffffffffffffffffffffffffffffffffffffffff160361253f5761253a84613277565b61257e565b8473ffffffffffffffffffffffffffffffffffffffff168173ffffffffffffffffffffffffffffffffffffffff161461257d5761257c8585613337565b5b5b809150509392505050565b612591612323565b73ffffffffffffffffffffffffffffffffffffffff166125af6117ec565b73ffffffffffffffffffffffffffffffffffffffff161461260e576125d2612323565b6040517f118cdaa70000000000000000000000000000000000000000000000000000000081526004016126059190613880565b60405180910390fd5b565b5f600a5f9054906101000a900473ffffffffffffffffffffffffffffffffffffffff16905081600a5f6101000a81548173ffffffffffffffffffffffffffffffffffffffff021916908373ffffffffffffffffffffffffffffffffffffffff1602179055508173ffffffffffffffffffffffffffffffffffffffff168173ffffffffffffffffffffffffffffffffffffffff167f8be0079c531659141344cd1fd0a4f28419497f9722a3daafe3b4186f6b6457e060405160405180910390a35050565b5f73ffffffffffffffffffffffffffffffffffffffff168273ffffffffffffffffffffffffffffffffffffffff160361274357816040517f5b08ba1800000000000000000000000000000000000000000000000000000000815260040161273a9190613880565b60405180910390fd5b8060055f8573ffffffffffffffffffffffffffffffffffffffff1673ffffffffffffffffffffffffffffffffffffffff1681526020019081526020015f205f8473ffffffffffffffffffffffffffffffffffffffff1673ffffffffffffffffffffffffffffffffffffffff1681526020019081526020015f205f6101000a81548160ff0219169083151502179055508173ffffffffffffffffffffffffffffffffffffffff168373ffffffffffffffffffffffffffffffffffffffff167f17307eab39ab6107e8899845ad3d59bd9653f200f220920489ca2b5937696c318360405161282f919061373a565b60405180910390a3505050565b5f8373ffffffffffffffffffffffffffffffffffffffff163b11156129e1578273ffffffffffffffffffffffffffffffffffffffff1663150b7a02868685856040518563ffffffff1660e01b815260040161289a94939291906148bf565b6020604051808303815f875af19250505080156128d557506040513d601f19601f820116820180604052508101906128d2919061491d565b60015b612956573d805f8114612903576040519150601f19603f3d011682016040523d82523d5f602084013e612908565b606091505b505f81510361294e57836040517f64a0ae920000000000000000000000000000000000000000000000000000000081526004016129459190613880565b60405180910390fd5b805181602001fd5b63150b7a0260e01b7bffffffffffffffffffffffffffffffffffffffffffffffffffffffff1916817bffffffffffffffffffffffffffffffffffffffffffffffffffffffff1916146129df57836040517f64a0ae920000000000000000000000000000000000000000000000000000000081526004016129d69190613880565b60405180910390fd5b505b5050505050565b60605f60016129f6846133bb565b0190505f8167ffffffffffffffff811115612a1457612a13613c56565b5b6040519080825280601f01601f191660200182016040528015612a465781602001600182028036833780820191505090505b5090505f82602001820190505b600115612aa7578080600190039150507f3031323334353637383961626364656600000000000000000000000000000000600a86061a8153600a8581612a9c57612a9b614948565b5b0494505f8503612a53575b819350505050919050565b60605f8390505f6002846002612ac89190614975565b612ad291906149b6565b67ffffffffffffffff811115612aeb57612aea613c56565b5b6040519080825280601f01601f191660200182016040528015612b1d5781602001600182028036833780820191505090505b5090507f3000000000000000000000000000000000000000000000000000000000000000815f81518110612b5457612b5361432d565b5b60200101907effffffffffffffffffffffffffffffffffffffffffffffffffffffffffffff191690815f1a9053507f780000000000000000000000000000000000000000000000000000000000000081600181518110612bb757612bb661432d565b5b60200101907effffffffffffffffffffffffffffffffffffffffffffffffffffffffffffff191690815f1a9053505f6001856002612bf59190614975565b612bff91906149b6565b90505b6001811115612c9e577f3031323334353637383961626364656600000000000000000000000000000000600f841660108110612c4157612c4061432d565b5b1a60f81b828281518110612c5857612c5761432d565b5b60200101907effffffffffffffffffffffffffffffffffffffffffffffffffffffffffffff191690815f1a905350600483901c925080612c97906149e9565b9050612c02565b505f8214612ce55784846040517fe22e27eb000000000000000000000000000000000000000000000000000000008152600401612cdc929190614a10565b60405180910390fd5b809250505092915050565b5f7f01ffc9a7000000000000000000000000000000000000000000000000000000007bffffffffffffffffffffffffffffffffffffffffffffffffffffffff1916827bffffffffffffffffffffffffffffffffffffffffffffffffffffffff1916149050919050565b5f60025f8381526020019081526020015f205f9054906101000a900473ffffffffffffffffffffffffffffffffffffffff169050919050565b8080612dca57505f73ffffffffffffffffffffffffffffffffffffffff168273ffffffffffffffffffffffffffffffffffffffff1614155b15612efc575f612dd984612264565b90505f73ffffffffffffffffffffffffffffffffffffffff168373ffffffffffffffffffffffffffffffffffffffff1614158015612e4357508273ffffffffffffffffffffffffffffffffffffffff168173ffffffffffffffffffffffffffffffffffffffff1614155b8015612e565750612e548184612071565b155b15612e9857826040517fa9fbf51f000000000000000000000000000000000000000000000000000000008152600401612e8f9190613880565b60405180910390fd5b8115612efa57838573ffffffffffffffffffffffffffffffffffffffff168273ffffffffffffffffffffffffffffffffffffffff167f8c5be1e5ebec7d5bd14f71427d1e84f3dd0314c0f7b2291e5b200ac8c7c3b92560405160405180910390a45b505b8360045f8581526020019081526020015f205f6101000a81548173ffffffffffffffffffffffffffffffffffffffff021916908373ffffffffffffffffffffffffffffffffffffffff16021790555050505050565b5f5f612f5c84612d59565b90505f73ffffffffffffffffffffffffffffffffffffffff168373ffffffffffffffffffffffffffffffffffffffff1614612f9d57612f9c81848661350c565b5b5f73ffffffffffffffffffffffffffffffffffffffff168173ffffffffffffffffffffffffffffffffffffffff161461302857612fdc5f855f5f612d92565b600160035f8373ffffffffffffffffffffffffffffffffffffffff1673ffffffffffffffffffffffffffffffffffffffff1681526020019081526020015f205f82825403925050819055505b5f73ffffffffffffffffffffffffffffffffffffffff168573ffffffffffffffffffffffffffffffffffffffff16146130a757600160035f8773ffffffffffffffffffffffffffffffffffffffff1673ffffffffffffffffffffffffffffffffffffffff1681526020019081526020015f205f82825401925050819055505b8460025f8681526020019081526020015f205f6101000a81548173ffffffffffffffffffffffffffffffffffffffff021916908373ffffffffffffffffffffffffffffffffffffffff160217905550838573ffffffffffffffffffffffffffffffffffffffff168273ffffffffffffffffffffffffffffffffffffffff167fddf252ad1be2c89b69c2b068fc378daa952ba7f163c4a11628f55a4df523b3ef60405160405180910390a4809150509392505050565b60088054905060095f8381526020019081526020015f2081905550600881908060018154018082558091505060019003905f5260205f20015f909190919091505550565b5f6131aa83611723565b90505f60075f8481526020019081526020015f205490505f60065f8673ffffffffffffffffffffffffffffffffffffffff1673ffffffffffffffffffffffffffffffffffffffff1681526020019081526020015f209050828214613249575f815f8581526020019081526020015f2054905080825f8581526020019081526020015f20819055508260075f8381526020019081526020015f2081905550505b60075f8581526020019081526020015f205f9055805f8481526020019081526020015f205f90555050505050565b5f600160088054905061328a9190614a37565b90505f60095f8481526020019081526020015f205490505f600883815481106132b6576132b561432d565b5b905f5260205f200154905080600883815481106132d6576132d561432d565b5b905f5260205f2001819055508160095f8381526020019081526020015f208190555060095f8581526020019081526020015f205f9055600880548061331e5761331d614a6a565b5b600190038181905f5260205f20015f9055905550505050565b5f600161334384611723565b61334d9190614a37565b90508160065f8573ffffffffffffffffffffffffffffffffffffffff1673ffffffffffffffffffffffffffffffffffffffff1681526020019081526020015f205f8381526020019081526020015f20819055508060075f8481526020019081526020015f2081905550505050565b5f5f5f90507a184f03e93ff9f4daa797ed6e38ed64bf6a1f0100000000000000008310613417577a184f03e93ff9f4daa797ed6e38ed64bf6a1f010000000000000000838161340d5761340c614948565b5b0492506040810190505b6d04ee2d6d415b85acef81000000008310613454576d04ee2d6d415b85acef8100000000838161344a57613449614948565b5b0492506020810190505b662386f26fc10000831061348357662386f26fc10000838161347957613478614948565b5b0492506010810190505b6305f5e10083106134ac576305f5e10083816134a2576134a1614948565b5b0492506008810190505b61271083106134d15761271083816134c7576134c6614948565b5b0492506004810190505b606483106134f457606483816134ea576134e9614948565b5b0492506002810190505b600a8310613503576001810190505b80915050919050565b6135178383836135cf565b6135ca575f73ffffffffffffffffffffffffffffffffffffffff168373ffffffffffffffffffffffffffffffffffffffff160361358b57806040517f7e2732890000000000000000000000000000000000000000000000000000000081526004016135829190613910565b60405180910390fd5b81816040517f177e802f0000000000000000000000000000000000000000000000000000000081526004016135c1929190614306565b60405180910390fd5b505050565b5f5f73ffffffffffffffffffffffffffffffffffffffff168373ffffffffffffffffffffffffffffffffffffffff161415801561368657508273ffffffffffffffffffffffffffffffffffffffff168473ffffffffffffffffffffffffffffffffffffffff16148061364757506136468484612071565b5b8061368557508273ffffffffffffffffffffffffffffffffffffffff1661366d836122ea565b73ffffffffffffffffffffffffffffffffffffffff16145b5b90509392505050565b5f604051905090565b5f5ffd5b5f5ffd5b5f7fffffffff0000000000000000000000000000000000000000000000000000000082169050919050565b6136d4816136a0565b81146136de575f5ffd5b50565b5f813590506136ef816136cb565b92915050565b5f6020828403121561370a57613709613698565b5b5f613717848285016136e1565b91505092915050565b5f8115159050919050565b61373481613720565b82525050565b5f60208201905061374d5f83018461372b565b92915050565b5f81519050919050565b5f82825260208201905092915050565b8281835e5f83830152505050565b5f601f19601f8301169050919050565b5f61379582613753565b61379f818561375d565b93506137af81856020860161376d565b6137b88161377b565b840191505092915050565b5f6020820190508181035f8301526137db818461378b565b905092915050565b5f819050919050565b6137f5816137e3565b81146137ff575f5ffd5b50565b5f81359050613810816137ec565b92915050565b5f6020828403121561382b5761382a613698565b5b5f61383884828501613802565b91505092915050565b5f73ffffffffffffffffffffffffffffffffffffffff82169050919050565b5f61386a82613841565b9050919050565b61387a81613860565b82525050565b5f6020820190506138935f830184613871565b92915050565b6138a281613860565b81146138ac575f5ffd5b50565b5f813590506138bd81613899565b92915050565b5f5f604083850312156138d9576138d8613698565b5b5f6138e6858286016138af565b92505060206138f785828601613802565b9150509250929050565b61390a816137e3565b82525050565b5f6020820190506139235f830184613901565b92915050565b5f60ff82169050919050565b61393e81613929565b8114613948575f5ffd5b50565b5f8135905061395981613935565b92915050565b5f5f6040838503121561397557613974613698565b5b5f61398285828601613802565b92505060206139938582860161394b565b9150509250929050565b5f5f5f606084860312156139b4576139b3613698565b5b5f6139c1868287016138af565b93505060206139d2868287016138af565b92505060406139e386828701613802565b9150509250925092565b5f60208284031215613a0257613a01613698565b5b5f613a0f8482850161394b565b91505092915050565b5f5ffd5b5f5ffd5b5f5ffd5b5f5f83601f840112613a3957613a38613a18565b5b8235905067ffffffffffffffff811115613a5657613a55613a1c565b5b602083019150836001820283011115613a7257613a71613a20565b5b9250929050565b5f5f60208385031215613a8f57613a8e613698565b5b5f83013567ffffffffffffffff811115613aac57613aab61369c565b5b613ab885828601613a24565b92509250509250929050565b613acd81613929565b82525050565b5f608082019050613ae65f830187613ac4565b8181036020830152613af8818661378b565b90508181036040830152613b0c818561378b565b9050613b1b606083018461372b565b95945050505050565b5f60208284031215613b3957613b38613698565b5b5f613b46848285016138af565b91505092915050565b613b5881613720565b8114613b62575f5ffd5b50565b5f81359050613b7381613b4f565b92915050565b5f5f60408385031215613b8f57613b8e613698565b5b5f613b9c85828601613802565b9250506020613bad85828601613b65565b9150509250929050565b5f5f5f60408486031215613bce57613bcd613698565b5b5f613bdb86828701613802565b935050602084013567ffffffffffffffff811115613bfc57613bfb61369c565b5b613c0886828701613a24565b92509250509250925092565b5f5f60408385031215613c2a57613c29613698565b5b5f613c37858286016138af565b9250506020613c4885828601613b65565b9150509250929050565b5f5ffd5b7f4e487b71000000000000000000000000000000000000000000000000000000005f52604160045260245ffd5b613c8c8261377b565b810181811067ffffffffffffffff82111715613cab57613caa613c56565b5b80604052505050565b5f613cbd61368f565b9050613cc98282613c83565b919050565b5f67ffffffffffffffff821115613ce857613ce7613c56565b5b613cf18261377b565b9050602081019050919050565b828183375f83830152505050565b5f613d1e613d1984613cce565b613cb4565b905082815260208101848484011115613d3a57613d39613c52565b5b613d45848285613cfe565b509392505050565b5f82601f830112613d6157613d60613a18565b5b8135613d71848260208601613d0c565b91505092915050565b5f5f5f5f60808587031215613d9257613d91613698565b5b5f613d9f878288016138af565b9450506020613db0878288016138af565b9350506040613dc187828801613802565b925050606085013567ffffffffffffffff811115613de257613de161369c565b5b613dee87828801613d4d565b91505092959194509250565b5f819050919050565b5f613e1d613e18613e1384613841565b613dfa565b613841565b9050919050565b5f613e2e82613e03565b9050919050565b5f613e3f82613e24565b9050919050565b613e4f81613e35565b82525050565b5f602082019050613e685f830184613e46565b92915050565b5f5f60408385031215613e8457613e83613698565b5b5f613e91858286016138af565b9250506020613ea2858286016138af565b9150509250929050565b7f4e487b71000000000000000000000000000000000000000000000000000000005f52602260045260245ffd5b5f6002820490506001821680613ef057607f821691505b602082108103613f0357613f02613eac565b5b50919050565b7f4e487b71000000000000000000000000000000000000000000000000000000005f52601160045260245ffd5b5f613f40826137e3565b91507fffffffffffffffffffffffffffffffffffffffffffffffffffffffffffffffff8203613f7257613f71613f09565b5b600182019050919050565b5f819050815f5260205f209050919050565b5f6020601f8301049050919050565b5f82821b905092915050565b5f60088302613fd97fffffffffffffffffffffffffffffffffffffffffffffffffffffffffffffffff82613f9e565b613fe38683613f9e565b95508019841693508086168417925050509392505050565b5f61401561401061400b846137e3565b613dfa565b6137e3565b9050919050565b5f819050919050565b61402e83613ffb565b61404261403a8261401c565b848454613faa565b825550505050565b5f5f905090565b61405961404a565b614064818484614025565b505050565b5b818110156140875761407c5f82614051565b60018101905061406a565b5050565b601f8211156140cc5761409d81613f7d565b6140a684613f8f565b810160208510156140b5578190505b6140c96140c185613f8f565b830182614069565b50505b505050565b5f82821c905092915050565b5f6140ec5f19846008026140d1565b1980831691505092915050565b5f61410483836140dd565b9150826002028217905092915050565b61411d82613753565b67ffffffffffffffff81111561413657614135613c56565b5b6141408254613ed9565b61414b82828561408b565b5f60209050601f83116001811461417c575f841561416a578287015190505b61417485826140f9565b8655506141db565b601f19841661418a86613f7d565b5f5b828110156141b15784890151825560018201915060208501945060208101905061418c565b868310156141ce57848901516141ca601f8916826140dd565b8355505b6001600288020188555050505b505050505050565b5f815190506141f1816137ec565b92915050565b5f6020828403121561420c5761420b613698565b5b5f614219848285016141e3565b91505092915050565b5f815461422e81613ed9565b614238818661375d565b9450600182165f811461425257600181146142685761429a565b60ff19831686528115156020028601935061429a565b61427185613f7d565b5f5b8381101561429257815481890152600182019150602081019050614273565b808801955050505b50505092915050565b5f6040820190506142b65f830185613ac4565b81810360208301526142c88184614222565b90509392505050565b5f6060820190506142e45f830186613871565b6142f16020830185613901565b6142fe6040830184613871565b949350505050565b5f6040820190506143195f830185613871565b6143266020830184613901565b9392505050565b7f4e487b71000000000000000000000000000000000000000000000000000000005f52603260045260245ffd5b5f82905092915050565b61436e838361435a565b67ffffffffffffffff81111561438757614386613c56565b5b6143918254613ed9565b61439c82828561408b565b5f601f8311600181146143c9575f84156143b7578287013590505b6143c185826140f9565b865550614428565b601f1984166143d786613f7d565b5f5b828110156143fe578489013582556001820191506020850194506020810190506143d9565b8683101561441b5784890135614417601f8916826140dd565b8355505b6001600288020188555050505b50505050505050565b5f61443c838561375d565b9350614449838584613cfe565b6144528361377b565b840190509392505050565b5f6040820190506144705f830186613ac4565b8181036020830152614483818486614431565b9050949350505050565b5f81905092915050565b5f81546144a381613ed9565b6144ad818661448d565b9450600182165f81146144c757600181146144dc5761450e565b60ff198316865281151582028601935061450e565b6144e585613f7d565b5f5b83811015614506578154818901526001820191506020810190506144e7565b838801955050505b50505092915050565b7f2f000000000000000000000000000000000000000000000000000000000000005f82015250565b5f61454b60018361448d565b915061455682614517565b600182019050919050565b5f61456b82613753565b614575818561448d565b935061458581856020860161376d565b80840191505092915050565b7f3f747275737453636f72653d00000000000000000000000000000000000000005f82015250565b5f6145c5600c8361448d565b91506145d082614591565b600c82019050919050565b7f266261646765547970653d0000000000000000000000000000000000000000005f82015250565b5f61460f600b8361448d565b915061461a826145db565b600b82019050919050565b7f2662616467654e616d653d0000000000000000000000000000000000000000005f82015250565b5f614659600b8361448d565b915061466482614625565b600b82019050919050565b7f2662616467654d6573736167653d0000000000000000000000000000000000005f82015250565b5f6146a3600e8361448d565b91506146ae8261466f565b600e82019050919050565b7f266f776e65723d000000000000000000000000000000000000000000000000005f82015250565b5f6146ed60078361448d565b91506146f8826146b9565b600782019050919050565b7f2676657269666965643d000000000000000000000000000000000000000000005f82015250565b5f614737600a8361448d565b915061474282614703565b600a82019050919050565b7f2674696d657374616d703d0000000000000000000000000000000000000000005f82015250565b5f614781600b8361448d565b915061478c8261474d565b600b82019050919050565b5f6147a2828c614497565b91506147ad8261453f565b91506147b9828b614561565b91506147c4826145b9565b91506147d0828a614561565b91506147db82614603565b91506147e78289614561565b91506147f28261464d565b91506147fe8288614561565b915061480982614697565b91506148158287614561565b9150614820826146e1565b915061482c8286614561565b91506148378261472b565b91506148438285614561565b915061484e82614775565b915061485a8284614561565b91508190509a9950505050505050505050565b5f81519050919050565b5f82825260208201905092915050565b5f6148918261486d565b61489b8185614877565b93506148ab81856020860161376d565b6148b48161377b565b840191505092915050565b5f6080820190506148d25f830187613871565b6148df6020830186613871565b6148ec6040830185613901565b81810360608301526148fe8184614887565b905095945050505050565b5f81519050614917816136cb565b92915050565b5f6020828403121561493257614931613698565b5b5f61493f84828501614909565b91505092915050565b7f4e487b71000000000000000000000000000000000000000000000000000000005f52601260045260245ffd5b5f61497f826137e3565b915061498a836137e3565b9250828202614998816137e3565b915082820484148315176149af576149ae613f09565b5b5092915050565b5f6149c0826137e3565b91506149cb836137e3565b92508282019050808211156149e3576149e2613f09565b5b92915050565b5f6149f3826137e3565b91505f8203614a0557614a04613f09565b5b600182039050919050565b5f604082019050614a235f830185613901565b614a306020830184613901565b9392505050565b5f614a41826137e3565b9150614a4c836137e3565b9250828203905081811115614a6457614a63613f09565b5b92915050565b7f4e487b71000000000000000000000000000000000000000000000000000000005f52603160045260245ffdfea2646970667358221220cd4ef4827c110207a383f8ac23f607aa0a76be43c73a9af54a8204d15e05e13164736f6c634300081c0033","linkReferences":{}},"methodIdentifiers":{"approve(address,uint256)":"095ea7b3","balanceOf(address)":"70a08231","getApproved(uint256)":"081812fc","getBadgeData(uint256)":"6e7b1c85","getBadgeTypeRequirement(uint8)":"299caaca","getTierLevel(uint256)":"b7713b7c","getTierName(uint256)":"980eedf0","isApprovedForAll(address,address)":"e985e9c5","lastCustomized(uint256)":"5882810d","lastMinted()":"bbc19ab0","lastTrustScore(uint256)":"1583d94d","metadataServer()":"0f722481","mint()":"1249c58b","mintWithModel(uint8)":"36444621","name()":"06fdde03","owner()":"8da5cb5b","ownerOf(uint256)":"6352211e","refreshTrustScore(uint256)":"1d135a71","renounceOwnership()":"715018a6","safeTransferFrom(address,address,uint256)":"42842e0e","safeTransferFrom(address,address,uint256,bytes)":"b88d4fde","setApprovalForAll(address,bool)":"a22cb465","setBadgeMessage(uint256,string)":"e5779bc8","setBadgeName(uint256,string)":"9e898758","setBadgeType(uint256,uint8)":"17dd4c7a","setBaseURI(string)":"55f804b3","setMetadataServer(string)":"e2728f87","setTrustScoreContract(address)":"a90b6a32","setVerifiedStatus(uint256,bool)":"92cd2e67","supportsInterface(bytes4)":"01ffc9a7","symbol()":"95d89b41","tokenByIndex(uint256)":"4f6ccce7","tokenOfOwnerByIndex(address,uint256)":"2f745c59","tokenURI(uint256)":"c87b56dd","totalSupply()":"18160ddd","transferFrom(address,address,uint256)":"23b872dd","transferOwnership(address)":"f2fde38b","trustScoreContract()":"dc7831fd"},"id":47}