{
  "_format": "hh-sol-artifact-1",
  "contractName": "GraphiteReputationEcosystem",
  "sourceName": "contracts/GraphiteReputationEcosystem.sol",
  "abi": [
    {
      "inputs": [
        {
          "internalType": "address",
          "name": "_airdropFactory",
          "type": "address"
        },
        {
          "internalType": "address",
          "name": "_trustNFT",
          "type": "address"
        },
        {
          "internalType": "address",
          "name": "_trustScoreAdapter",
          "type": "address"
        },
        {
          "internalType": "uint256",
          "name": "_mintCost",
          "type": "uint256"
        }
      ],
      "stateMutability": "nonpayable",
      "type": "constructor"
    },
    {
      "inputs": [],
      "name": "AccountNotActivated",
      "type": "error"
    },
    {
      "inputs": [],
      "name": "ContractCallFailed",
      "type": "error"
    },
    {
      "inputs": [],
      "name": "InsufficientKYCLevel",
      "type": "error"
    },
    {
      "inputs": [],
      "name": "InsufficientMintFee",
      "type": "error"
    },
    {
      "inputs": [],
      "name": "MintingDisabled",
      "type": "error"
    },
    {
      "inputs": [],
      "name": "TransferFailed",
      "type": "error"
    },
    {
      "inputs": [],
      "name": "WithdrawalFailed",
      "type": "error"
    },
    {
      "anonymous": false,
      "inputs": [
        {
          "indexed": true,
          "internalType": "address",
          "name": "user",
          "type": "address"
        }
      ],
      "name": "AccountActivated",
      "type": "event"
    },
    {
      "anonymous": false,
      "inputs": [
        {
          "indexed": true,
          "internalType": "address",
          "name": "user",
          "type": "address"
        },
        {
          "indexed": true,
          "internalType": "address",
          "name": "airdropAddress",
          "type": "address"
        },
        {
          "indexed": false,
          "internalType": "uint256",
          "name": "amount",
          "type": "uint256"
        }
      ],
      "name": "AirdropClaimed",
      "type": "event"
    },
    {
      "anonymous": false,
      "inputs": [
        {
          "indexed": true,
          "internalType": "address",
          "name": "setter",
          "type": "address"
        },
        {
          "indexed": false,
          "internalType": "uint256",
          "name": "newLevel",
          "type": "uint256"
        }
      ],
      "name": "KYCFilterSet",
      "type": "event"
    },
    {
      "anonymous": false,
      "inputs": [
        {
          "indexed": false,
          "internalType": "uint256",
          "name": "newCost",
          "type": "uint256"
        }
      ],
      "name": "MintCostUpdated",
      "type": "event"
    },
    {
      "anonymous": false,
      "inputs": [],
      "name": "MintingDisabledByOwner",
      "type": "event"
    },
    {
      "anonymous": false,
      "inputs": [],
      "name": "MintingEnabledByOwner",
      "type": "event"
    },
    {
      "anonymous": false,
      "inputs": [
        {
          "indexed": true,
          "internalType": "address",
          "name": "user",
          "type": "address"
        },
        {
          "indexed": true,
          "internalType": "uint256",
          "name": "tokenId",
          "type": "uint256"
        },
        {
          "indexed": false,
          "internalType": "uint256",
          "name": "initialScore",
          "type": "uint256"
        }
      ],
      "name": "NFTMinted",
      "type": "event"
    },
    {
      "anonymous": false,
      "inputs": [
        {
          "indexed": true,
          "internalType": "uint256",
          "name": "tokenId",
          "type": "uint256"
        },
        {
          "indexed": false,
          "internalType": "uint256",
          "name": "newScore",
          "type": "uint256"
        }
      ],
      "name": "NFTTrustScoreRefreshed",
      "type": "event"
    },
    {
      "anonymous": false,
      "inputs": [
        {
          "indexed": true,
          "internalType": "address",
          "name": "previousOwner",
          "type": "address"
        },
        {
          "indexed": true,
          "internalType": "address",
          "name": "newOwner",
          "type": "address"
        }
      ],
      "name": "OwnershipTransferred",
      "type": "event"
    },
    {
      "inputs": [],
      "name": "FEE_CONTRACT_ADDRESS",
      "outputs": [
        {
          "internalType": "address",
          "name": "",
          "type": "address"
        }
      ],
      "stateMutability": "view",
      "type": "function"
    },
    {
      "inputs": [],
      "name": "FILTER_CONTRACT_ADDRESS",
      "outputs": [
        {
          "internalType": "address",
          "name": "",
          "type": "address"
        }
      ],
      "stateMutability": "view",
      "type": "function"
    },
    {
      "inputs": [],
      "name": "KYC_CONTRACT_ADDRESS",
      "outputs": [
        {
          "internalType": "address",
          "name": "",
          "type": "address"
        }
      ],
      "stateMutability": "view",
      "type": "function"
    },
    {
      "inputs": [],
      "name": "REPUTATION_CONTRACT_ADDRESS",
      "outputs": [
        {
          "internalType": "address",
          "name": "",
          "type": "address"
        }
      ],
      "stateMutability": "view",
      "type": "function"
    },
    {
      "inputs": [],
      "name": "activateAccount",
      "outputs": [],
      "stateMutability": "payable",
      "type": "function"
    },
    {
      "inputs": [],
      "name": "airdropFactory",
      "outputs": [
        {
          "internalType": "contract GraphiteAirdropFactory",
          "name": "",
          "type": "address"
        }
      ],
      "stateMutability": "view",
      "type": "function"
    },
    {
      "inputs": [
        {
          "internalType": "address",
          "name": "user",
          "type": "address"
        },
        {
          "internalType": "address",
          "name": "airdropAddress",
          "type": "address"
        }
      ],
      "name": "checkAirdropClaimed",
      "outputs": [
        {
          "internalType": "bool",
          "name": "hasClaimedAirdrop",
          "type": "bool"
        }
      ],
      "stateMutability": "view",
      "type": "function"
    },
    {
      "inputs": [
        {
          "internalType": "address",
          "name": "airdropAddress",
          "type": "address"
        },
        {
          "internalType": "bytes32[]",
          "name": "merkleProof",
          "type": "bytes32[]"
        },
        {
          "internalType": "uint256",
          "name": "amount",
          "type": "uint256"
        }
      ],
      "name": "claimAirdrop",
      "outputs": [],
      "stateMutability": "nonpayable",
      "type": "function"
    },
    {
      "inputs": [],
      "name": "feeContract",
      "outputs": [
        {
          "internalType": "contract IGraphiteFee",
          "name": "",
          "type": "address"
        }
      ],
      "stateMutability": "view",
      "type": "function"
    },
    {
      "inputs": [],
      "name": "filterContract",
      "outputs": [
        {
          "internalType": "contract IGraphiteFilter",
          "name": "",
          "type": "address"
        }
      ],
      "stateMutability": "view",
      "type": "function"
    },
    {
      "inputs": [
        {
          "internalType": "address",
          "name": "user",
          "type": "address"
        }
      ],
      "name": "getKYCLevel",
      "outputs": [
        {
          "internalType": "uint256",
          "name": "kyc",
          "type": "uint256"
        }
      ],
      "stateMutability": "view",
      "type": "function"
    },
    {
      "inputs": [
        {
          "internalType": "address",
          "name": "user",
          "type": "address"
        }
      ],
      "name": "getReputationScore",
      "outputs": [
        {
          "internalType": "uint256",
          "name": "score",
          "type": "uint256"
        }
      ],
      "stateMutability": "view",
      "type": "function"
    },
    {
      "inputs": [
        {
          "internalType": "address",
          "name": "user",
          "type": "address"
        },
        {
          "internalType": "address",
          "name": "airdropAddress",
          "type": "address"
        }
      ],
      "name": "getUserDetails",
      "outputs": [
        {
          "internalType": "uint256",
          "name": "trustScore",
          "type": "uint256"
        },
        {
          "internalType": "string",
          "name": "trustTier",
          "type": "string"
        },
        {
          "internalType": "uint256",
          "name": "tierLevel",
          "type": "uint256"
        },
        {
          "internalType": "bool",
          "name": "eligibleForAirdrop",
          "type": "bool"
        },
        {
          "internalType": "bool",
          "name": "hasClaimedAirdrop",
          "type": "bool"
        },
        {
          "internalType": "uint256",
          "name": "reputationScore",
          "type": "uint256"
        },
        {
          "internalType": "bool",
          "name": "isActivated",
          "type": "bool"
        },
        {
          "internalType": "uint256",
          "name": "kycLevel",
          "type": "uint256"
        },
        {
          "internalType": "uint256",
          "name": "kycFilterLevel",
          "type": "uint256"
        }
      ],
      "stateMutability": "view",
      "type": "function"
    },
    {
      "inputs": [
        {
          "internalType": "address",
          "name": "sender",
          "type": "address"
        },
        {
          "internalType": "address",
          "name": "recipient",
          "type": "address"
        }
      ],
      "name": "isTransactionAllowed",
      "outputs": [
        {
          "internalType": "bool",
          "name": "allowed",
          "type": "bool"
        }
      ],
      "stateMutability": "view",
      "type": "function"
    },
    {
      "inputs": [],
      "name": "kycContract",
      "outputs": [
        {
          "internalType": "contract IGraphiteKYC",
          "name": "",
          "type": "address"
        }
      ],
      "stateMutability": "view",
      "type": "function"
    },
    {
      "inputs": [],
      "name": "mintCost",
      "outputs": [
        {
          "internalType": "uint256",
          "name": "",
          "type": "uint256"
        }
      ],
      "stateMutability": "view",
      "type": "function"
    },
    {
      "inputs": [],
      "name": "mintNFT",
      "outputs": [],
      "stateMutability": "payable",
      "type": "function"
    },
    {
      "inputs": [],
      "name": "mintingEnabled",
      "outputs": [
        {
          "internalType": "bool",
          "name": "",
          "type": "bool"
        }
      ],
      "stateMutability": "view",
      "type": "function"
    },
    {
      "inputs": [],
      "name": "owner",
      "outputs": [
        {
          "internalType": "address",
          "name": "",
          "type": "address"
        }
      ],
      "stateMutability": "view",
      "type": "function"
    },
    {
      "inputs": [
        {
          "internalType": "uint256",
          "name": "tokenId",
          "type": "uint256"
        }
      ],
      "name": "refreshNFTTrustScore",
      "outputs": [],
      "stateMutability": "nonpayable",
      "type": "function"
    },
    {
      "inputs": [],
      "name": "renounceOwnership",
      "outputs": [],
      "stateMutability": "nonpayable",
      "type": "function"
    },
    {
      "inputs": [],
      "name": "reputationContract",
      "outputs": [
        {
          "internalType": "contract IGraphiteReputation",
          "name": "",
          "type": "address"
        }
      ],
      "stateMutability": "view",
      "type": "function"
    },
    {
      "inputs": [
        {
          "internalType": "uint256",
          "name": "level",
          "type": "uint256"
        }
      ],
      "name": "setKYCFilter",
      "outputs": [],
      "stateMutability": "nonpayable",
      "type": "function"
    },
    {
      "inputs": [
        {
          "internalType": "uint256",
          "name": "_mintCost",
          "type": "uint256"
        }
      ],
      "name": "setMintCost",
      "outputs": [],
      "stateMutability": "nonpayable",
      "type": "function"
    },
    {
      "inputs": [],
      "name": "toggleMinting",
      "outputs": [],
      "stateMutability": "nonpayable",
      "type": "function"
    },
    {
      "inputs": [
        {
          "internalType": "address",
          "name": "newOwner",
          "type": "address"
        }
      ],
      "name": "transferOwnership",
      "outputs": [],
      "stateMutability": "nonpayable",
      "type": "function"
    },
    {
      "inputs": [],
      "name": "trustNFT",
      "outputs": [
        {
          "internalType": "contract GraphiteTrustNFT",
          "name": "",
          "type": "address"
        }
      ],
      "stateMutability": "view",
      "type": "function"
    },
    {
      "inputs": [],
      "name": "trustScoreContract",
      "outputs": [
        {
          "internalType": "contract IGraphiteTrustScore",
          "name": "",
          "type": "address"
        }
      ],
      "stateMutability": "view",
      "type": "function"
    },
    {
      "inputs": [],
      "name": "withdraw",
      "outputs": [],
      "stateMutability": "nonpayable",
      "type": "function"
    }
  ],
  "bytecode": "0x60806040526009805460ff191660011790553480156200001e57600080fd5b5060405162001c6d38038062001c6d833981016040819052620000419162000135565b6200004c33620000c8565b600180546001600160a01b039586166001600160a01b03199182161790915560028054948616948216949094179093556003805492909416918316919091179092556005805482166110021790556004805482166110001790556006805482166110081790556007805490911661100117905560085562000187565b600080546001600160a01b038381166001600160a01b0319831681178455604051919092169283917f8be0079c531659141344cd1fd0a4f28419497f9722a3daafe3b4186f6b6457e09190a35050565b80516001600160a01b03811681146200013057600080fd5b919050565b600080600080608085870312156200014c57600080fd5b620001578562000118565b9350620001676020860162000118565b9250620001776040860162000118565b6060959095015193969295505050565b611ad680620001976000396000f3fe6080604052600436106101c25760003560e01c80638545f4ea116100f7578063b8e70b9811610095578063dc7831fd11610064578063dc7831fd146104b8578063e1e63029146104d8578063e3ab97e1146104f8578063f2fde38b1461050e57600080fd5b8063b8e70b9814610437578063bdb4b8481461044d578063c484899514610463578063d9755bf81461049857600080fd5b806396e3dad6116100d157806396e3dad6146103bd57806399c532e3146103dd5780639fd6db12146103fd578063a110fce61461041757600080fd5b80638545f4ea1461035f57806387bc14251461037f5780638da5cb5b1461039f57600080fd5b80636d3123eb1161016457806375a67d5c1161013e57806375a67d5c146102dc5780637d55094d1461030a5780638105f0aa1461031f578063847a18bb1461033f57600080fd5b80636d3123eb1461029f5780636f26f7d8146102bf578063715018a6146102c757600080fd5b80632bd7509c116101a05780632bd7509c1461023e5780633ccfd60b146102545780634df4ebd81461026957806359703bdc1461027f57600080fd5b806306e29712146101c757806314373e571461020457806314f710fe14610234575b600080fd5b3480156101d357600080fd5b506004546101e7906001600160a01b031681565b6040516001600160a01b0390911681526020015b60405180910390f35b34801561021057600080fd5b5061022461021f36600461179e565b61052e565b60405190151581526020016101fb565b61023c6105ae565b005b34801561024a57600080fd5b506101e761100181565b34801561026057600080fd5b5061023c61099d565b34801561027557600080fd5b506101e761100281565b34801561028b57600080fd5b5061022461029a36600461179e565b610a2b565b3480156102ab57600080fd5b506007546101e7906001600160a01b031681565b61023c610ab8565b3480156102d357600080fd5b5061023c610b5a565b3480156102e857600080fd5b506102fc6102f73660046117d1565b610b6c565b6040519081526020016101fb565b34801561031657600080fd5b5061023c610bdc565b34801561032b57600080fd5b5061023c61033a3660046117ec565b610c55565b34801561034b57600080fd5b506005546101e7906001600160a01b031681565b34801561036b57600080fd5b5061023c61037a3660046117ec565b610ef5565b34801561038b57600080fd5b506006546101e7906001600160a01b031681565b3480156103ab57600080fd5b506000546001600160a01b03166101e7565b3480156103c957600080fd5b506102fc6103d83660046117d1565b610f38565b3480156103e957600080fd5b506001546101e7906001600160a01b031681565b34801561040957600080fd5b506009546102249060ff1681565b34801561042357600080fd5b506002546101e7906001600160a01b031681565b34801561044357600080fd5b506101e761100881565b34801561045957600080fd5b506102fc60085481565b34801561046f57600080fd5b5061048361047e36600461179e565b610f6b565b6040516101fb99989796959493929190611835565b3480156104a457600080fd5b5061023c6104b33660046117ec565b611385565b3480156104c457600080fd5b506003546101e7906001600160a01b031681565b3480156104e457600080fd5b5061023c6104f33660046118a6565b611423565b34801561050457600080fd5b506101e761100081565b34801561051a57600080fd5b5061023c6105293660046117d1565b61165a565b6005546040516370c8bfed60e11b81526001600160a01b0384811660048301528381166024830152600092169063e1917fda90604401602060405180830381865afa158015610581573d6000803e3d6000fd5b505050506040513d601f19601f820116820180604052508101906105a59190611932565b90505b92915050565b60095460ff166105d15760405163af79b43760e01b815260040160405180910390fd5b6008543410156105f357604051623d6c2560e81b815260040160405180910390fd5b6004805460405163591a726f60e01b815233928101929092526001600160a01b03169063591a726f90602401602060405180830381865afa15801561063c573d6000803e3d6000fd5b505050506040513d601f19601f820116820180604052508101906106609190611932565b61067d5760405163125d8e2160e01b815260040160405180910390fd5b600560009054906101000a90046001600160a01b03166001600160a01b0316632cea83916040518163ffffffff1660e01b8152600401602060405180830381865afa1580156106d0573d6000803e3d6000fd5b505050506040513d601f19601f820116820180604052508101906106f4919061195b565b600754604051636a0db6db60e11b81523360048201526001600160a01b039091169063d41b6db690602401602060405180830381865afa15801561073c573d6000803e3d6000fd5b505050506040513d601f19601f82011682018060405250810190610760919061195b565b101561077f57604051631742b65560e01b815260040160405180910390fd5b6002546040516335313c2160e11b81523360048201526001600160a01b0390911690636a6278429060009060240160206040518083038185885af11580156107cb573d6000803e3d6000fd5b50505050506040513d601f19601f820116820180604052508101906107f0919061195b565b50600254604080516318160ddd60e01b815290516000926001600160a01b0316916318160ddd9160048083019260209291908290030181865afa15801561083b573d6000803e3d6000fd5b505050506040513d601f19601f8201168201806040525081019061085f919061195b565b600254604051631583d94d60e01b8152600481018390529192506000916001600160a01b0390911690631583d94d90602401602060405180830381865afa1580156108ae573d6000803e3d6000fd5b505050506040513d601f19601f820116820180604052508101906108d2919061195b565b905081336001600160a01b03167f3a8a89b59a31c39a36febecb987e0657ab7b7c73b60ebacb44dcb9886c2d5c8a8360405161091091815260200190565b60405180910390a36008543411156109995760085460009033906109349034611974565b604051600081818185875af1925050503d8060008114610970576040519150601f19603f3d011682016040523d82523d6000602084013e610975565b606091505b5050905080610997576040516312171d8360e31b815260040160405180910390fd5b505b5050565b6109a56116d8565b4760006109ba6000546001600160a01b031690565b6001600160a01b03168260405160006040518083038185875af1925050503d8060008114610a04576040519150601f19603f3d011682016040523d82523d6000602084013e610a09565b606091505b5050905080610999576040516327fcd9d160e01b815260040160405180910390fd5b60006001600160a01b038216610a43575060006105a8565b6040516339d9740760e11b81526001600160a01b0384811660048301528391908216906373b2e80e90602401602060405180830381865afa158015610a8c573d6000803e3d6000fd5b505050506040513d601f19601f82011682018060405250810190610ab09190611932565b949350505050565b60048054604080516303724cb760e31b815290516001600160a01b0390921692631b9265b8923492808301926000929182900301818588803b158015610afd57600080fd5b505af193505050508015610b0f575060015b610b2c5760405163024d9cdb60e01b815260040160405180910390fd5b60405133907fcfacdcf9289f1b69c533dda67fc14bae036114cd912d8f9fa9676e95d4ec028490600090a25b565b610b626116d8565b610b586000611732565b600654604051634e44d07160e11b81526001600160a01b0383811660048301526000921690639c89a0e2906024015b602060405180830381865afa158015610bb8573d6000803e3d6000fd5b505050506040513d601f19601f820116820180604052508101906105a8919061195b565b610be46116d8565b6009805460ff19811660ff918216159081179092551615610c2a576040517ff3c887954a169a1c286cd5cf6744318dc74397aab573aaf04ef41a36221759aa90600090a1565b6040517fa3cfcbe3b2106c5552de2deb8ed062c8ca1da762c77f125fa86efd704eedbc4090600090a1565b6004805460405163591a726f60e01b815233928101929092526001600160a01b03169063591a726f90602401602060405180830381865afa158015610c9e573d6000803e3d6000fd5b505050506040513d601f19601f82011682018060405250810190610cc29190611932565b610cdf5760405163125d8e2160e01b815260040160405180910390fd5b600560009054906101000a90046001600160a01b03166001600160a01b0316632cea83916040518163ffffffff1660e01b8152600401602060405180830381865afa158015610d32573d6000803e3d6000fd5b505050506040513d601f19601f82011682018060405250810190610d56919061195b565b600754604051636a0db6db60e11b81523360048201526001600160a01b039091169063d41b6db690602401602060405180830381865afa158015610d9e573d6000803e3d6000fd5b505050506040513d601f19601f82011682018060405250810190610dc2919061195b565b1015610de157604051631742b65560e01b815260040160405180910390fd5b600254604051633d12ab9360e21b8152600481018390523360248201526001600160a01b039091169063f44aae4c90604401600060405180830381600087803b158015610e2d57600080fd5b505af1158015610e41573d6000803e3d6000fd5b5050600254604051631583d94d60e01b815260048101859052600093506001600160a01b039091169150631583d94d90602401602060405180830381865afa158015610e91573d6000803e3d6000fd5b505050506040513d601f19601f82011682018060405250810190610eb5919061195b565b9050817fca6816a2bcd49c263456086b0d71af25eb65811e91da79a69a426faa9e25146d82604051610ee991815260200190565b60405180910390a25050565b610efd6116d8565b60088190556040518181527fde03a6195f6a732ff0af69781292526beecc585b4278fa1baa4d9dd578f88a5c9060200160405180910390a150565b600754604051636a0db6db60e11b81526001600160a01b038381166004830152600092169063d41b6db690602401610b9b565b600354604051635e09eea160e01b81526001600160a01b038481166004830152600092606092849283928392839283928392839290911690635e09eea190602401602060405180830381865afa158015610fc9573d6000803e3d6000fd5b505050506040513d601f19601f82011682018060405250810190610fed919061195b565b600254604051630980eedf60e41b815260048101839052919a506001600160a01b03169063980eedf090602401600060405180830381865afa158015611037573d6000803e3d6000fd5b505050506040513d6000823e601f3d908101601f1916820160405261105f91908101906119af565b600254604051632ddc4edf60e21b8152600481018c90529199506001600160a01b03169063b7713b7c90602401602060405180830381865afa1580156110a9573d6000803e3d6000fd5b505050506040513d601f19601f820116820180604052508101906110cd919061195b565b600654604051634e44d07160e11b81526001600160a01b038e81166004830152929950911690639c89a0e290602401602060405180830381865afa158015611119573d6000803e3d6000fd5b505050506040513d601f19601f8201168201806040525081019061113d919061195b565b6004805460405163591a726f60e01b81526001600160a01b038f811693820193909352929650169063591a726f90602401602060405180830381865afa15801561118b573d6000803e3d6000fd5b505050506040513d601f19601f820116820180604052508101906111af9190611932565b600754604051636a0db6db60e11b81526001600160a01b038e8116600483015292955091169063d41b6db690602401602060405180830381865afa1580156111fb573d6000803e3d6000fd5b505050506040513d601f19601f8201168201806040525081019061121f919061195b565b6040516366e305fd60e01b81526001600160a01b038d811660048301529193508b918216906366e305fd90602401602060405180830381865afa15801561126a573d6000803e3d6000fd5b505050506040513d601f19601f8201168201806040525081019061128e9190611932565b6040516339d9740760e11b81526001600160a01b038e81166004830152919850908216906373b2e80e90602401602060405180830381865afa1580156112d8573d6000803e3d6000fd5b505050506040513d601f19601f820116820180604052508101906112fc9190611932565b9550600560009054906101000a90046001600160a01b03166001600160a01b0316632cea83916040518163ffffffff1660e01b8152600401602060405180830381865afa158015611351573d6000803e3d6000fd5b505050506040513d601f19601f82011682018060405250810190611375919061195b565b9150509295985092959850929598565b61138d6116d8565b600554604051630d1a23b960e41b8152600481018390526001600160a01b039091169063d1a23b9090602401600060405180830381600087803b1580156113d357600080fd5b505af11580156113e7573d6000803e3d6000fd5b50506040518381523392507f2124979595d2635ae7ca6bc8bb0879a95535de7febd10f8692fb79a42375fc8c915060200160405180910390a250565b6004805460405163591a726f60e01b815233928101929092526001600160a01b03169063591a726f90602401602060405180830381865afa15801561146c573d6000803e3d6000fd5b505050506040513d601f19601f820116820180604052508101906114909190611932565b6114ad5760405163125d8e2160e01b815260040160405180910390fd5b600560009054906101000a90046001600160a01b03166001600160a01b0316632cea83916040518163ffffffff1660e01b8152600401602060405180830381865afa158015611500573d6000803e3d6000fd5b505050506040513d601f19601f82011682018060405250810190611524919061195b565b600754604051636a0db6db60e11b81523360048201526001600160a01b039091169063d41b6db690602401602060405180830381865afa15801561156c573d6000803e3d6000fd5b505050506040513d601f19601f82011682018060405250810190611590919061195b565b10156115af57604051631742b65560e01b815260040160405180910390fd5b604051632f52ebb760e01b815284906001600160a01b03821690632f52ebb7906115e190859088908890600401611a5c565b600060405180830381600087803b1580156115fb57600080fd5b505af115801561160f573d6000803e3d6000fd5b50506040518481526001600160a01b03881692503391507fb0a0840c7bb9b6ecca130f40e5b8f2158da27eb5c5c9432c8f424a520c8b55d19060200160405180910390a35050505050565b6116626116d8565b6001600160a01b0381166116cc5760405162461bcd60e51b815260206004820152602660248201527f4f776e61626c653a206e6577206f776e657220697320746865207a65726f206160448201526564647265737360d01b60648201526084015b60405180910390fd5b6116d581611732565b50565b6000546001600160a01b03163314610b585760405162461bcd60e51b815260206004820181905260248201527f4f776e61626c653a2063616c6c6572206973206e6f7420746865206f776e657260448201526064016116c3565b600080546001600160a01b038381166001600160a01b0319831681178455604051919092169283917f8be0079c531659141344cd1fd0a4f28419497f9722a3daafe3b4186f6b6457e09190a35050565b80356001600160a01b038116811461179957600080fd5b919050565b600080604083850312156117b157600080fd5b6117ba83611782565b91506117c860208401611782565b90509250929050565b6000602082840312156117e357600080fd5b6105a582611782565b6000602082840312156117fe57600080fd5b5035919050565b60005b83811015611820578181015183820152602001611808565b8381111561182f576000848401525b50505050565b60006101208b83528060208401528a518082850152610140915061185f8183860160208f01611805565b604084019a909a52971515606083015250941515608086015260a085019390935290151560c084015260e0830152610100820152601f909201601f19169091010192915050565b600080600080606085870312156118bc57600080fd5b6118c585611782565b9350602085013567ffffffffffffffff808211156118e257600080fd5b818701915087601f8301126118f657600080fd5b81358181111561190557600080fd5b8860208260051b850101111561191a57600080fd5b95986020929092019750949560400135945092505050565b60006020828403121561194457600080fd5b8151801515811461195457600080fd5b9392505050565b60006020828403121561196d57600080fd5b5051919050565b60008282101561199457634e487b7160e01b600052601160045260246000fd5b500390565b634e487b7160e01b600052604160045260246000fd5b6000602082840312156119c157600080fd5b815167ffffffffffffffff808211156119d957600080fd5b818401915084601f8301126119ed57600080fd5b8151818111156119ff576119ff611999565b604051601f8201601f19908116603f01168101908382118183101715611a2757611a27611999565b81604052828152876020848701011115611a4057600080fd5b611a51836020830160208801611805565b979650505050505050565b838152604060208201819052810182905260006001600160fb1b03831115611a8357600080fd5b8260051b808560608501376000920160600191825250939250505056fea264697066735822122035b4937769d794463ff72d7b37c0629c00248881a1a17e86c2098bd20421079d64736f6c634300080d0033",
  "linkReferences": {},
  "deployedLinkReferences": {}
}