{
  "_format": "hh-sol-artifact-1",
  "contractName": "GraphiteVoteFactory",
  "sourceName": "contracts/GraphiteVoteFactory.sol",
  "abi": [
    {
      "inputs": [
        {
          "internalType": "address",
          "name": "_trustScoreContractAddress",
          "type": "address"
        }
      ],
      "stateMutability": "nonpayable",
      "type": "constructor"
    },
    {
      "inputs": [],
      "name": "CreatorInsufficientKYC",
      "type": "error"
    },
    {
      "inputs": [],
      "name": "CreatorNotActivated",
      "type": "error"
    },
    {
      "inputs": [],
      "name": "InvalidOptions",
      "type": "error"
    },
    {
      "inputs": [],
      "name": "InvalidTimeSettings",
      "type": "error"
    },
    {
      "inputs": [],
      "name": "InvalidTrustScoreContract",
      "type": "error"
    },
    {
      "anonymous": false,
      "inputs": [
        {
          "indexed": true,
          "internalType": "address",
          "name": "previousOwner",
          "type": "address"
        },
        {
          "indexed": true,
          "internalType": "address",
          "name": "newOwner",
          "type": "address"
        }
      ],
      "name": "OwnershipTransferred",
      "type": "event"
    },
    {
      "anonymous": false,
      "inputs": [
        {
          "indexed": true,
          "internalType": "address",
          "name": "creator",
          "type": "address"
        },
        {
          "indexed": true,
          "internalType": "address",
          "name": "voteContract",
          "type": "address"
        },
        {
          "indexed": false,
          "internalType": "string",
          "name": "description",
          "type": "string"
        },
        {
          "indexed": false,
          "internalType": "uint256",
          "name": "requiredTrustScore",
          "type": "uint256"
        },
        {
          "indexed": false,
          "internalType": "uint256",
          "name": "requiredKYCLevelForVoter",
          "type": "uint256"
        }
      ],
      "name": "VoteCreated",
      "type": "event"
    },
    {
      "inputs": [
        {
          "internalType": "string",
          "name": "description",
          "type": "string"
        },
        {
          "internalType": "string[]",
          "name": "options",
          "type": "string[]"
        },
        {
          "internalType": "uint256",
          "name": "startTime",
          "type": "uint256"
        },
        {
          "internalType": "uint256",
          "name": "endTime",
          "type": "uint256"
        },
        {
          "internalType": "address",
          "name": "requiredTokenAddress",
          "type": "address"
        },
        {
          "internalType": "uint256",
          "name": "requiredTokenBalance",
          "type": "uint256"
        },
        {
          "internalType": "uint256",
          "name": "requiredTrustScoreForVoter",
          "type": "uint256"
        },
        {
          "internalType": "uint256",
          "name": "requiredKYCLevelForVoter",
          "type": "uint256"
        }
      ],
      "name": "createVote",
      "outputs": [
        {
          "internalType": "address",
          "name": "voteContractAddress",
          "type": "address"
        }
      ],
      "stateMutability": "nonpayable",
      "type": "function"
    },
    {
      "inputs": [],
      "name": "creatorMinimumKYCLevel",
      "outputs": [
        {
          "internalType": "uint256",
          "name": "",
          "type": "uint256"
        }
      ],
      "stateMutability": "view",
      "type": "function"
    },
    {
      "inputs": [],
      "name": "feeContract",
      "outputs": [
        {
          "internalType": "contract IGraphiteFee",
          "name": "",
          "type": "address"
        }
      ],
      "stateMutability": "view",
      "type": "function"
    },
    {
      "inputs": [
        {
          "internalType": "uint256",
          "name": "index",
          "type": "uint256"
        }
      ],
      "name": "getVoteContractAtIndex",
      "outputs": [
        {
          "internalType": "address",
          "name": "",
          "type": "address"
        }
      ],
      "stateMutability": "view",
      "type": "function"
    },
    {
      "inputs": [],
      "name": "getVoteContractsCount",
      "outputs": [
        {
          "internalType": "uint256",
          "name": "",
          "type": "uint256"
        }
      ],
      "stateMutability": "view",
      "type": "function"
    },
    {
      "inputs": [],
      "name": "kycContract",
      "outputs": [
        {
          "internalType": "contract IGraphiteKYC",
          "name": "",
          "type": "address"
        }
      ],
      "stateMutability": "view",
      "type": "function"
    },
    {
      "inputs": [],
      "name": "owner",
      "outputs": [
        {
          "internalType": "address",
          "name": "",
          "type": "address"
        }
      ],
      "stateMutability": "view",
      "type": "function"
    },
    {
      "inputs": [],
      "name": "renounceOwnership",
      "outputs": [],
      "stateMutability": "nonpayable",
      "type": "function"
    },
    {
      "inputs": [
        {
          "internalType": "uint256",
          "name": "_level",
          "type": "uint256"
        }
      ],
      "name": "setCreatorMinimumKYCLevel",
      "outputs": [],
      "stateMutability": "nonpayable",
      "type": "function"
    },
    {
      "inputs": [
        {
          "internalType": "address",
          "name": "newOwner",
          "type": "address"
        }
      ],
      "name": "transferOwnership",
      "outputs": [],
      "stateMutability": "nonpayable",
      "type": "function"
    },
    {
      "inputs": [],
      "name": "trustScoreContractAddress",
      "outputs": [
        {
          "internalType": "address",
          "name": "",
          "type": "address"
        }
      ],
      "stateMutability": "view",
      "type": "function"
    },
    {
      "inputs": [
        {
          "internalType": "uint256",
          "name": "",
          "type": "uint256"
        }
      ],
      "name": "voteContracts",
      "outputs": [
        {
          "internalType": "address",
          "name": "",
          "type": "address"
        }
      ],
      "stateMutability": "view",
      "type": "function"
    }
  ],
  "bytecode": "0x60a03461007757601f612bf838819003918201601f19168301916001600160401b0383118484101761007c5780849260209460405283398101031261007757516001600160a01b03811681036100775761005890610092565b604051612adc908161011c823960805181818161047b015261095a0152f35b600080fd5b634e487b7160e01b600052604160045260246000fd5b61009b336100cf565b6001600160a01b038116156100bd5760805260016002556100bb336100cf565b565b60405163de23915760e01b8152600490fd5b600080546001600160a01b039283166001600160a01b03198216811783556040519093909116917f8be0079c531659141344cd1fd0a4f28419497f9722a3daafe3b4186f6b6457e091a356fe6080604052600436101562000014575b600080fd5b60003560e01c806306e29712146200012657806315f90a60146200011b57806324cf9db114620001105780633a69a5fd14620001055780635f6f0b3214620000fa5780636d3123eb14620000ef578063715018a614620000e45780638da5cb5b14620000d95780639d6eaa0814620000ce578063c4ff558a14620000c3578063f070a4d614620000b85763f2fde38b14620000ae57600080fd5b6200000f620004aa565b506200000f62000462565b506200000f620003a7565b506200000f620002ed565b506200000f620002c1565b506200000f6200025b565b506200000f6200023b565b506200000f6200021a565b506200000f620001f4565b506200000f620001d3565b506200000f62000174565b506200000f6200013d565b60009103126200000f57565b50346200000f5760003660031901126200000f5760206040516110008152f35b50634e487b7160e01b600052603260045260246000fd5b50346200000f5760203660031901126200000f576004356001548110156200000f5760016000527fb10e2d527612073b26eecdfd717e6a320cf44b4afac2b0732d9fcbe2b7fa0cf601546040516001600160a01b039091168152602090f35b50346200000f5760003660031901126200000f576020600154604051908152f35b50346200000f5760203660031901126200000f576200021262000544565b600435600255005b50346200000f5760003660031901126200000f576020600254604051908152f35b50346200000f5760003660031901126200000f5760206040516110018152f35b50346200000f57600080600319360112620002be576200027a62000544565b80546001600160a01b0319811682556040519082906001600160a01b03167f8be0079c531659141344cd1fd0a4f28419497f9722a3daafe3b4186f6b6457e08284a3f35b80fd5b50346200000f5760003660031901126200000f576000546040516001600160a01b039091168152602090f35b50346200000f5760203660031901126200000f5760206004356001548110156200034c575b60016000527fb10e2d527612073b26eecdfd717e6a320cf44b4afac2b0732d9fcbe2b7fa0cf601546040516001600160a01b039091168152f35b620003566200015d565b62000312565b9181601f840112156200000f5782359167ffffffffffffffff83116200000f576020808501948460051b0101116200000f57565b608435906001600160a01b03821682036200000f57565b50346200000f576101003660031901126200000f5760043567ffffffffffffffff8082116200000f57366023830112156200000f578160040135918183116200000f5736602484830101116200000f576024359182116200000f576200045e926200041b620004449336906004016200035c565b916200042662000390565b9060e4359460c4359460a4359460643593602460443594016200087f565b6040516001600160a01b0390911681529081906020820190565b0390f35b50346200000f5760003660031901126200000f576040517f00000000000000000000000000000000000000000000000000000000000000006001600160a01b03168152602090f35b50346200000f5760203660031901126200000f576004356001600160a01b0381168082036200000f57620004dd62000544565b15620004f057620004ee906200059d565b005b60405162461bcd60e51b815260206004820152602660248201527f4f776e61626c653a206e6577206f776e657220697320746865207a65726f206160448201526564647265737360d01b6064820152608490fd5b6000546001600160a01b031633036200055957565b606460405162461bcd60e51b815260206004820152602060248201527f4f776e61626c653a2063616c6c6572206973206e6f7420746865206f776e65726044820152fd5b600080546001600160a01b039283166001600160a01b03198216811783556040519093909116917f8be0079c531659141344cd1fd0a4f28419497f9722a3daafe3b4186f6b6457e091a3565b50634e487b7160e01b600052604160045260246000fd5b67ffffffffffffffff81116200061557604052565b6200061f620005e9565b604052565b90601f8019910116810190811067ffffffffffffffff8211176200061557604052565b908160209103126200000f575180151581036200000f5790565b506040513d6000823e3d90fd5b908160209103126200000f575190565b908060209392818452848401376000828201840152601f01601f1916010190565b999795939190620006c0919d9c9b9997959d610180808d528c01916200067e565b9060208a8303818c015281835280830192818360051b8201019480946000925b85841062000767575050505050505092620007236101609795936200074393620007659b9a98969d60408a01526060890152608088019060018060a01b03169052565b61100160a087015261100060c08701526001600160a01b031660e0860152565b6101008401526101208301526101408201526001600160a01b03909216910152565b565b90919293949596601f198282030183528735601e19853603018112156200000f57840190813567ffffffffffffffff81116200000f5780360386136200000f57620007ba8892839283600196016200067e565b990193019401929195949390620006e0565b6001546801000000000000000081101562000849575b600181018060015581101562000839575b60016000527fb10e2d527612073b26eecdfd717e6a320cf44b4afac2b0732d9fcbe2b7fa0cf60180546001600160a01b0319166001600160a01b03909216919091179055565b620008436200015d565b620007f3565b62000853620005e9565b620007e2565b906200087590604093969594966060845260608401916200067e565b9460208201520152565b6040805163591a726f60e01b8152336004808301919091529b9a92999198929793969594919390808060245a92611000602094fa90811562000b30575b60009162000afa575b501562000aea578851636a0db6db60e11b815233818e0190815260209082908190830103816110015afa90811562000ada575b60009162000aa4575b506002541162000a9457841562000a8457808610158062000a7a575b62000a6a5762000980938a938c938a938c51998a99611f6693848c01948c861067ffffffffffffffff87111762000a5a575b62000b418d398d339a7f0000000000000000000000000000000000000000000000000000000000000000966200069f565b03906000f0801562000a4a575b6001600160a01b031695863b156200000f57835163f2fde38b60e01b81523391810191825287967f2dbdf5341bce212ac1e9225bf6a0430681334be4d26b3301e00ea377498347249562000a169391929091600090829081906020010381838d5af1801562000a3a575b62000a1c575b5062000a0988620007cc565b5193849333978562000859565b0390a390565b8062000a2c62000a339262000600565b8062000131565b38620009fd565b62000a4462000661565b620009f7565b62000a5462000661565b6200098d565b62000a64620005e9565b6200094f565b885163afe905a360e01b81528c90fd5b508015156200091d565b8851630280f17760e01b81528c90fd5b8851633a08f6ff60e11b81528c90fd5b62000acb915060203d60201162000ad2575b62000ac2818362000624565b8101906200066e565b3862000901565b503d62000ab6565b62000ae462000661565b620008f8565b885163084b91fd60e41b81528c90fd5b62000b21915060203d60201162000b28575b62000b18818362000624565b81019062000647565b38620008c5565b503d62000b0c565b62000b3a62000661565b620008bc56fe6101c0604052346200014e576200002f62000019620002e1565b9a99909998919897929796939695949562000792565b6040516116569081620008f0823960805181818161023d015281816108b00152610f55015260a051818181610264015281816105c50152611261015260c051818181610a6e01528181610d220152818161108901526113ca015260e05181818161066201528181610c9f0152818161100c01526113700152610100518181816103b001528181610c3c01528181610fb0015261131401526101205181818161090901528181610d7d015281816110e501526114040152610140518181816101f701528181610dea01528181611150015261151101526101605181818161060101528181610d57015281816110bf01526114bf01526101805181818161099a01528181610cd401528181611042015261149601526101a05181610a280152f35b600080fd5b50634e487b7160e01b600052604160045260246000fd5b6040519190601f01601f191682016001600160401b038111838210176200019057604052565b6200019a62000153565b604052565b81601f820112156200014e578051906001600160401b03821162000223575b602090620001d5601f8401601f191683016200016a565b938385528284830101116200014e5782906000905b838383106200020a575050116200020057505090565b6000918301015290565b81935082819392010151828288010152018391620001ea565b6200022d62000153565b620001be565b81601f820112156200014e578051916001600160401b0391828411620002bc575b8360051b60209384806200026a8185016200016a565b809881520192840101938085116200014e57858401925b85841062000293575050505050505090565b83518381116200014e578791620002b0848480948a01016200019f565b81520193019262000281565b620002c662000153565b62000254565b51906001600160a01b03821682036200014e57565b62001f669081380380620002f5816200016a565b938439820190610180838303126200014e5782516001600160401b03908181116200014e5783620003289186016200019f565b9260208501519182116200014e576200034391850162000233565b926040810151926060820151926200035e60808401620002cc565b926200036d60a08201620002cc565b926200037c60c08301620002cc565b926200038b60e08401620002cc565b926101008101519261012082015192620003af6101606101408501519401620002cc565b919b9a99989796959493929190565b90600182811c92168015620003f0575b6020831014620003da57565b634e487b7160e01b600052602260045260246000fd5b91607f1691620003ce565b81811062000407575050565b60008155600101620003fb565b90601f821162000422575050565b620004539160016000526020600020906020601f840160051c8301931062000455575b601f0160051c0190620003fb565b565b909150819062000445565b9190601f81116200047057505050565b62000453926000526020600020906020601f840160051c830193106200045557601f0160051c0190620003fb565b80519091906001600160401b03811162000590575b600190620004cd81620004c78454620003be565b62000414565b602080601f83116001146200050b575081929394600092620004ff575b5050600019600383901b1c191690821b179055565b015190503880620004ea565b6001600052601f198316959091907fb10e2d527612073b26eecdfd717e6a320cf44b4afac2b0732d9fcbe2b7fa0cf6926000905b8882106200057857505083859697106200055e575b505050811b019055565b015160001960f88460031b161c1916905538808062000554565b8087859682949686015181550195019301906200053f565b6200059a62000153565b620004b3565b81519192916001600160401b03811162000661575b620005cd81620005c68454620003be565b8462000460565b602080601f83116001146200060c57508192939460009262000600575b50508160011b916000199060031b1c1916179055565b015190503880620005ea565b90601f198316956200062385600052602060002090565b926000905b88821062000648575050836001959697106200055e57505050811b019055565b8060018596829496860151815501950193019062000628565b6200066b62000153565b620005b5565b80519068010000000000000000821162000782575b60025482600255808310620006e4575b50600260005260209081019060008051602062001f468339815191526000925b848410620006c5575050505050565b60018382620006d783945186620005a0565b01920193019290620006b6565b6002600090815260008051602062001f468339815191529182019184015b8281106200071257505062000696565b806200072160019254620003be565b8062000730575b500162000702565b601f9081811184146200074a5750508281555b3862000728565b836200076f926200076085600052602060002090565b920160051c82019101620003fb565b6000818152602081208183555562000743565b6200078c62000153565b62000686565b909695939496620007a2620008a5565b83831015806200089b575b6200084c578051156200080757620007c9620007cf926200049e565b62000671565b60805260a0526001600160a01b0391821660c05292811660e0529182166101005216610120526101405261016052610180526101a052565b60405162461bcd60e51b815260206004820152601c60248201527f4174206c65617374206f6e65206f7074696f6e207265717569726564000000006044820152606490fd5b60405162461bcd60e51b815260206004820152602160248201527f456e642074696d65206d7573742062652061667465722073746172742074696d6044820152606560f81b6064820152608490fd5b50831515620007ad565b60008054336001600160a01b031982168117835560405190926001600160a01b03909216917f8be0079c531659141344cd1fd0a4f28419497f9722a3daafe3b4186f6b6457e091a356fe60806040526004361015610013575b600080fd5b60003560e01c8062349237146101de5780630121b93f146101d557806306e29712146101cc57806309eef43e146101c35780631ce5e9a6146101ba5780633197cbb6146101b15780633905c201146101a85780633c4dbf851461019f5780636d3123eb14610196578063715018a61461018d5780637284e4161461018457806375ae01311461017b57806378e97925146101725780637c99279a146101695780638a204ed6146101605780638da5cb5b14610157578063a4d4334a1461014e578063aa92e1c514610145578063adfaa72e1461013c578063b2c2f2e814610133578063d44234291461012a578063dc7831fd146101215763f2fde38b1461011957600080fd5b61000e610a9d565b5061000e610a57565b5061000e610a11565b5061000e6109e0565b5061000e6109bd565b5061000e610981565b5061000e610962565b5061000e610938565b5061000e6108f2565b5061000e6108d3565b5061000e610897565b5061000e61081e565b5061000e61072b565b5061000e610691565b5061000e61064b565b5061000e610624565b5061000e6105e8565b5061000e6105ac565b5061000e61048d565b5061000e610401565b5061000e610399565b5061000e61022c565b503461000e57600036600319011261000e5760206040517f00000000000000000000000000000000000000000000000000000000000000008152f35b602090600319011261000e5760043590565b503461000e5761023b3661021a565b7f00000000000000000000000000000000000000000000000000000000000000004210610387577f0000000000000000000000000000000000000000000000000000000000000000801515908161037d575b5061036b573360009081526004602052604090206102ad905b5460ff1690565b61035957600254811015610347576102c433610c0c565b6102d8816000526003602052604060002090565b6102e28154610bb3565b905533600090815260046020526040902061030490805460ff19166001179055565b610317610312600554610bb3565b600555565b60405190815233907f4d99b957a2bc29a30ebd96a7be8e68fe50a3c701db28a91436490b7d53870ca490602090a2005b604051632a71953160e01b8152600490fd5b604051637c9a1cf960e01b8152600490fd5b604051632c52c3e960e11b8152600490fd5b905042113861028d565b60405163c878ebc560e01b8152600490fd5b503461000e57600036600319011261000e576040517f00000000000000000000000000000000000000000000000000000000000000006001600160a01b03168152602090f35b602090600319011261000e576004356001600160a01b038116810361000e5790565b503461000e576001600160a01b03610418366103df565b166000526004602052602060ff604060002054166040519015158152f35b919091602080825283519081818401526000945b82861061047757505080604093941161046a575b601f01601f1916010190565b600083828401015261045e565b858101820151848701604001529481019461044a565b503461000e5761049c3661021a565b60025481101561034757600090600282527f405787fa12a823e0f2b7631cc41b3ba8828b3321ca811111fa75cd3aa3bb5ace016040519180918054600181811c938183169384156105a2575b602093848710861461058e57868952602089019590811561056e575060011461052c575b6105288861051c818a03826106f3565b60405191829182610436565b0390f35b610540919650949394600052602060002090565b83861061055d575050509101905061051c8261052838808061050c565b805485870152948201948101610540565b60ff191686525050509101925061051c915083905061052838808061050c565b634e487b7160e01b83526022600452602483fd5b94607f16946104e8565b503461000e57600036600319011261000e5760206040517f00000000000000000000000000000000000000000000000000000000000000008152f35b503461000e57600036600319011261000e5760206040517f00000000000000000000000000000000000000000000000000000000000000008152f35b503461000e576106333661021a565b60005260036020526020604060002054604051908152f35b503461000e57600036600319011261000e576040517f00000000000000000000000000000000000000000000000000000000000000006001600160a01b03168152602090f35b503461000e576000806003193601126106f0576106ac610b5b565b80546001600160a01b0319811682556040519082906001600160a01b03167f8be0079c531659141344cd1fd0a4f28419497f9722a3daafe3b4186f6b6457e08284a3f35b80fd5b90601f8019910116810190811067ffffffffffffffff82111761071557604052565b634e487b7160e01b600052604160045260246000fd5b503461000e576000806003193601126106f0576040519080600190815480831c92808216928315610814575b60209283861085146108005785885260208801949081156107e4575060011461078b575b6105288761051c818903826106f3565b600160005294509192917fb10e2d527612073b26eecdfd717e6a320cf44b4afac2b0732d9fcbe2b7fa0cf65b8386106107d3575050509101905061051c82610528388061077b565b8054858701529482019481016107b7565b60ff1916855250505001915061051c905082610528388061077b565b634e487b7160e01b82526022600452602482fd5b93607f1693610757565b503461000e57610835610830366103df565b6112dd565b60a06040519180511515835260208101516020840152604081015160408401526060810151606084015260808101511515608084015201519060068210156108815760c09160a0820152f35b634e487b7160e01b600052602160045260246000fd5b503461000e57600036600319011261000e5760206040517f00000000000000000000000000000000000000000000000000000000000000008152f35b503461000e57600036600319011261000e576020600554604051908152f35b503461000e57600036600319011261000e576040517f00000000000000000000000000000000000000000000000000000000000000006001600160a01b03168152602090f35b503461000e57600036600319011261000e576000546040516001600160a01b039091168152602090f35b503461000e57600036600319011261000e576020600254604051908152f35b503461000e57600036600319011261000e5760206040517f00000000000000000000000000000000000000000000000000000000000000008152f35b503461000e5760206109d66109d1366103df565b610f53565b6040519015158152f35b503461000e576109ef3661021a565b6002548110156103475760005260036020526020604060002054604051908152f35b503461000e57600036600319011261000e576040517f00000000000000000000000000000000000000000000000000000000000000006001600160a01b03168152602090f35b503461000e57600036600319011261000e576040517f00000000000000000000000000000000000000000000000000000000000000006001600160a01b03168152602090f35b503461000e57610aac366103df565b610ab4610b5b565b6001600160a01b03908116908115610b0757600080546001600160a01b031981168417825560405191939192167f8be0079c531659141344cd1fd0a4f28419497f9722a3daafe3b4186f6b6457e08484a3f35b60405162461bcd60e51b815260206004820152602660248201527f4f776e61626c653a206e6577206f776e657220697320746865207a65726f206160448201526564647265737360d01b6064820152608490fd5b6000546001600160a01b03163303610b6f57565b606460405162461bcd60e51b815260206004820152602060248201527f4f776e61626c653a2063616c6c6572206973206e6f7420746865206f776e65726044820152fd5b6000198114610bc25760010190565b634e487b7160e01b600052601160045260246000fd5b9081602091031261000e5751801515810361000e5790565b506040513d6000823e3d90fd5b9081602091031261000e575190565b6040805163591a726f60e01b81526001600160a01b038381166004808401919091529360209290919083816024817f000000000000000000000000000000000000000000000000000000000000000086165afa908115610f46575b600091610f19575b5015610efc578351636a0db6db60e11b81526001600160a01b0383168682019081528490829081906020010381857f0000000000000000000000000000000000000000000000000000000000000000165afa908115610eef575b600091610ed2575b507f000000000000000000000000000000000000000000000000000000000000000011610eb5578351635e09eea160e01b81526001600160a01b0383168682019081528490829081906020010381857f0000000000000000000000000000000000000000000000000000000000000000165afa908115610ea8575b600091610e8b575b507f000000000000000000000000000000000000000000000000000000000000000011610e6e577f00000000000000000000000000000000000000000000000000000000000000001680610daa575b5050505050565b83516370a0823160e01b81526001600160a01b03909216858301908152839183918290819060200103915afa918215610e61575b600092610e34575b50507f000000000000000000000000000000000000000000000000000000000000000011610e1657808080610da3565b51634d29472960e11b81526004918101918252915081906020010390fd5b610e539250803d10610e5a575b610e4b81836106f3565b810190610bfd565b3880610de6565b503d610e41565b610e69610bf0565b610dde565b8351634d29472960e11b8152600381870190815281906020010390fd5b610ea29150843d8611610e5a57610e4b81836106f3565b38610d54565b610eb0610bf0565b610d4c565b8351634d29472960e11b8152600281870190815281906020010390fd5b610ee99150843d8611610e5a57610e4b81836106f3565b38610cd1565b610ef7610bf0565b610cc9565b8351634d29472960e11b8152600181870190815281906020010390fd5b610f399150843d8611610f3f575b610f3181836106f3565b810190610bd8565b38610c6f565b503d610f27565b610f4e610bf0565b610c67565b7f00000000000000000000000000000000000000000000000000000000000000004210801561125e575b8015611237575b6112315760405163591a726f60e01b81526001600160a01b0382811660048301526020929183816024817f000000000000000000000000000000000000000000000000000000000000000086165afa908115611224575b600091611207575b50156111ab57604051636a0db6db60e11b81526001600160a01b038316600482015283816024817f000000000000000000000000000000000000000000000000000000000000000086165afa9081156111fa575b6000916111dd575b507f0000000000000000000000000000000000000000000000000000000000000000116111ab57604051635e09eea160e01b81526001600160a01b038316600482015283816024817f000000000000000000000000000000000000000000000000000000000000000086165afa9081156111d0575b6000916111b3575b507f0000000000000000000000000000000000000000000000000000000000000000116111ab577f00000000000000000000000000000000000000000000000000000000000000001680611113575b505050600190565b6040516370a0823160e01b81526001600160a01b039290921660048301528290829060249082905afa91821561119e575b600092611181575b50507f00000000000000000000000000000000000000000000000000000000000000001161117c5738808061110b565b600090565b6111979250803d10610e5a57610e4b81836106f3565b388061114c565b6111a6610bf0565b611144565b505050600090565b6111ca9150843d8611610e5a57610e4b81836106f3565b386110bc565b6111d8610bf0565b6110b4565b6111f49150843d8611610e5a57610e4b81836106f3565b3861103f565b611202610bf0565b611037565b61121e9150843d8611610f3f57610f3181836106f3565b38610fe3565b61122c610bf0565b610fdb565b50600090565b506001600160a01b0381166000908152600460205260409020611259906102a6565b610f84565b507f00000000000000000000000000000000000000000000000000000000000000008015159081611290575b50610f7d565b905042113861128a565b6040519060c0820182811067ffffffffffffffff821117610715576040528160a06000918281528260208201528260408201528260608201528260808201520152565b6112e561129a565b6040805163591a726f60e01b81526001600160a01b03848116600483015292939260209161134e9083816024817f000000000000000000000000000000000000000000000000000000000000000087165afa908115611613575b6000916115f6575b5015158652565b8251636a0db6db60e11b81526001600160a01b038516600482015282816024817f000000000000000000000000000000000000000000000000000000000000000086165afa9081156115e9575b6000916115cc575b50828601528251635e09eea160e01b81526001600160a01b038516600482015282816024817f000000000000000000000000000000000000000000000000000000000000000086165afa9081156115bf575b6000916115a2575b50858401527f000000000000000000000000000000000000000000000000000000000000000016801580159483916115935784516370a0823160e01b81526001600160a01b0391909116600482015291829060249082905afa908115611586575b600091611569575b5060608501525b6080840161147b8160019052565b61148c6114888651151590565b1590565b61155157508301517f000000000000000000000000000000000000000000000000000000000000000011611543578201517f0000000000000000000000000000000000000000000000000000000000000000116115365780611509575b6114f757600060a082015290565b600460a08201525b6000608082015290565b5060608101517f0000000000000000000000000000000000000000000000000000000000000000116114e9565b50600360a08201526114ff565b5050600260a08201526114ff565b9150506000915061156560a0840160019052565b5290565b6115809150823d8411610e5a57610e4b81836106f3565b38611466565b61158e610bf0565b61145e565b5050506000606085015261146d565b6115b99150833d8511610e5a57610e4b81836106f3565b386113fd565b6115c7610bf0565b6113f5565b6115e39150833d8511610e5a57610e4b81836106f3565b386113a3565b6115f1610bf0565b61139b565b61160d9150843d8611610f3f57610f3181836106f3565b38611347565b61161b610bf0565b61133f56fea26469706673582212201a497ef3524e39f61b3e6dfbbbdce61a599683dd4ea5947d28eb01e62feab14964736f6c634300080d0033405787fa12a823e0f2b7631cc41b3ba8828b3321ca811111fa75cd3aa3bb5acea26469706673582212205b8d48a111d24e9017385943be4793418baa452cd43eec5518ab4175186fee1d64736f6c634300080d0033",
  "linkReferences": {},
  "deployedLinkReferences": {}
}