{"abi":[{"type":"constructor","inputs":[{"name":"_token","type":"address","internalType":"address"},{"name":"_merkleRoot","type":"bytes32","internalType":"bytes32"},{"name":"_trustScoreContract","type":"address","internalType":"address"},{"name":"_kycContract","type":"address","internalType":"address"},{"name":"_activationContract","type":"address","internalType":"address"}],"stateMutability":"nonpayable"},{"type":"function","name":"DEFAULT_ACCOUNT_AGE","inputs":[],"outputs":[{"name":"","type":"uint256","internalType":"uint256"}],"stateMutability":"view"},{"type":"function","name":"DEFAULT_AIRDROP_DURATION","inputs":[],"outputs":[{"name":"","type":"uint256","internalType":"uint256"}],"stateMutability":"view"},{"type":"function","name":"DEFAULT_KYC_LEVEL","inputs":[],"outputs":[{"name":"","type":"uint256","internalType":"uint256"}],"stateMutability":"view"},{"type":"function","name":"DEFAULT_MIN_REPUTATION","inputs":[],"outputs":[{"name":"","type":"uint256","internalType":"uint256"}],"stateMutability":"view"},{"type":"function","name":"DEFAULT_TRUST_SCORE","inputs":[],"outputs":[{"name":"","type":"uint256","internalType":"uint256"}],"stateMutability":"view"},{"type":"function","name":"FILTER_CONTRACT_ADDRESS","inputs":[],"outputs":[{"name":"","type":"address","internalType":"address"}],"stateMutability":"view"},{"type":"function","name":"REPUTATION_CONTRACT_ADDRESS","inputs":[],"outputs":[{"name":"","type":"address","internalType":"address"}],"stateMutability":"view"},{"type":"function","name":"activationContract","inputs":[],"outputs":[{"name":"","type":"address","internalType":"contract IGraphiteActivation"}],"stateMutability":"view"},{"type":"function","name":"batchSetBlacklist","inputs":[{"name":"users","type":"address[]","internalType":"address[]"},{"name":"statuses","type":"bool[]","internalType":"bool[]"}],"outputs":[],"stateMutability":"nonpayable"},{"type":"function","name":"blacklisted","inputs":[{"name":"","type":"address","internalType":"address"}],"outputs":[{"name":"","type":"bool","internalType":"bool"}],"stateMutability":"view"},{"type":"function","name":"claim","inputs":[{"name":"amount","type":"uint256","internalType":"uint256"},{"name":"proof","type":"bytes32[]","internalType":"bytes32[]"}],"outputs":[],"stateMutability":"nonpayable"},{"type":"function","name":"endTime","inputs":[],"outputs":[{"name":"","type":"uint256","internalType":"uint256"}],"stateMutability":"view"},{"type":"function","name":"filterContract","inputs":[],"outputs":[{"name":"","type":"address","internalType":"contract IGraphiteFilter"}],"stateMutability":"view"},{"type":"function","name":"getEligibilityDetails","inputs":[{"name":"user","type":"address","internalType":"address"}],"outputs":[{"name":"isActivated","type":"bool","internalType":"bool"},{"name":"accountAge","type":"uint256","internalType":"uint256"},{"name":"trustScore","type":"uint256","internalType":"uint256"},{"name":"kycLevel","type":"uint256","internalType":"uint256"},{"name":"isBlacklisted","type":"bool","internalType":"bool"},{"name":"hasClaimedAirdrop","type":"bool","internalType":"bool"},{"name":"reputationScore","type":"uint256","internalType":"uint256"},{"name":"passesFilter","type":"bool","internalType":"bool"}],"stateMutability":"view"},{"type":"function","name":"hasClaimed","inputs":[{"name":"","type":"address","internalType":"address"}],"outputs":[{"name":"","type":"bool","internalType":"bool"}],"stateMutability":"view"},{"type":"function","name":"isEligible","inputs":[{"name":"user","type":"address","internalType":"address"}],"outputs":[{"name":"eligible","type":"bool","internalType":"bool"}],"stateMutability":"view"},{"type":"function","name":"kycContract","inputs":[],"outputs":[{"name":"","type":"address","internalType":"contract IGraphiteKYC"}],"stateMutability":"view"},{"type":"function","name":"merkleRoot","inputs":[],"outputs":[{"name":"","type":"bytes32","internalType":"bytes32"}],"stateMutability":"view"},{"type":"function","name":"owner","inputs":[],"outputs":[{"name":"","type":"address","internalType":"address"}],"stateMutability":"view"},{"type":"function","name":"renounceOwnership","inputs":[],"outputs":[],"stateMutability":"nonpayable"},{"type":"function","name":"reputationContract","inputs":[],"outputs":[{"name":"","type":"address","internalType":"contract IGraphiteReputation"}],"stateMutability":"view"},{"type":"function","name":"requiredAccountAge","inputs":[],"outputs":[{"name":"","type":"uint256","internalType":"uint256"}],"stateMutability":"view"},{"type":"function","name":"requiredKYCLevel","inputs":[],"outputs":[{"name":"","type":"uint256","internalType":"uint256"}],"stateMutability":"view"},{"type":"function","name":"requiredReputationScore","inputs":[],"outputs":[{"name":"","type":"uint256","internalType":"uint256"}],"stateMutability":"view"},{"type":"function","name":"requiredTrustScore","inputs":[],"outputs":[{"name":"","type":"uint256","internalType":"uint256"}],"stateMutability":"view"},{"type":"function","name":"setBlacklist","inputs":[{"name":"user","type":"address","internalType":"address"},{"name":"isBlacklisted","type":"bool","internalType":"bool"}],"outputs":[],"stateMutability":"nonpayable"},{"type":"function","name":"startTime","inputs":[],"outputs":[{"name":"","type":"uint256","internalType":"uint256"}],"stateMutability":"view"},{"type":"function","name":"token","inputs":[],"outputs":[{"name":"","type":"address","internalType":"contract IERC20"}],"stateMutability":"view"},{"type":"function","name":"transferOwnership","inputs":[{"name":"newOwner","type":"address","internalType":"address"}],"outputs":[],"stateMutability":"nonpayable"},{"type":"function","name":"trustScoreContract","inputs":[],"outputs":[{"name":"","type":"address","internalType":"contract IGraphiteTrustScore"}],"stateMutability":"view"},{"type":"function","name":"updateAirdropTiming","inputs":[{"name":"_startTime","type":"uint256","internalType":"uint256"},{"name":"_endTime","type":"uint256","internalType":"uint256"}],"outputs":[],"stateMutability":"nonpayable"},{"type":"function","name":"updateMerkleRoot","inputs":[{"name":"_merkleRoot","type":"bytes32","internalType":"bytes32"}],"outputs":[],"stateMutability":"nonpayable"},{"type":"function","name":"updateRequirements","inputs":[{"name":"_trustScore","type":"uint256","internalType":"uint256"},{"name":"_kycLevel","type":"uint256","internalType":"uint256"},{"name":"_accountAge","type":"uint256","internalType":"uint256"}],"outputs":[],"stateMutability":"nonpayable"},{"type":"function","name":"updateRequirements","inputs":[{"name":"_trustScore","type":"uint256","internalType":"uint256"},{"name":"_kycLevel","type":"uint256","internalType":"uint256"},{"name":"_accountAge","type":"uint256","internalType":"uint256"},{"name":"_reputationScore","type":"uint256","internalType":"uint256"}],"outputs":[],"stateMutability":"nonpayable"},{"type":"function","name":"withdrawTokens","inputs":[{"name":"_token","type":"address","internalType":"address"}],"outputs":[],"stateMutability":"nonpayable"},{"type":"event","name":"AirdropClaimed","inputs":[{"name":"user","type":"address","indexed":true,"internalType":"address"},{"name":"amount","type":"uint256","indexed":false,"internalType":"uint256"}],"anonymous":false},{"type":"event","name":"AirdropTimingUpdated","inputs":[{"name":"startTime","type":"uint256","indexed":false,"internalType":"uint256"},{"name":"endTime","type":"uint256","indexed":false,"internalType":"uint256"}],"anonymous":false},{"type":"event","name":"BlacklistUpdated","inputs":[{"name":"user","type":"address","indexed":true,"internalType":"address"},{"name":"isBlacklisted","type":"bool","indexed":false,"internalType":"bool"}],"anonymous":false},{"type":"event","name":"OwnershipTransferred","inputs":[{"name":"previousOwner","type":"address","indexed":true,"internalType":"address"},{"name":"newOwner","type":"address","indexed":true,"internalType":"address"}],"anonymous":false},{"type":"event","name":"RequirementsUpdated","inputs":[{"name":"trustScore","type":"uint256","indexed":false,"internalType":"uint256"},{"name":"kycLevel","type":"uint256","indexed":false,"internalType":"uint256"},{"name":"accountAge","type":"uint256","indexed":false,"internalType":"uint256"},{"name":"reputationScore","type":"uint256","indexed":false,"internalType":"uint256"}],"anonymous":false},{"type":"error","name":"AddressBlacklisted","inputs":[]},{"type":"error","name":"AirdropEnded","inputs":[]},{"type":"error","name":"AirdropNotStarted","inputs":[]},{"type":"error","name":"AirdropStillInProgress","inputs":[]},{"type":"error","name":"AlreadyClaimed","inputs":[]},{"type":"error","name":"ArrayLengthMismatch","inputs":[]},{"type":"error","name":"EndTimeBeforeStartTime","inputs":[]},{"type":"error","name":"InsufficientReputationScore","inputs":[]},{"type":"error","name":"InvalidMerkleProof","inputs":[]},{"type":"error","name":"NoTokensToWithdraw","inputs":[]},{"type":"error","name":"NotEligible","inputs":[]},{"type":"error","name":"OwnableInvalidOwner","inputs":[{"name":"owner","type":"address","internalType":"address"}]},{"type":"error","name":"OwnableUnauthorizedAccount","inputs":[{"name":"account","type":"address","internalType":"address"}]},{"type":"error","name":"TransactionFilterBlocked","inputs":[]},{"type":"error","name":"TransferFailed","inputs":[]}],"bytecode":{"object":"0x608060405234801561000f575f5ffd5b50604051612b5f380380612b5f833981810160405281019061003191906103df565b335f73ffffffffffffffffffffffffffffffffffffffff168173ffffffffffffffffffffffffffffffffffffffff16036100a2575f6040517f1e4fbdf70000000000000000000000000000000000000000000000000000000081526004016100999190610465565b60405180910390fd5b6100b18161028d60201b60201c565b508460065f6101000a81548173ffffffffffffffffffffffffffffffffffffffff021916908373ffffffffffffffffffffffffffffffffffffffff160217905550836007819055508260015f6101000a81548173ffffffffffffffffffffffffffffffffffffffff021916908373ffffffffffffffffffffffffffffffffffffffff1602179055508160025f6101000a81548173ffffffffffffffffffffffffffffffffffffffff021916908373ffffffffffffffffffffffffffffffffffffffff1602179055508060035f6101000a81548173ffffffffffffffffffffffffffffffffffffffff021916908373ffffffffffffffffffffffffffffffffffffffff16021790555061100260045f6101000a81548173ffffffffffffffffffffffffffffffffffffffff021916908373ffffffffffffffffffffffffffffffffffffffff16021790555061100860055f6101000a81548173ffffffffffffffffffffffffffffffffffffffff021916908373ffffffffffffffffffffffffffffffffffffffff1602179055506101f4600881905550600160098190555062278d00600a81905550671bc16d674ec80000600b8190555042600e8190555062278d004261027d91906104b4565b600f8190555050505050506104e7565b5f5f5f9054906101000a900473ffffffffffffffffffffffffffffffffffffffff169050815f5f6101000a81548173ffffffffffffffffffffffffffffffffffffffff021916908373ffffffffffffffffffffffffffffffffffffffff1602179055508173ffffffffffffffffffffffffffffffffffffffff168173ffffffffffffffffffffffffffffffffffffffff167f8be0079c531659141344cd1fd0a4f28419497f9722a3daafe3b4186f6b6457e060405160405180910390a35050565b5f5ffd5b5f73ffffffffffffffffffffffffffffffffffffffff82169050919050565b5f61037b82610352565b9050919050565b61038b81610371565b8114610395575f5ffd5b50565b5f815190506103a681610382565b92915050565b5f819050919050565b6103be816103ac565b81146103c8575f5ffd5b50565b5f815190506103d9816103b5565b92915050565b5f5f5f5f5f60a086880312156103f8576103f761034e565b5b5f61040588828901610398565b9550506020610416888289016103cb565b945050604061042788828901610398565b935050606061043888828901610398565b925050608061044988828901610398565b9150509295509295909350565b61045f81610371565b82525050565b5f6020820190506104785f830184610456565b92915050565b5f819050919050565b7f4e487b71000000000000000000000000000000000000000000000000000000005f52601160045260245ffd5b5f6104be8261047e565b91506104c98361047e565b92508282019050808211156104e1576104e0610487565b5b92915050565b61266b806104f45f395ff3fe608060405234801561000f575f5ffd5b506004361061020f575f3560e01c80636d3123eb11610123578063aa92e1c5116100ab578063e6186da61161007a578063e6186da6146105c2578063e9c8abec146105e0578063f2fde38b146105fe578063f3ad1ec51461061a578063fc0c546a146106385761020f565b8063aa92e1c514610538578063b8e70b9814610556578063dbac26e914610574578063dc7831fd146105a45761020f565b806378e97925116100f257806378e97925146104a2578063847a18bb146104c057806387bc1425146104de5780638da5cb5b146104fc5780639091b4281461051a5761020f565b80636d3123eb14610413578063715018a61461043157806373b2e80e1461043b57806375ae01311461046b5761020f565b80633905c201116101a65780634b6ce9bc116101755780634b6ce9bc1461036f5780634df4ebd81461038b578063565c99ac146103a957806366ccea9e146103c557806366e305fd146103e35761020f565b80633905c201146102fb5780634783f0ef1461031957806349df728c146103355780634b50ebc3146103515761020f565b80632f52ebb7116101e25780632f52ebb7146102875780633197cbb6146102a3578063354f63f4146102c15780633630d992146102df5761020f565b80630ecff81214610213578063153b0d1e1461022f57806319676db01461024b5780632eb4a7ab14610269575b5f5ffd5b61022d60048036038101906102289190611cdc565b610656565b005b61024960048036038101906102449190611dbb565b6106b7565b005b610253610765565b6040516102609190611e08565b60405180910390f35b610271610771565b60405161027e9190611e39565b60405180910390f35b6102a1600480360381019061029c9190611eb3565b610777565b005b6102ab610c30565b6040516102b89190611e08565b60405180910390f35b6102c9610c36565b6040516102d69190611e08565b60405180910390f35b6102f960048036038101906102f49190611f10565b610c3c565b005b610303610ca3565b6040516103109190611e08565b60405180910390f35b610333600480360381019061032e9190611f9e565b610ca9565b005b61034f600480360381019061034a9190611fc9565b610cbb565b005b610359610e93565b6040516103669190611e08565b60405180910390f35b61038960048036038101906103849190611ff4565b610e9a565b005b610393610f26565b6040516103a09190612041565b60405180910390f35b6103c360048036038101906103be9190612104565b610f2c565b005b6103cd6110d5565b6040516103da9190611e08565b60405180910390f35b6103fd60048036038101906103f89190611fc9565b6110da565b60405161040a9190612191565b60405180910390f35b61041b611445565b6040516104289190612205565b60405180910390f35b61043961146a565b005b61045560048036038101906104509190611fc9565b61147d565b6040516104629190612191565b60405180910390f35b61048560048036038101906104809190611fc9565b61149a565b60405161049998979695949392919061221e565b60405180910390f35b6104aa611907565b6040516104b79190611e08565b60405180910390f35b6104c861190d565b6040516104d591906122ba565b60405180910390f35b6104e6611932565b6040516104f391906122f3565b60405180910390f35b610504611957565b6040516105119190612041565b60405180910390f35b61052261197e565b60405161052f9190611e08565b60405180910390f35b610540611984565b60405161054d9190611e08565b60405180910390f35b61055e61198a565b60405161056b9190612041565b60405180910390f35b61058e60048036038101906105899190611fc9565b611990565b60405161059b9190612191565b60405180910390f35b6105ac6119ad565b6040516105b9919061232c565b60405180910390f35b6105ca6119d2565b6040516105d79190611e08565b60405180910390f35b6105e86119d9565b6040516105f59190611e08565b60405180910390f35b61061860048036038101906106139190611fc9565b6119df565b005b610622611a63565b60405161062f9190612365565b60405180910390f35b610640611a88565b60405161064d919061239e565b60405180910390f35b61065e611aad565b826008819055508160098190555080600a819055507fd78cc9e55622bf61c1019468649f2393bbad530cdce8cd140342658d0d04e301838383600b546040516106aa94939291906123b7565b60405180910390a1505050565b6106bf611aad565b80600d5f8473ffffffffffffffffffffffffffffffffffffffff1673ffffffffffffffffffffffffffffffffffffffff1681526020019081526020015f205f6101000a81548160ff0219169083151502179055508173ffffffffffffffffffffffffffffffffffffffff167f6a12b3df6cba4203bd7fd06b816789f87de8c594299aed5717ae070fac781bac826040516107599190612191565b60405180910390a25050565b671bc16d674ec8000081565b60075481565b600e544210156107b3576040517fb820fc9700000000000000000000000000000000000000000000000000000000815260040160405180910390fd5b600f544211156107ef576040517fc3bba9e000000000000000000000000000000000000000000000000000000000815260040160405180910390fd5b600c5f3373ffffffffffffffffffffffffffffffffffffffff1673ffffffffffffffffffffffffffffffffffffffff1681526020019081526020015f205f9054906101000a900460ff1615610870576040517f646cf55800000000000000000000000000000000000000000000000000000000815260040160405180910390fd5b600d5f3373ffffffffffffffffffffffffffffffffffffffff1673ffffffffffffffffffffffffffffffffffffffff1681526020019081526020015f205f9054906101000a900460ff16156108f1576040517f1f7b776b00000000000000000000000000000000000000000000000000000000815260040160405180910390fd5b6108fa336110da565b610930576040517ff8eb54de00000000000000000000000000000000000000000000000000000000815260040160405180910390fd5b60045f9054906101000a900473ffffffffffffffffffffffffffffffffffffffff1673ffffffffffffffffffffffffffffffffffffffff1663e1917fda30336040518363ffffffff1660e01b815260040161098c9291906123fa565b602060405180830381865afa1580156109a7573d5f5f3e3d5ffd5b505050506040513d601f19601f820116820180604052508101906109cb9190612435565b610a01576040517f8d2e3b9d00000000000000000000000000000000000000000000000000000000815260040160405180910390fd5b5f3384604051602001610a159291906124c5565b604051602081830303815290604052805190602001209050610a7a8383808060200260200160405190810160405280939291908181526020018383602002808284375f81840152601f19601f8201169050808301925050505050505060075483611b34565b610ab0576040517fb05e92fa00000000000000000000000000000000000000000000000000000000815260040160405180910390fd5b6001600c5f3373ffffffffffffffffffffffffffffffffffffffff1673ffffffffffffffffffffffffffffffffffffffff1681526020019081526020015f205f6101000a81548160ff0219169083151502179055505f60065f9054906101000a900473ffffffffffffffffffffffffffffffffffffffff1673ffffffffffffffffffffffffffffffffffffffff1663a9059cbb33876040518363ffffffff1660e01b8152600401610b629291906124f0565b6020604051808303815f875af1158015610b7e573d5f5f3e3d5ffd5b505050506040513d601f19601f82011682018060405250810190610ba29190612435565b905080610bdb576040517f90b8ec1800000000000000000000000000000000000000000000000000000000815260040160405180910390fd5b3373ffffffffffffffffffffffffffffffffffffffff167f650e45f04ef8a0c267b2f78d983913f69ae3a353b2b32de5429307522be0ab5586604051610c219190611e08565b60405180910390a25050505050565b600f5481565b6101f481565b610c44611aad565b836008819055508260098190555081600a8190555080600b819055507fd78cc9e55622bf61c1019468649f2393bbad530cdce8cd140342658d0d04e30184848484604051610c9594939291906123b7565b60405180910390a150505050565b60085481565b610cb1611aad565b8060078190555050565b610cc3611aad565b5f8190505f8173ffffffffffffffffffffffffffffffffffffffff166370a08231306040518263ffffffff1660e01b8152600401610d019190612041565b602060405180830381865afa158015610d1c573d5f5f3e3d5ffd5b505050506040513d601f19601f82011682018060405250810190610d40919061252b565b90505f8103610d7b576040517ffba5154e00000000000000000000000000000000000000000000000000000000815260040160405180910390fd5b60065f9054906101000a900473ffffffffffffffffffffffffffffffffffffffff1673ffffffffffffffffffffffffffffffffffffffff168373ffffffffffffffffffffffffffffffffffffffff1603610e0b57600f544211610e0a576040517f56546c8900000000000000000000000000000000000000000000000000000000815260040160405180910390fd5b5b8173ffffffffffffffffffffffffffffffffffffffff1663a9059cbb610e2f611957565b836040518363ffffffff1660e01b8152600401610e4d9291906124f0565b6020604051808303815f875af1158015610e69573d5f5f3e3d5ffd5b505050506040513d601f19601f82011682018060405250810190610e8d9190612435565b50505050565b62278d0081565b610ea2611aad565b818111610edb576040517f4313345300000000000000000000000000000000000000000000000000000000815260040160405180910390fd5b81600e8190555080600f819055507fa73c2a4e4657f5e1ff94a19ffe5f535cdd2dd893a121899816c3e9f66565cb018282604051610f1a929190612556565b60405180910390a15050565b61100281565b610f34611aad565b818190508484905014610f73576040517fa24a13a600000000000000000000000000000000000000000000000000000000815260040160405180910390fd5b5f5f90505b848490508110156110ce57828282818110610f9657610f9561257d565b5b9050602002016020810190610fab91906125aa565b600d5f878785818110610fc157610fc061257d565b5b9050602002016020810190610fd69190611fc9565b73ffffffffffffffffffffffffffffffffffffffff1673ffffffffffffffffffffffffffffffffffffffff1681526020019081526020015f205f6101000a81548160ff0219169083151502179055508484828181106110385761103761257d565b5b905060200201602081019061104d9190611fc9565b73ffffffffffffffffffffffffffffffffffffffff167f6a12b3df6cba4203bd7fd06b816789f87de8c594299aed5717ae070fac781bac8484848181106110975761109661257d565b5b90506020020160208101906110ac91906125aa565b6040516110b99190612191565b60405180910390a28080600101915050610f78565b5050505050565b600181565b5f60035f9054906101000a900473ffffffffffffffffffffffffffffffffffffffff1673ffffffffffffffffffffffffffffffffffffffff1663c9faa7c5836040518263ffffffff1660e01b81526004016111359190612041565b602060405180830381865afa158015611150573d5f5f3e3d5ffd5b505050506040513d601f19601f820116820180604052508101906111749190612435565b611180575f9050611440565b5f60035f9054906101000a900473ffffffffffffffffffffffffffffffffffffffff1673ffffffffffffffffffffffffffffffffffffffff1663022d44e3846040518263ffffffff1660e01b81526004016111db9190612041565b602060405180830381865afa1580156111f6573d5f5f3e3d5ffd5b505050506040513d601f19601f8201168201806040525081019061121a919061252b565b9050600a54814261122b9190612602565b101561123a575f915050611440565b60085460015f9054906101000a900473ffffffffffffffffffffffffffffffffffffffff1673ffffffffffffffffffffffffffffffffffffffff16635e09eea1856040518263ffffffff1660e01b81526004016112979190612041565b602060405180830381865afa1580156112b2573d5f5f3e3d5ffd5b505050506040513d601f19601f820116820180604052508101906112d6919061252b565b10156112e5575f915050611440565b60025f9054906101000a900473ffffffffffffffffffffffffffffffffffffffff1673ffffffffffffffffffffffffffffffffffffffff1663aed3cba3846009546040518363ffffffff1660e01b81526004016113439291906124f0565b602060405180830381865afa15801561135e573d5f5f3e3d5ffd5b505050506040513d601f19601f820116820180604052508101906113829190612435565b61138f575f915050611440565b600b5460055f9054906101000a900473ffffffffffffffffffffffffffffffffffffffff1673ffffffffffffffffffffffffffffffffffffffff16639c89a0e2856040518263ffffffff1660e01b81526004016113ec9190612041565b602060405180830381865afa158015611407573d5f5f3e3d5ffd5b505050506040513d601f19601f8201168201806040525081019061142b919061252b565b101561143a575f915050611440565b60019150505b919050565b60025f9054906101000a900473ffffffffffffffffffffffffffffffffffffffff1681565b611472611aad565b61147b5f611b4a565b565b600c602052805f5260405f205f915054906101000a900460ff1681565b5f5f5f5f5f5f5f5f60035f9054906101000a900473ffffffffffffffffffffffffffffffffffffffff1673ffffffffffffffffffffffffffffffffffffffff1663c9faa7c58a6040518263ffffffff1660e01b81526004016114fc9190612041565b602060405180830381865afa158015611517573d5f5f3e3d5ffd5b505050506040513d601f19601f8201168201806040525081019061153b9190612435565b97505f60035f9054906101000a900473ffffffffffffffffffffffffffffffffffffffff1673ffffffffffffffffffffffffffffffffffffffff1663022d44e38b6040518263ffffffff1660e01b81526004016115989190612041565b602060405180830381865afa1580156115b3573d5f5f3e3d5ffd5b505050506040513d601f19601f820116820180604052508101906115d7919061252b565b90505f81116115e6575f6115f3565b80426115f29190612602565b5b975060015f9054906101000a900473ffffffffffffffffffffffffffffffffffffffff1673ffffffffffffffffffffffffffffffffffffffff16635e09eea18b6040518263ffffffff1660e01b815260040161164f9190612041565b602060405180830381865afa15801561166a573d5f5f3e3d5ffd5b505050506040513d601f19601f8201168201806040525081019061168e919061252b565b965060025f9054906101000a900473ffffffffffffffffffffffffffffffffffffffff1673ffffffffffffffffffffffffffffffffffffffff166396e3dad68b6040518263ffffffff1660e01b81526004016116ea9190612041565b602060405180830381865afa158015611705573d5f5f3e3d5ffd5b505050506040513d601f19601f82011682018060405250810190611729919061252b565b9550600d5f8b73ffffffffffffffffffffffffffffffffffffffff1673ffffffffffffffffffffffffffffffffffffffff1681526020019081526020015f205f9054906101000a900460ff169450600c5f8b73ffffffffffffffffffffffffffffffffffffffff1673ffffffffffffffffffffffffffffffffffffffff1681526020019081526020015f205f9054906101000a900460ff16935060055f9054906101000a900473ffffffffffffffffffffffffffffffffffffffff1673ffffffffffffffffffffffffffffffffffffffff16639c89a0e28b6040518263ffffffff1660e01b815260040161181d9190612041565b602060405180830381865afa158015611838573d5f5f3e3d5ffd5b505050506040513d601f19601f8201168201806040525081019061185c919061252b565b925060045f9054906101000a900473ffffffffffffffffffffffffffffffffffffffff1673ffffffffffffffffffffffffffffffffffffffff1663e1917fda308c6040518363ffffffff1660e01b81526004016118ba9291906123fa565b602060405180830381865afa1580156118d5573d5f5f3e3d5ffd5b505050506040513d601f19601f820116820180604052508101906118f99190612435565b915050919395975091939597565b600e5481565b60045f9054906101000a900473ffffffffffffffffffffffffffffffffffffffff1681565b60055f9054906101000a900473ffffffffffffffffffffffffffffffffffffffff1681565b5f5f5f9054906101000a900473ffffffffffffffffffffffffffffffffffffffff16905090565b600b5481565b60095481565b61100881565b600d602052805f5260405f205f915054906101000a900460ff1681565b60015f9054906101000a900473ffffffffffffffffffffffffffffffffffffffff1681565b62278d0081565b600a5481565b6119e7611aad565b5f73ffffffffffffffffffffffffffffffffffffffff168173ffffffffffffffffffffffffffffffffffffffff1603611a57575f6040517f1e4fbdf7000000000000000000000000000000000000000000000000000000008152600401611a4e9190612041565b60405180910390fd5b611a6081611b4a565b50565b60035f9054906101000a900473ffffffffffffffffffffffffffffffffffffffff1681565b60065f9054906101000a900473ffffffffffffffffffffffffffffffffffffffff1681565b611ab5611c0b565b73ffffffffffffffffffffffffffffffffffffffff16611ad3611957565b73ffffffffffffffffffffffffffffffffffffffff1614611b3257611af6611c0b565b6040517f118cdaa7000000000000000000000000000000000000000000000000000000008152600401611b299190612041565b60405180910390fd5b565b5f82611b408584611c12565b1490509392505050565b5f5f5f9054906101000a900473ffffffffffffffffffffffffffffffffffffffff169050815f5f6101000a81548173ffffffffffffffffffffffffffffffffffffffff021916908373ffffffffffffffffffffffffffffffffffffffff1602179055508173ffffffffffffffffffffffffffffffffffffffff168173ffffffffffffffffffffffffffffffffffffffff167f8be0079c531659141344cd1fd0a4f28419497f9722a3daafe3b4186f6b6457e060405160405180910390a35050565b5f33905090565b5f5f8290505f5f90505b8451811015611c5857611c4982868381518110611c3c57611c3b61257d565b5b6020026020010151611c63565b91508080600101915050611c1c565b508091505092915050565b5f818310611c7a57611c758284611c8d565b611c85565b611c848383611c8d565b5b905092915050565b5f825f528160205260405f20905092915050565b5f5ffd5b5f5ffd5b5f819050919050565b611cbb81611ca9565b8114611cc5575f5ffd5b50565b5f81359050611cd681611cb2565b92915050565b5f5f5f60608486031215611cf357611cf2611ca1565b5b5f611d0086828701611cc8565b9350506020611d1186828701611cc8565b9250506040611d2286828701611cc8565b9150509250925092565b5f73ffffffffffffffffffffffffffffffffffffffff82169050919050565b5f611d5582611d2c565b9050919050565b611d6581611d4b565b8114611d6f575f5ffd5b50565b5f81359050611d8081611d5c565b92915050565b5f8115159050919050565b611d9a81611d86565b8114611da4575f5ffd5b50565b5f81359050611db581611d91565b92915050565b5f5f60408385031215611dd157611dd0611ca1565b5b5f611dde85828601611d72565b9250506020611def85828601611da7565b9150509250929050565b611e0281611ca9565b82525050565b5f602082019050611e1b5f830184611df9565b92915050565b5f819050919050565b611e3381611e21565b82525050565b5f602082019050611e4c5f830184611e2a565b92915050565b5f5ffd5b5f5ffd5b5f5ffd5b5f5f83601f840112611e7357611e72611e52565b5b8235905067ffffffffffffffff811115611e9057611e8f611e56565b5b602083019150836020820283011115611eac57611eab611e5a565b5b9250929050565b5f5f5f60408486031215611eca57611ec9611ca1565b5b5f611ed786828701611cc8565b935050602084013567ffffffffffffffff811115611ef857611ef7611ca5565b5b611f0486828701611e5e565b92509250509250925092565b5f5f5f5f60808587031215611f2857611f27611ca1565b5b5f611f3587828801611cc8565b9450506020611f4687828801611cc8565b9350506040611f5787828801611cc8565b9250506060611f6887828801611cc8565b91505092959194509250565b611f7d81611e21565b8114611f87575f5ffd5b50565b5f81359050611f9881611f74565b92915050565b5f60208284031215611fb357611fb2611ca1565b5b5f611fc084828501611f8a565b91505092915050565b5f60208284031215611fde57611fdd611ca1565b5b5f611feb84828501611d72565b91505092915050565b5f5f6040838503121561200a57612009611ca1565b5b5f61201785828601611cc8565b925050602061202885828601611cc8565b9150509250929050565b61203b81611d4b565b82525050565b5f6020820190506120545f830184612032565b92915050565b5f5f83601f84011261206f5761206e611e52565b5b8235905067ffffffffffffffff81111561208c5761208b611e56565b5b6020830191508360208202830111156120a8576120a7611e5a565b5b9250929050565b5f5f83601f8401126120c4576120c3611e52565b5b8235905067ffffffffffffffff8111156120e1576120e0611e56565b5b6020830191508360208202830111156120fd576120fc611e5a565b5b9250929050565b5f5f5f5f6040858703121561211c5761211b611ca1565b5b5f85013567ffffffffffffffff81111561213957612138611ca5565b5b6121458782880161205a565b9450945050602085013567ffffffffffffffff81111561216857612167611ca5565b5b612174878288016120af565b925092505092959194509250565b61218b81611d86565b82525050565b5f6020820190506121a45f830184612182565b92915050565b5f819050919050565b5f6121cd6121c86121c384611d2c565b6121aa565b611d2c565b9050919050565b5f6121de826121b3565b9050919050565b5f6121ef826121d4565b9050919050565b6121ff816121e5565b82525050565b5f6020820190506122185f8301846121f6565b92915050565b5f610100820190506122325f83018b612182565b61223f602083018a611df9565b61224c6040830189611df9565b6122596060830188611df9565b6122666080830187612182565b61227360a0830186612182565b61228060c0830185611df9565b61228d60e0830184612182565b9998505050505050505050565b5f6122a4826121d4565b9050919050565b6122b48161229a565b82525050565b5f6020820190506122cd5f8301846122ab565b92915050565b5f6122dd826121d4565b9050919050565b6122ed816122d3565b82525050565b5f6020820190506123065f8301846122e4565b92915050565b5f612316826121d4565b9050919050565b6123268161230c565b82525050565b5f60208201905061233f5f83018461231d565b92915050565b5f61234f826121d4565b9050919050565b61235f81612345565b82525050565b5f6020820190506123785f830184612356565b92915050565b5f612388826121d4565b9050919050565b6123988161237e565b82525050565b5f6020820190506123b15f83018461238f565b92915050565b5f6080820190506123ca5f830187611df9565b6123d76020830186611df9565b6123e46040830185611df9565b6123f16060830184611df9565b95945050505050565b5f60408201905061240d5f830185612032565b61241a6020830184612032565b9392505050565b5f8151905061242f81611d91565b92915050565b5f6020828403121561244a57612449611ca1565b5b5f61245784828501612421565b91505092915050565b5f8160601b9050919050565b5f61247682612460565b9050919050565b5f6124878261246c565b9050919050565b61249f61249a82611d4b565b61247d565b82525050565b5f819050919050565b6124bf6124ba82611ca9565b6124a5565b82525050565b5f6124d0828561248e565b6014820191506124e082846124ae565b6020820191508190509392505050565b5f6040820190506125035f830185612032565b6125106020830184611df9565b9392505050565b5f8151905061252581611cb2565b92915050565b5f602082840312156125405761253f611ca1565b5b5f61254d84828501612517565b91505092915050565b5f6040820190506125695f830185611df9565b6125766020830184611df9565b9392505050565b7f4e487b71000000000000000000000000000000000000000000000000000000005f52603260045260245ffd5b5f602082840312156125bf576125be611ca1565b5b5f6125cc84828501611da7565b91505092915050565b7f4e487b71000000000000000000000000000000000000000000000000000000005f52601160045260245ffd5b5f61260c82611ca9565b915061261783611ca9565b925082820390508181111561262f5761262e6125d5565b5b9291505056fea2646970667358221220815b6e756f8bec15ed19b806ca28b796cfb2c1e8b55f879445749f475f340d2864736f6c634300081c0033","linkReferences":{}},"methodIdentifiers":{"DEFAULT_ACCOUNT_AGE()":"e6186da6","DEFAULT_AIRDROP_DURATION()":"4b50ebc3","DEFAULT_KYC_LEVEL()":"66ccea9e","DEFAULT_MIN_REPUTATION()":"19676db0","DEFAULT_TRUST_SCORE()":"354f63f4","FILTER_CONTRACT_ADDRESS()":"4df4ebd8","REPUTATION_CONTRACT_ADDRESS()":"b8e70b98","activationContract()":"f3ad1ec5","batchSetBlacklist(address[],bool[])":"565c99ac","blacklisted(address)":"dbac26e9","claim(uint256,bytes32[])":"2f52ebb7","endTime()":"3197cbb6","filterContract()":"847a18bb","getEligibilityDetails(address)":"75ae0131","hasClaimed(address)":"73b2e80e","isEligible(address)":"66e305fd","kycContract()":"6d3123eb","merkleRoot()":"2eb4a7ab","owner()":"8da5cb5b","renounceOwnership()":"715018a6","reputationContract()":"87bc1425","requiredAccountAge()":"e9c8abec","requiredKYCLevel()":"aa92e1c5","requiredReputationScore()":"9091b428","requiredTrustScore()":"3905c201","setBlacklist(address,bool)":"153b0d1e","startTime()":"78e97925","token()":"fc0c546a","transferOwnership(address)":"f2fde38b","trustScoreContract()":"dc7831fd","updateAirdropTiming(uint256,uint256)":"4b6ce9bc","updateMerkleRoot(bytes32)":"4783f0ef","updateRequirements(uint256,uint256,uint256)":"0ecff812","updateRequirements(uint256,uint256,uint256,uint256)":"3630d992","withdrawTokens(address)":"49df728c"},"id":48}