{
  "_format": "hh-sol-artifact-1",
  "contractName": "SybilResistantAirdrop",
  "sourceName": "contracts/SybilResistantAirdrop.sol",
  "abi": [
    {
      "inputs": [
        {
          "internalType": "address",
          "name": "_token",
          "type": "address"
        },
        {
          "internalType": "bytes32",
          "name": "_merkleRoot",
          "type": "bytes32"
        },
        {
          "internalType": "address",
          "name": "_trustScoreContract",
          "type": "address"
        },
        {
          "internalType": "address",
          "name": "_feeContractAddress",
          "type": "address"
        },
        {
          "internalType": "uint256",
          "name": "_requiredTrustScore",
          "type": "uint256"
        },
        {
          "internalType": "uint256",
          "name": "_requiredKYCLevel",
          "type": "uint256"
        },
        {
          "internalType": "uint256",
          "name": "_startTime",
          "type": "uint256"
        },
        {
          "internalType": "uint256",
          "name": "_endTime",
          "type": "uint256"
        }
      ],
      "stateMutability": "nonpayable",
      "type": "constructor"
    },
    {
      "inputs": [],
      "name": "AddressBlacklisted",
      "type": "error"
    },
    {
      "inputs": [],
      "name": "AirdropEnded",
      "type": "error"
    },
    {
      "inputs": [],
      "name": "AirdropNotStarted",
      "type": "error"
    },
    {
      "inputs": [],
      "name": "AirdropStillInProgress",
      "type": "error"
    },
    {
      "inputs": [],
      "name": "AlreadyClaimed",
      "type": "error"
    },
    {
      "inputs": [],
      "name": "ArrayLengthMismatch",
      "type": "error"
    },
    {
      "inputs": [],
      "name": "EndTimeBeforeStartTime",
      "type": "error"
    },
    {
      "inputs": [],
      "name": "InvalidMerkleProof",
      "type": "error"
    },
    {
      "inputs": [],
      "name": "NoTokensToWithdraw",
      "type": "error"
    },
    {
      "inputs": [],
      "name": "NotEligible",
      "type": "error"
    },
    {
      "inputs": [],
      "name": "TransferFailed",
      "type": "error"
    },
    {
      "anonymous": false,
      "inputs": [
        {
          "indexed": true,
          "internalType": "address",
          "name": "user",
          "type": "address"
        },
        {
          "indexed": false,
          "internalType": "uint256",
          "name": "amount",
          "type": "uint256"
        }
      ],
      "name": "AirdropClaimed",
      "type": "event"
    },
    {
      "anonymous": false,
      "inputs": [
        {
          "indexed": false,
          "internalType": "uint256",
          "name": "startTime",
          "type": "uint256"
        },
        {
          "indexed": false,
          "internalType": "uint256",
          "name": "endTime",
          "type": "uint256"
        }
      ],
      "name": "AirdropTimingUpdated",
      "type": "event"
    },
    {
      "anonymous": false,
      "inputs": [
        {
          "indexed": true,
          "internalType": "address",
          "name": "user",
          "type": "address"
        },
        {
          "indexed": false,
          "internalType": "bool",
          "name": "isBlacklisted",
          "type": "bool"
        }
      ],
      "name": "BlacklistUpdated",
      "type": "event"
    },
    {
      "anonymous": false,
      "inputs": [
        {
          "indexed": true,
          "internalType": "address",
          "name": "previousOwner",
          "type": "address"
        },
        {
          "indexed": true,
          "internalType": "address",
          "name": "newOwner",
          "type": "address"
        }
      ],
      "name": "OwnershipTransferred",
      "type": "event"
    },
    {
      "anonymous": false,
      "inputs": [
        {
          "indexed": false,
          "internalType": "uint256",
          "name": "trustScore",
          "type": "uint256"
        },
        {
          "indexed": false,
          "internalType": "uint256",
          "name": "kycLevel",
          "type": "uint256"
        }
      ],
      "name": "RequirementsUpdated",
      "type": "event"
    },
    {
      "inputs": [],
      "name": "DEFAULT_AIRDROP_DURATION",
      "outputs": [
        {
          "internalType": "uint256",
          "name": "",
          "type": "uint256"
        }
      ],
      "stateMutability": "view",
      "type": "function"
    },
    {
      "inputs": [],
      "name": "DEFAULT_KYC_LEVEL",
      "outputs": [
        {
          "internalType": "uint256",
          "name": "",
          "type": "uint256"
        }
      ],
      "stateMutability": "view",
      "type": "function"
    },
    {
      "inputs": [],
      "name": "DEFAULT_TRUST_SCORE",
      "outputs": [
        {
          "internalType": "uint256",
          "name": "",
          "type": "uint256"
        }
      ],
      "stateMutability": "view",
      "type": "function"
    },
    {
      "inputs": [],
      "name": "KYC_CONTRACT_ADDRESS",
      "outputs": [
        {
          "internalType": "address",
          "name": "",
          "type": "address"
        }
      ],
      "stateMutability": "view",
      "type": "function"
    },
    {
      "inputs": [
        {
          "internalType": "address[]",
          "name": "users",
          "type": "address[]"
        },
        {
          "internalType": "bool[]",
          "name": "statuses",
          "type": "bool[]"
        }
      ],
      "name": "batchSetBlacklist",
      "outputs": [],
      "stateMutability": "nonpayable",
      "type": "function"
    },
    {
      "inputs": [
        {
          "internalType": "address",
          "name": "",
          "type": "address"
        }
      ],
      "name": "blacklisted",
      "outputs": [
        {
          "internalType": "bool",
          "name": "",
          "type": "bool"
        }
      ],
      "stateMutability": "view",
      "type": "function"
    },
    {
      "inputs": [
        {
          "internalType": "uint256",
          "name": "amount",
          "type": "uint256"
        },
        {
          "internalType": "bytes32[]",
          "name": "proof",
          "type": "bytes32[]"
        }
      ],
      "name": "claim",
      "outputs": [],
      "stateMutability": "nonpayable",
      "type": "function"
    },
    {
      "inputs": [],
      "name": "endTime",
      "outputs": [
        {
          "internalType": "uint256",
          "name": "",
          "type": "uint256"
        }
      ],
      "stateMutability": "view",
      "type": "function"
    },
    {
      "inputs": [],
      "name": "feeContract",
      "outputs": [
        {
          "internalType": "contract IGraphiteFee",
          "name": "",
          "type": "address"
        }
      ],
      "stateMutability": "view",
      "type": "function"
    },
    {
      "inputs": [
        {
          "internalType": "address",
          "name": "user",
          "type": "address"
        }
      ],
      "name": "getEligibilityDetails",
      "outputs": [
        {
          "internalType": "bool",
          "name": "isActivated",
          "type": "bool"
        },
        {
          "internalType": "uint256",
          "name": "trustScore",
          "type": "uint256"
        },
        {
          "internalType": "uint256",
          "name": "kycLevel",
          "type": "uint256"
        },
        {
          "internalType": "bool",
          "name": "isBlacklisted",
          "type": "bool"
        },
        {
          "internalType": "bool",
          "name": "hasClaimedAirdrop",
          "type": "bool"
        }
      ],
      "stateMutability": "view",
      "type": "function"
    },
    {
      "inputs": [
        {
          "internalType": "address",
          "name": "",
          "type": "address"
        }
      ],
      "name": "hasClaimed",
      "outputs": [
        {
          "internalType": "bool",
          "name": "",
          "type": "bool"
        }
      ],
      "stateMutability": "view",
      "type": "function"
    },
    {
      "inputs": [
        {
          "internalType": "address",
          "name": "user",
          "type": "address"
        }
      ],
      "name": "isEligible",
      "outputs": [
        {
          "internalType": "bool",
          "name": "eligible",
          "type": "bool"
        }
      ],
      "stateMutability": "view",
      "type": "function"
    },
    {
      "inputs": [],
      "name": "kycContract",
      "outputs": [
        {
          "internalType": "contract IGraphiteKYC",
          "name": "",
          "type": "address"
        }
      ],
      "stateMutability": "view",
      "type": "function"
    },
    {
      "inputs": [],
      "name": "merkleRoot",
      "outputs": [
        {
          "internalType": "bytes32",
          "name": "",
          "type": "bytes32"
        }
      ],
      "stateMutability": "view",
      "type": "function"
    },
    {
      "inputs": [],
      "name": "owner",
      "outputs": [
        {
          "internalType": "address",
          "name": "",
          "type": "address"
        }
      ],
      "stateMutability": "view",
      "type": "function"
    },
    {
      "inputs": [],
      "name": "renounceOwnership",
      "outputs": [],
      "stateMutability": "nonpayable",
      "type": "function"
    },
    {
      "inputs": [],
      "name": "requiredKYCLevel",
      "outputs": [
        {
          "internalType": "uint256",
          "name": "",
          "type": "uint256"
        }
      ],
      "stateMutability": "view",
      "type": "function"
    },
    {
      "inputs": [],
      "name": "requiredTrustScore",
      "outputs": [
        {
          "internalType": "uint256",
          "name": "",
          "type": "uint256"
        }
      ],
      "stateMutability": "view",
      "type": "function"
    },
    {
      "inputs": [
        {
          "internalType": "address",
          "name": "user",
          "type": "address"
        },
        {
          "internalType": "bool",
          "name": "isBlacklisted",
          "type": "bool"
        }
      ],
      "name": "setBlacklist",
      "outputs": [],
      "stateMutability": "nonpayable",
      "type": "function"
    },
    {
      "inputs": [],
      "name": "startTime",
      "outputs": [
        {
          "internalType": "uint256",
          "name": "",
          "type": "uint256"
        }
      ],
      "stateMutability": "view",
      "type": "function"
    },
    {
      "inputs": [],
      "name": "token",
      "outputs": [
        {
          "internalType": "contract IERC20",
          "name": "",
          "type": "address"
        }
      ],
      "stateMutability": "view",
      "type": "function"
    },
    {
      "inputs": [
        {
          "internalType": "address",
          "name": "newOwner",
          "type": "address"
        }
      ],
      "name": "transferOwnership",
      "outputs": [],
      "stateMutability": "nonpayable",
      "type": "function"
    },
    {
      "inputs": [],
      "name": "trustScoreContract",
      "outputs": [
        {
          "internalType": "contract IGraphiteTrustScore",
          "name": "",
          "type": "address"
        }
      ],
      "stateMutability": "view",
      "type": "function"
    },
    {
      "inputs": [
        {
          "internalType": "uint256",
          "name": "_startTime",
          "type": "uint256"
        },
        {
          "internalType": "uint256",
          "name": "_endTime",
          "type": "uint256"
        }
      ],
      "name": "updateAirdropTiming",
      "outputs": [],
      "stateMutability": "nonpayable",
      "type": "function"
    },
    {
      "inputs": [
        {
          "internalType": "bytes32",
          "name": "_merkleRoot",
          "type": "bytes32"
        }
      ],
      "name": "updateMerkleRoot",
      "outputs": [],
      "stateMutability": "nonpayable",
      "type": "function"
    },
    {
      "inputs": [
        {
          "internalType": "uint256",
          "name": "_trustScore",
          "type": "uint256"
        },
        {
          "internalType": "uint256",
          "name": "_kycLevel",
          "type": "uint256"
        }
      ],
      "name": "updateRequirements",
      "outputs": [],
      "stateMutability": "nonpayable",
      "type": "function"
    },
    {
      "inputs": [
        {
          "internalType": "address",
          "name": "_token",
          "type": "address"
        }
      ],
      "name": "withdrawTokens",
      "outputs": [],
      "stateMutability": "nonpayable",
      "type": "function"
    }
  ],
  "bytecode": "0x60806040523480156200001157600080fd5b50604051620013ab380380620013ab833981016040819052620000349162000182565b6200003f3362000115565b600480546001600160a01b03808b166001600160a01b031992831617909255600589905560018054898416908316179055600280549288169282169290921790915560038054909116611001179055600684905560078390558015801590620000a757508115155b8015620000b45750818111155b15620000d357604051634313345360e01b815260040160405180910390fd5b8115620000e15781620000e3565b425b600a558015620000f4578062000103565b6200010362278d0042620001fd565b600b5550620002249650505050505050565b600080546001600160a01b038381166001600160a01b0319831681178455604051919092169283917f8be0079c531659141344cd1fd0a4f28419497f9722a3daafe3b4186f6b6457e09190a35050565b80516001600160a01b03811681146200017d57600080fd5b919050565b600080600080600080600080610100898b031215620001a057600080fd5b620001ab8962000165565b975060208901519650620001c260408a0162000165565b9550620001d260608a0162000165565b94506080890151935060a0890151925060c0890151915060e089015190509295985092959890939650565b600082198211156200021f57634e487b7160e01b600052601160045260246000fd5b500190565b61117780620002346000396000f3fe608060405234801561001057600080fd5b50600436106101a95760003560e01c806366ccea9e116100f95780638da5cb5b11610097578063dbac26e911610071578063dbac26e914610376578063dc7831fd14610399578063f2fde38b146103ac578063fc0c546a146103bf57600080fd5b80638da5cb5b14610349578063aa92e1c51461035a578063d4c755b81461036357600080fd5b8063715018a6116100d3578063715018a6146102d457806373b2e80e146102dc57806375ae0131146102ff57806378e979251461034057600080fd5b806366ccea9e1461029657806366e305fd1461029e5780636d3123eb146102c157600080fd5b8063354f63f41161016657806349df728c1161014057806349df728c146102535780634b50ebc3146102665780634b6ce9bc14610270578063565c99ac1461028357600080fd5b8063354f63f41461022f5780633905c201146102375780634783f0ef1461024057600080fd5b806306e29712146101ae578063153b0d1e146101de5780632bd7509c146101f35780632eb4a7ab146101fc5780632f52ebb7146102135780633197cbb614610226575b600080fd5b6002546101c1906001600160a01b031681565b6040516001600160a01b0390911681526020015b60405180910390f35b6101f16101ec366004610f20565b6103d2565b005b6101c161100181565b61020560055481565b6040519081526020016101d5565b6101f1610221366004610fa3565b610439565b610205600b5481565b61020560c881565b61020560065481565b6101f161024e366004610fef565b610694565b6101f1610261366004611008565b6106a1565b61020562278d0081565b6101f161027e366004611023565b610809565b6101f1610291366004611045565b610879565b610205600181565b6102b16102ac366004611008565b6109ca565b60405190151581526020016101d5565b6003546101c1906001600160a01b031681565b6101f1610b4b565b6102b16102ea366004611008565b60086020526000908152604090205460ff1681565b61031261030d366004611008565b610b5f565b604080519515158652602086019490945292840191909152151560608301521515608082015260a0016101d5565b610205600a5481565b6000546001600160a01b03166101c1565b61020560075481565b6101f1610371366004611023565b610cf1565b6102b1610384366004611008565b60096020526000908152604090205460ff1681565b6001546101c1906001600160a01b031681565b6101f16103ba366004611008565b610d39565b6004546101c1906001600160a01b031681565b6103da610db7565b6001600160a01b038216600081815260096020908152604091829020805460ff191685151590811790915591519182527f6a12b3df6cba4203bd7fd06b816789f87de8c594299aed5717ae070fac781bac910160405180910390a25050565b600a5442101561045c5760405163b820fc9760e01b815260040160405180910390fd5b600b5442111561047f5760405163061ddd4f60e51b815260040160405180910390fd5b3360009081526008602052604090205460ff16156104b057604051630c8d9eab60e31b815260040160405180910390fd5b3360009081526009602052604090205460ff16156104e157604051631f7b776b60e01b815260040160405180910390fd5b6104ea336109ca565b61050757604051637c75aa6f60e11b815260040160405180910390fd5b6040516bffffffffffffffffffffffff193360601b16602082015260348101849052600090605401604051602081830303815290604052805190602001209050610588838380806020026020016040519081016040528093929190818152602001838360200280828437600092019190915250506005549150849050610e11565b6105a55760405163582f497d60e11b815260040160405180910390fd5b33600081815260086020526040808220805460ff1916600117905560048054915163a9059cbb60e01b8152908101939093526024830187905290916001600160a01b039091169063a9059cbb906044016020604051808303816000875af1158015610614573d6000803e3d6000fd5b505050506040513d601f19601f8201168201806040525081019061063891906110b1565b905080610658576040516312171d8360e31b815260040160405180910390fd5b60405185815233907f650e45f04ef8a0c267b2f78d983913f69ae3a353b2b32de5429307522be0ab559060200160405180910390a25050505050565b61069c610db7565b600555565b6106a9610db7565b6040516370a0823160e01b815230600482015281906000906001600160a01b038316906370a0823190602401602060405180830381865afa1580156106f2573d6000803e3d6000fd5b505050506040513d601f19601f8201168201806040525081019061071691906110ce565b90508060000361073957604051637dd28aa760e11b815260040160405180910390fd5b6004546001600160a01b039081169084160361077157600b544211610771576040516356546c8960e01b815260040160405180910390fd5b816001600160a01b031663a9059cbb6107926000546001600160a01b031690565b6040516001600160e01b031960e084901b1681526001600160a01b039091166004820152602481018490526044016020604051808303816000875af11580156107df573d6000803e3d6000fd5b505050506040513d601f19601f8201168201806040525081019061080391906110b1565b50505050565b610811610db7565b81811161083157604051634313345360e01b815260040160405180910390fd5b600a829055600b81905560408051838152602081018390527fa73c2a4e4657f5e1ff94a19ffe5f535cdd2dd893a121899816c3e9f66565cb0191015b60405180910390a15050565b610881610db7565b8281146108a15760405163512509d360e11b815260040160405180910390fd5b60005b838110156109c3578282828181106108be576108be6110e7565b90506020020160208101906108d391906110fd565b600960008787858181106108e9576108e96110e7565b90506020020160208101906108fe9190611008565b6001600160a01b031681526020810191909152604001600020805460ff1916911515919091179055848482818110610938576109386110e7565b905060200201602081019061094d9190611008565b6001600160a01b03167f6a12b3df6cba4203bd7fd06b816789f87de8c594299aed5717ae070fac781bac848484818110610989576109896110e7565b905060200201602081019061099e91906110fd565b604051901515815260200160405180910390a2806109bb8161111a565b9150506108a4565b5050505050565b60025460405163591a726f60e01b81526001600160a01b038381166004830152600092169063591a726f90602401602060405180830381865afa158015610a15573d6000803e3d6000fd5b505050506040513d601f19601f82011682018060405250810190610a3991906110b1565b610a4557506000919050565b600754600354604051636a0db6db60e11b81526001600160a01b0385811660048301529091169063d41b6db690602401602060405180830381865afa158015610a92573d6000803e3d6000fd5b505050506040513d601f19601f82011682018060405250810190610ab691906110ce565b1015610ac457506000919050565b600654600154604051635e09eea160e01b81526001600160a01b03858116600483015290911690635e09eea190602401602060405180830381865afa158015610b11573d6000803e3d6000fd5b505050506040513d601f19601f82011682018060405250810190610b3591906110ce565b1015610b4357506000919050565b506001919050565b610b53610db7565b610b5d6000610e27565b565b60025460405163591a726f60e01b81526001600160a01b038381166004830152600092839283928392839291169063591a726f90602401602060405180830381865afa158015610bb3573d6000803e3d6000fd5b505050506040513d601f19601f82011682018060405250810190610bd791906110b1565b600154604051635e09eea160e01b81526001600160a01b038981166004830152929750911690635e09eea190602401602060405180830381865afa158015610c23573d6000803e3d6000fd5b505050506040513d601f19601f82011682018060405250810190610c4791906110ce565b600354604051636a0db6db60e11b81526001600160a01b03898116600483015292965091169063d41b6db690602401602060405180830381865afa158015610c93573d6000803e3d6000fd5b505050506040513d601f19601f82011682018060405250810190610cb791906110ce565b6001600160a01b03909616600090815260096020908152604080832054600890925290912054959794969560ff9182169591169350915050565b610cf9610db7565b6006829055600781905560408051838152602081018390527fea62d59ed420dd690aaaa9161ae16a12ae31e0abc998b090f0da2d38f9a35f61910161086d565b610d41610db7565b6001600160a01b038116610dab5760405162461bcd60e51b815260206004820152602660248201527f4f776e61626c653a206e6577206f776e657220697320746865207a65726f206160448201526564647265737360d01b60648201526084015b60405180910390fd5b610db481610e27565b50565b6000546001600160a01b03163314610b5d5760405162461bcd60e51b815260206004820181905260248201527f4f776e61626c653a2063616c6c6572206973206e6f7420746865206f776e65726044820152606401610da2565b600082610e1e8584610e77565b14949350505050565b600080546001600160a01b038381166001600160a01b0319831681178455604051919092169283917f8be0079c531659141344cd1fd0a4f28419497f9722a3daafe3b4186f6b6457e09190a35050565b600081815b8451811015610ebc57610ea882868381518110610e9b57610e9b6110e7565b6020026020010151610ec4565b915080610eb48161111a565b915050610e7c565b509392505050565b6000818310610ee0576000828152602084905260409020610eef565b60008381526020839052604090205b9392505050565b80356001600160a01b0381168114610f0d57600080fd5b919050565b8015158114610db457600080fd5b60008060408385031215610f3357600080fd5b610f3c83610ef6565b91506020830135610f4c81610f12565b809150509250929050565b60008083601f840112610f6957600080fd5b50813567ffffffffffffffff811115610f8157600080fd5b6020830191508360208260051b8501011115610f9c57600080fd5b9250929050565b600080600060408486031215610fb857600080fd5b83359250602084013567ffffffffffffffff811115610fd657600080fd5b610fe286828701610f57565b9497909650939450505050565b60006020828403121561100157600080fd5b5035919050565b60006020828403121561101a57600080fd5b610eef82610ef6565b6000806040838503121561103657600080fd5b50508035926020909101359150565b6000806000806040858703121561105b57600080fd5b843567ffffffffffffffff8082111561107357600080fd5b61107f88838901610f57565b9096509450602087013591508082111561109857600080fd5b506110a587828801610f57565b95989497509550505050565b6000602082840312156110c357600080fd5b8151610eef81610f12565b6000602082840312156110e057600080fd5b5051919050565b634e487b7160e01b600052603260045260246000fd5b60006020828403121561110f57600080fd5b8135610eef81610f12565b60006001820161113a57634e487b7160e01b600052601160045260246000fd5b506001019056fea26469706673582212200609c18ab38b390b20080d554d01f349cd12ec86002d656473a952533962d09464736f6c634300080d0033",
  "linkReferences": {},
  "deployedLinkReferences": {}
}